{
  "_format": "hh-sol-artifact-1",
  "contractName": "ntt54StgydotLDOT",
  "sourceName": "contracts/ntt54StgydotLDOT.sol",
  "abi": [
    {
      "inputs": [],
      "stateMutability": "nonpayable",
      "type": "constructor"
    },
    {
      "anonymous": false,
      "inputs": [
        {
          "indexed": true,
          "internalType": "address",
          "name": "owner",
          "type": "address"
        },
        {
          "indexed": true,
          "internalType": "address",
          "name": "spender",
          "type": "address"
        },
        {
          "indexed": false,
          "internalType": "uint256",
          "name": "value",
          "type": "uint256"
        }
      ],
      "name": "Approval",
      "type": "event"
    },
    {
      "anonymous": false,
      "inputs": [
        {
          "indexed": true,
          "internalType": "address",
          "name": "from",
          "type": "address"
        },
        {
          "indexed": true,
          "internalType": "address",
          "name": "to",
          "type": "address"
        },
        {
          "indexed": false,
          "internalType": "uint256",
          "name": "value",
          "type": "uint256"
        }
      ],
      "name": "Transfer",
      "type": "event"
    },
    {
      "inputs": [],
      "name": "ACA",
      "outputs": [
        {
          "internalType": "address",
          "name": "",
          "type": "address"
        }
      ],
      "stateMutability": "view",
      "type": "function"
    },
    {
      "inputs": [],
      "name": "AUSD",
      "outputs": [
        {
          "internalType": "address",
          "name": "",
          "type": "address"
        }
      ],
      "stateMutability": "view",
      "type": "function"
    },
    {
      "inputs": [],
      "name": "BNC",
      "outputs": [
        {
          "internalType": "address",
          "name": "",
          "type": "address"
        }
      ],
      "stateMutability": "view",
      "type": "function"
    },
    {
      "inputs": [],
      "name": "CASH",
      "outputs": [
        {
          "internalType": "address",
          "name": "",
          "type": "address"
        }
      ],
      "stateMutability": "view",
      "type": "function"
    },
    {
      "inputs": [],
      "name": "DEX",
      "outputs": [
        {
          "internalType": "address",
          "name": "",
          "type": "address"
        }
      ],
      "stateMutability": "view",
      "type": "function"
    },
    {
      "inputs": [],
      "name": "DOT",
      "outputs": [
        {
          "internalType": "address",
          "name": "",
          "type": "address"
        }
      ],
      "stateMutability": "view",
      "type": "function"
    },
    {
      "inputs": [],
      "name": "DOT_LDOT",
      "outputs": [
        {
          "internalType": "uint256",
          "name": "",
          "type": "uint256"
        }
      ],
      "stateMutability": "view",
      "type": "function"
    },
    {
      "inputs": [],
      "name": "EVM",
      "outputs": [
        {
          "internalType": "address",
          "name": "",
          "type": "address"
        }
      ],
      "stateMutability": "view",
      "type": "function"
    },
    {
      "inputs": [],
      "name": "EVMAccounts",
      "outputs": [
        {
          "internalType": "address",
          "name": "",
          "type": "address"
        }
      ],
      "stateMutability": "view",
      "type": "function"
    },
    {
      "inputs": [],
      "name": "Homa",
      "outputs": [
        {
          "internalType": "address",
          "name": "",
          "type": "address"
        }
      ],
      "stateMutability": "view",
      "type": "function"
    },
    {
      "inputs": [],
      "name": "Honzon",
      "outputs": [
        {
          "internalType": "address",
          "name": "",
          "type": "address"
        }
      ],
      "stateMutability": "view",
      "type": "function"
    },
    {
      "inputs": [],
      "name": "KAR",
      "outputs": [
        {
          "internalType": "address",
          "name": "",
          "type": "address"
        }
      ],
      "stateMutability": "view",
      "type": "function"
    },
    {
      "inputs": [],
      "name": "KBTC",
      "outputs": [
        {
          "internalType": "address",
          "name": "",
          "type": "address"
        }
      ],
      "stateMutability": "view",
      "type": "function"
    },
    {
      "inputs": [],
      "name": "KINT",
      "outputs": [
        {
          "internalType": "address",
          "name": "",
          "type": "address"
        }
      ],
      "stateMutability": "view",
      "type": "function"
    },
    {
      "inputs": [],
      "name": "KSM",
      "outputs": [
        {
          "internalType": "address",
          "name": "",
          "type": "address"
        }
      ],
      "stateMutability": "view",
      "type": "function"
    },
    {
      "inputs": [],
      "name": "KUSD",
      "outputs": [
        {
          "internalType": "address",
          "name": "",
          "type": "address"
        }
      ],
      "stateMutability": "view",
      "type": "function"
    },
    {
      "inputs": [],
      "name": "LCDOT",
      "outputs": [
        {
          "internalType": "address",
          "name": "",
          "type": "address"
        }
      ],
      "stateMutability": "view",
      "type": "function"
    },
    {
      "inputs": [],
      "name": "LDOT",
      "outputs": [
        {
          "internalType": "address",
          "name": "",
          "type": "address"
        }
      ],
      "stateMutability": "view",
      "type": "function"
    },
    {
      "inputs": [],
      "name": "LKSM",
      "outputs": [
        {
          "internalType": "address",
          "name": "",
          "type": "address"
        }
      ],
      "stateMutability": "view",
      "type": "function"
    },
    {
      "inputs": [],
      "name": "LP_ACA_AUSD",
      "outputs": [
        {
          "internalType": "address",
          "name": "",
          "type": "address"
        }
      ],
      "stateMutability": "view",
      "type": "function"
    },
    {
      "inputs": [],
      "name": "LP_DOT_AUSD",
      "outputs": [
        {
          "internalType": "address",
          "name": "",
          "type": "address"
        }
      ],
      "stateMutability": "view",
      "type": "function"
    },
    {
      "inputs": [],
      "name": "LP_KAR_KUSD",
      "outputs": [
        {
          "internalType": "address",
          "name": "",
          "type": "address"
        }
      ],
      "stateMutability": "view",
      "type": "function"
    },
    {
      "inputs": [],
      "name": "LP_KSM_KUSD",
      "outputs": [
        {
          "internalType": "address",
          "name": "",
          "type": "address"
        }
      ],
      "stateMutability": "view",
      "type": "function"
    },
    {
      "inputs": [],
      "name": "LP_LDOT_AUSD",
      "outputs": [
        {
          "internalType": "address",
          "name": "",
          "type": "address"
        }
      ],
      "stateMutability": "view",
      "type": "function"
    },
    {
      "inputs": [],
      "name": "LP_LKSM_KUSD",
      "outputs": [
        {
          "internalType": "address",
          "name": "",
          "type": "address"
        }
      ],
      "stateMutability": "view",
      "type": "function"
    },
    {
      "inputs": [],
      "name": "LP_RENBTC_AUSD",
      "outputs": [
        {
          "internalType": "address",
          "name": "",
          "type": "address"
        }
      ],
      "stateMutability": "view",
      "type": "function"
    },
    {
      "inputs": [],
      "name": "Oracle",
      "outputs": [
        {
          "internalType": "address",
          "name": "",
          "type": "address"
        }
      ],
      "stateMutability": "view",
      "type": "function"
    },
    {
      "inputs": [],
      "name": "PHA",
      "outputs": [
        {
          "internalType": "address",
          "name": "",
          "type": "address"
        }
      ],
      "stateMutability": "view",
      "type": "function"
    },
    {
      "inputs": [],
      "name": "RENBTC",
      "outputs": [
        {
          "internalType": "address",
          "name": "",
          "type": "address"
        }
      ],
      "stateMutability": "view",
      "type": "function"
    },
    {
      "inputs": [],
      "name": "SC_BALANCE_FEES",
      "outputs": [
        {
          "internalType": "uint256",
          "name": "",
          "type": "uint256"
        }
      ],
      "stateMutability": "view",
      "type": "function"
    },
    {
      "inputs": [],
      "name": "SC_BALANCE_FEES_TARGET",
      "outputs": [
        {
          "internalType": "uint256",
          "name": "",
          "type": "uint256"
        }
      ],
      "stateMutability": "view",
      "type": "function"
    },
    {
      "inputs": [],
      "name": "SC_BALANCE_FEES_THRESHOLD",
      "outputs": [
        {
          "internalType": "uint256",
          "name": "",
          "type": "uint256"
        }
      ],
      "stateMutability": "view",
      "type": "function"
    },
    {
      "inputs": [],
      "name": "Schedule",
      "outputs": [
        {
          "internalType": "address",
          "name": "",
          "type": "address"
        }
      ],
      "stateMutability": "view",
      "type": "function"
    },
    {
      "inputs": [],
      "name": "TAI",
      "outputs": [
        {
          "internalType": "address",
          "name": "",
          "type": "address"
        }
      ],
      "stateMutability": "view",
      "type": "function"
    },
    {
      "inputs": [],
      "name": "TAI_3USD",
      "outputs": [
        {
          "internalType": "address",
          "name": "",
          "type": "address"
        }
      ],
      "stateMutability": "view",
      "type": "function"
    },
    {
      "inputs": [],
      "name": "TAI_DOT",
      "outputs": [
        {
          "internalType": "address",
          "name": "",
          "type": "address"
        }
      ],
      "stateMutability": "view",
      "type": "function"
    },
    {
      "inputs": [],
      "name": "TAI_KSM",
      "outputs": [
        {
          "internalType": "address",
          "name": "",
          "type": "address"
        }
      ],
      "stateMutability": "view",
      "type": "function"
    },
    {
      "inputs": [],
      "name": "VSKSM",
      "outputs": [
        {
          "internalType": "address",
          "name": "",
          "type": "address"
        }
      ],
      "stateMutability": "view",
      "type": "function"
    },
    {
      "inputs": [],
      "name": "admin",
      "outputs": [
        {
          "internalType": "address",
          "name": "",
          "type": "address"
        }
      ],
      "stateMutability": "view",
      "type": "function"
    },
    {
      "inputs": [
        {
          "internalType": "address",
          "name": "owner",
          "type": "address"
        },
        {
          "internalType": "address",
          "name": "spender",
          "type": "address"
        }
      ],
      "name": "allowance",
      "outputs": [
        {
          "internalType": "uint256",
          "name": "",
          "type": "uint256"
        }
      ],
      "stateMutability": "view",
      "type": "function"
    },
    {
      "inputs": [],
      "name": "amountAUSDtoSwaptoACA",
      "outputs": [
        {
          "internalType": "uint256",
          "name": "",
          "type": "uint256"
        }
      ],
      "stateMutability": "view",
      "type": "function"
    },
    {
      "inputs": [
        {
          "internalType": "address",
          "name": "spender",
          "type": "address"
        },
        {
          "internalType": "uint256",
          "name": "amount",
          "type": "uint256"
        }
      ],
      "name": "approve",
      "outputs": [
        {
          "internalType": "bool",
          "name": "",
          "type": "bool"
        }
      ],
      "stateMutability": "nonpayable",
      "type": "function"
    },
    {
      "inputs": [
        {
          "internalType": "address",
          "name": "account",
          "type": "address"
        }
      ],
      "name": "balanceOf",
      "outputs": [
        {
          "internalType": "uint256",
          "name": "",
          "type": "uint256"
        }
      ],
      "stateMutability": "view",
      "type": "function"
    },
    {
      "inputs": [],
      "name": "claimRewards",
      "outputs": [],
      "stateMutability": "nonpayable",
      "type": "function"
    },
    {
      "inputs": [],
      "name": "decimals",
      "outputs": [
        {
          "internalType": "uint8",
          "name": "",
          "type": "uint8"
        }
      ],
      "stateMutability": "view",
      "type": "function"
    },
    {
      "inputs": [
        {
          "internalType": "address",
          "name": "spender",
          "type": "address"
        },
        {
          "internalType": "uint256",
          "name": "subtractedValue",
          "type": "uint256"
        }
      ],
      "name": "decreaseAllowance",
      "outputs": [
        {
          "internalType": "bool",
          "name": "",
          "type": "bool"
        }
      ],
      "stateMutability": "nonpayable",
      "type": "function"
    },
    {
      "inputs": [
        {
          "internalType": "uint256",
          "name": "amount",
          "type": "uint256"
        },
        {
          "internalType": "uint256",
          "name": "percentAUSD",
          "type": "uint256"
        }
      ],
      "name": "depositDOT",
      "outputs": [],
      "stateMutability": "nonpayable",
      "type": "function"
    },
    {
      "inputs": [],
      "name": "epochNumber",
      "outputs": [
        {
          "internalType": "uint256",
          "name": "",
          "type": "uint256"
        }
      ],
      "stateMutability": "view",
      "type": "function"
    },
    {
      "inputs": [],
      "name": "excessLDOTinAccount",
      "outputs": [
        {
          "internalType": "uint256",
          "name": "",
          "type": "uint256"
        }
      ],
      "stateMutability": "view",
      "type": "function"
    },
    {
      "inputs": [],
      "name": "frequency",
      "outputs": [
        {
          "internalType": "uint256",
          "name": "",
          "type": "uint256"
        }
      ],
      "stateMutability": "view",
      "type": "function"
    },
    {
      "inputs": [],
      "name": "freshACArewards",
      "outputs": [
        {
          "internalType": "uint256",
          "name": "",
          "type": "uint256"
        }
      ],
      "stateMutability": "view",
      "type": "function"
    },
    {
      "inputs": [],
      "name": "freshAUSDrewards",
      "outputs": [
        {
          "internalType": "uint256",
          "name": "",
          "type": "uint256"
        }
      ],
      "stateMutability": "view",
      "type": "function"
    },
    {
      "inputs": [],
      "name": "homaExchangeRate",
      "outputs": [
        {
          "internalType": "uint256",
          "name": "",
          "type": "uint256"
        }
      ],
      "stateMutability": "view",
      "type": "function"
    },
    {
      "inputs": [
        {
          "internalType": "address",
          "name": "spender",
          "type": "address"
        },
        {
          "internalType": "uint256",
          "name": "addedValue",
          "type": "uint256"
        }
      ],
      "name": "increaseAllowance",
      "outputs": [
        {
          "internalType": "bool",
          "name": "",
          "type": "bool"
        }
      ],
      "stateMutability": "nonpayable",
      "type": "function"
    },
    {
      "inputs": [],
      "name": "initialDOTCapitaltoLDOT",
      "outputs": [
        {
          "internalType": "uint256",
          "name": "",
          "type": "uint256"
        }
      ],
      "stateMutability": "view",
      "type": "function"
    },
    {
      "inputs": [],
      "name": "manageProceeds",
      "outputs": [],
      "stateMutability": "nonpayable",
      "type": "function"
    },
    {
      "inputs": [],
      "name": "managingProceedsState",
      "outputs": [
        {
          "internalType": "bool",
          "name": "",
          "type": "bool"
        }
      ],
      "stateMutability": "view",
      "type": "function"
    },
    {
      "inputs": [],
      "name": "name",
      "outputs": [
        {
          "internalType": "string",
          "name": "",
          "type": "string"
        }
      ],
      "stateMutability": "view",
      "type": "function"
    },
    {
      "inputs": [],
      "name": "rebalanceStrategy",
      "outputs": [],
      "stateMutability": "nonpayable",
      "type": "function"
    },
    {
      "inputs": [
        {
          "internalType": "address",
          "name": "",
          "type": "address"
        }
      ],
      "name": "registeredUserAccounts",
      "outputs": [
        {
          "internalType": "bool",
          "name": "",
          "type": "bool"
        }
      ],
      "stateMutability": "view",
      "type": "function"
    },
    {
      "inputs": [],
      "name": "stakeDOT",
      "outputs": [],
      "stateMutability": "nonpayable",
      "type": "function"
    },
    {
      "inputs": [],
      "name": "startManagingProcees",
      "outputs": [],
      "stateMutability": "nonpayable",
      "type": "function"
    },
    {
      "inputs": [],
      "name": "stopManagingProcees",
      "outputs": [],
      "stateMutability": "nonpayable",
      "type": "function"
    },
    {
      "inputs": [],
      "name": "symbol",
      "outputs": [
        {
          "internalType": "string",
          "name": "",
          "type": "string"
        }
      ],
      "stateMutability": "view",
      "type": "function"
    },
    {
      "inputs": [],
      "name": "totalACAavailableBalance",
      "outputs": [
        {
          "internalType": "uint256",
          "name": "",
          "type": "uint256"
        }
      ],
      "stateMutability": "view",
      "type": "function"
    },
    {
      "inputs": [],
      "name": "totalAUSDavailableBalance",
      "outputs": [
        {
          "internalType": "uint256",
          "name": "",
          "type": "uint256"
        }
      ],
      "stateMutability": "view",
      "type": "function"
    },
    {
      "inputs": [],
      "name": "totalSupply",
      "outputs": [
        {
          "internalType": "uint256",
          "name": "",
          "type": "uint256"
        }
      ],
      "stateMutability": "view",
      "type": "function"
    },
    {
      "inputs": [],
      "name": "total_DOTinAccount",
      "outputs": [
        {
          "internalType": "uint256",
          "name": "",
          "type": "uint256"
        }
      ],
      "stateMutability": "view",
      "type": "function"
    },
    {
      "inputs": [],
      "name": "total_LDOTinAccount",
      "outputs": [
        {
          "internalType": "uint256",
          "name": "",
          "type": "uint256"
        }
      ],
      "stateMutability": "view",
      "type": "function"
    },
    {
      "inputs": [],
      "name": "total_STGaca",
      "outputs": [
        {
          "internalType": "uint256",
          "name": "",
          "type": "uint256"
        }
      ],
      "stateMutability": "view",
      "type": "function"
    },
    {
      "inputs": [],
      "name": "total_STGausd",
      "outputs": [
        {
          "internalType": "uint256",
          "name": "",
          "type": "uint256"
        }
      ],
      "stateMutability": "view",
      "type": "function"
    },
    {
      "inputs": [
        {
          "internalType": "address",
          "name": "to",
          "type": "address"
        },
        {
          "internalType": "uint256",
          "name": "amount",
          "type": "uint256"
        }
      ],
      "name": "transfer",
      "outputs": [
        {
          "internalType": "bool",
          "name": "",
          "type": "bool"
        }
      ],
      "stateMutability": "nonpayable",
      "type": "function"
    },
    {
      "inputs": [
        {
          "internalType": "uint256",
          "name": "amount",
          "type": "uint256"
        }
      ],
      "name": "transferFeesBalance",
      "outputs": [],
      "stateMutability": "nonpayable",
      "type": "function"
    },
    {
      "inputs": [
        {
          "internalType": "address",
          "name": "from",
          "type": "address"
        },
        {
          "internalType": "address",
          "name": "to",
          "type": "address"
        },
        {
          "internalType": "uint256",
          "name": "amount",
          "type": "uint256"
        }
      ],
      "name": "transferFrom",
      "outputs": [
        {
          "internalType": "bool",
          "name": "",
          "type": "bool"
        }
      ],
      "stateMutability": "nonpayable",
      "type": "function"
    },
    {
      "inputs": [],
      "name": "unstakeAndWithdrawDOT",
      "outputs": [],
      "stateMutability": "nonpayable",
      "type": "function"
    },
    {
      "inputs": [
        {
          "internalType": "uint256",
          "name": "_frequency",
          "type": "uint256"
        }
      ],
      "name": "updateFrequency",
      "outputs": [],
      "stateMutability": "nonpayable",
      "type": "function"
    },
    {
      "inputs": [
        {
          "internalType": "uint256",
          "name": "",
          "type": "uint256"
        }
      ],
      "name": "userAccounts",
      "outputs": [
        {
          "internalType": "address",
          "name": "",
          "type": "address"
        }
      ],
      "stateMutability": "view",
      "type": "function"
    },
    {
      "inputs": [
        {
          "internalType": "address",
          "name": "",
          "type": "address"
        },
        {
          "internalType": "address",
          "name": "",
          "type": "address"
        }
      ],
      "name": "userBalances",
      "outputs": [
        {
          "internalType": "uint256",
          "name": "",
          "type": "uint256"
        }
      ],
      "stateMutability": "view",
      "type": "function"
    },
    {
      "inputs": [
        {
          "internalType": "address",
          "name": "",
          "type": "address"
        }
      ],
      "name": "userPercentAUSD",
      "outputs": [
        {
          "internalType": "uint256",
          "name": "",
          "type": "uint256"
        }
      ],
      "stateMutability": "view",
      "type": "function"
    },
    {
      "inputs": [
        {
          "internalType": "address",
          "name": "",
          "type": "address"
        }
      ],
      "name": "userSTGaca",
      "outputs": [
        {
          "internalType": "uint256",
          "name": "",
          "type": "uint256"
        }
      ],
      "stateMutability": "view",
      "type": "function"
    },
    {
      "inputs": [
        {
          "internalType": "address",
          "name": "",
          "type": "address"
        }
      ],
      "name": "userSTGausd",
      "outputs": [
        {
          "internalType": "uint256",
          "name": "",
          "type": "uint256"
        }
      ],
      "stateMutability": "view",
      "type": "function"
    },
    {
      "inputs": [
        {
          "internalType": "address",
          "name": "",
          "type": "address"
        }
      ],
      "name": "userStakedDOT",
      "outputs": [
        {
          "internalType": "uint256",
          "name": "",
          "type": "uint256"
        }
      ],
      "stateMutability": "view",
      "type": "function"
    }
  ],
  "bytecode": "0x6080604052610803600560006101000a81548173ffffffffffffffffffffffffffffffffffffffff021916908373ffffffffffffffffffffffffffffffffffffffff160217905550610802600660006101000a81548173ffffffffffffffffffffffffffffffffffffffff021916908373ffffffffffffffffffffffffffffffffffffffff160217905550610805600760006101000a81548173ffffffffffffffffffffffffffffffffffffffff021916908373ffffffffffffffffffffffffffffffffffffffff1602179055506078600c556001600d60006101000a81548160ff0219169083151502179055506000601055600060155560006016556000601755600060185560006019556000601a55600060225560006023553480156200012757600080fd5b506040518060400160405280600d81526020017f4c702053747261746567792032000000000000000000000000000000000000008152506040518060400160405280600481526020017f53544732000000000000000000000000000000000000000000000000000000008152508160039080519060200190620001ac9291906200033f565b508060049080519060200190620001c59291906200033f565b50505033600f60006101000a81548173ffffffffffffffffffffffffffffffffffffffff021916908373ffffffffffffffffffffffffffffffffffffffff1602179055506a0100000000000000000002600860006101000a81548173ffffffffffffffffffffffffffffffffffffffff021916908373ffffffffffffffffffffffffffffffffffffffff1602179055506a0100000000000000000001600960006101000a81548173ffffffffffffffffffffffffffffffffffffffff021916908373ffffffffffffffffffffffffffffffffffffffff1602179055506a0100000000000000000000600a60006101000a81548173ffffffffffffffffffffffffffffffffffffffff021916908373ffffffffffffffffffffffffffffffffffffffff1602179055506a0100000000000000000003600b60006101000a81548173ffffffffffffffffffffffffffffffffffffffff021916908373ffffffffffffffffffffffffffffffffffffffff16021790555062000454565b8280546200034d90620003ef565b90600052602060002090601f016020900481019282620003715760008555620003bd565b82601f106200038c57805160ff1916838001178555620003bd565b82800160010185558215620003bd579182015b82811115620003bc5782518255916020019190600101906200039f565b5b509050620003cc9190620003d0565b5090565b5b80821115620003eb576000816000905550600101620003d1565b5090565b600060028204905060018216806200040857607f821691505b602082108114156200041f576200041e62000425565b5b50919050565b7f4e487b7100000000000000000000000000000000000000000000000000000000600052602260045260246000fd5b615e8480620004646000396000f3fe608060405234801561001057600080fd5b50600436106104965760003560e01c806392afbebf11610262578063c5641d9b11610151578063dd62ed3e116100ce578063f29588c711610092578063f29588c714610def578063f364ecd114610e0d578063f4145a8314610e29578063f589b63d14610e47578063f851a44014610e65578063fd45892114610e8357610496565b8063dd62ed3e14610d47578063e18b7ac514610d77578063ead50da314610d95578063ec857cd414610db3578063f24a534e14610dd157610496565b8063d3431c1d11610115578063d3431c1d14610cd9578063d54dc1ab14610ce3578063d7f269fe14610d01578063d9dc7fcd14610d1f578063db7a3ea314610d3d57610496565b8063c5641d9b14610c59578063c6bd6a9a14610c77578063c84dd46614610c95578063c86a6f9714610c9f578063d2c03d4914610cbd57610496565b8063adb51980116101df578063bbfec49d116101a3578063bbfec49d14610bb1578063bcb4dcd814610be1578063c30054c014610bff578063c322dfa014610c1d578063c496981514610c3b57610496565b8063adb5198014610b09578063b0dadb7b14610b39578063b3d27bc514610b57578063b5fd3c2d14610b75578063bacbd7cc14610b9357610496565b8063a1b5622611610226578063a1b5622614610a3d578063a457c2d714610a5b578063a5770a5414610a8b578063a7114a9814610aa9578063a9059cbb14610ad957610496565b806392afbebf1461099757806395d89b41146109c75780639732059a146109e557806399ba0bc214610a035780639c3a17ff14610a1f57610496565b806339509351116103895780635fc1b632116103065780636b80a04c116102ca5780636b80a04c146108d15780636cd83f18146108ef57806370a082311461090d578063783dc03d1461093d57806380935aa91461095b57806380bd60e81461097957610496565b80635fc1b632146108295780636022c7ab14610847578063616d505814610865578063669c493e1461089557806366f98e71146108b357610496565b806344e4a0801161034d57806344e4a080146107955780634b5edf9c146107b35780634b981f4b146107d15780635d499e82146108015780635e796bf71461081f57610496565b806339509351146106db5780633a9c5cbc1461070b5780633e1fbbb2146107295780633fdeeded1461074757806341da86531461077757610496565b80631f927675116104175780632fd7d1fd116103db5780632fd7d1fd14610659578063313ce56714610677578063351f5f3d1461069557806336e02950146106b3578063372500ab146106d157610496565b80631f927675146105c55780631fa1f9e8146105e357806323b872dd146105ed578063280d10601461061d578063280d5b411461063b57610496565b80630e8f60411161045e5780630e8f60411461052f57806318160ddd1461054d57806318ad37af1461056b57806318dca9ba1461058957806319550da4146105a757610496565b8063058961ad1461049b57806306fdde03146104a5578063095ea7b3146104c35780630a4cad6b146104f35780630bea593a14610511575b600080fd5b6104a3610ea1565b005b6104ad61157a565b6040516104ba91906152dc565b60405180910390f35b6104dd60048036038101906104d89190614bb7565b61160c565b6040516104ea91906152c1565b60405180910390f35b6104fb61162f565b60405161050891906150df565b60405180910390f35b61051961163e565b60405161052691906150df565b60405180910390f35b61053761164d565b604051610544919061553e565b60405180910390f35b610555611657565b604051610562919061553e565b60405180910390f35b610573611661565b60405161058091906150df565b60405180910390f35b610591611670565b60405161059e91906150df565b60405180910390f35b6105af61167f565b6040516105bc91906150df565b60405180910390f35b6105cd61168e565b6040516105da91906150df565b60405180910390f35b6105eb61169d565b005b61060760048036038101906106029190614b68565b611b36565b60405161061491906152c1565b60405180910390f35b610625611b65565b60405161063291906150df565b60405180910390f35b610643611b74565b604051610650919061553e565b60405180910390f35b610661611b7d565b60405161066e91906150df565b60405180910390f35b61067f611b8c565b60405161068c9190615559565b60405180910390f35b61069d611b95565b6040516106aa91906150df565b60405180910390f35b6106bb611b9b565b6040516106c891906150df565b60405180910390f35b6106d9611baa565b005b6106f560048036038101906106f09190614bb7565b611f54565b60405161070291906152c1565b60405180910390f35b610713611f8b565b604051610720919061553e565b60405180910390f35b610731611f91565b60405161073e919061553e565b60405180910390f35b610761600480360381019061075c9190614b03565b611f9b565b60405161076e919061553e565b60405180910390f35b61077f611fb3565b60405161078c91906150df565b60405180910390f35b61079d611fc2565b6040516107aa919061553e565b60405180910390f35b6107bb611fc8565b6040516107c891906152c1565b60405180910390f35b6107eb60048036038101906107e69190614b03565b611fdb565b6040516107f8919061553e565b60405180910390f35b610809611ff3565b60405161081691906150df565b60405180910390f35b610827612002565b005b6108316120b7565b60405161083e919061553e565b60405180910390f35b61084f6120bd565b60405161085c91906150df565b60405180910390f35b61087f600480360381019061087a9190614c5d565b6120cc565b60405161088c91906150df565b60405180910390f35b61089d61210b565b6040516108aa919061553e565b60405180910390f35b6108bb612111565b6040516108c8919061553e565b60405180910390f35b6108d9612117565b6040516108e691906150df565b60405180910390f35b6108f761211d565b60405161090491906150df565b60405180910390f35b61092760048036038101906109229190614b03565b61212c565b604051610934919061553e565b60405180910390f35b610945612174565b60405161095291906150df565b60405180910390f35b610963612183565b60405161097091906150df565b60405180910390f35b610981612189565b60405161098e91906150df565b60405180910390f35b6109b160048036038101906109ac9190614b03565b612198565b6040516109be91906152c1565b60405180910390f35b6109cf6121b8565b6040516109dc91906152dc565b60405180910390f35b6109ed61224a565b6040516109fa919061553e565b60405180910390f35b610a1d6004803603810190610a189190614c5d565b612250565b005b610a2761225a565b604051610a34919061553e565b60405180910390f35b610a45612260565b604051610a5291906150df565b60405180910390f35b610a756004803603810190610a709190614bb7565b61226f565b604051610a8291906152c1565b60405180910390f35b610a936122e6565b604051610aa091906150df565b60405180910390f35b610ac36004803603810190610abe9190614b03565b6122f5565b604051610ad0919061553e565b60405180910390f35b610af36004803603810190610aee9190614bb7565b61230c565b604051610b0091906152c1565b60405180910390f35b610b236004803603810190610b1e9190614b2c565b61232f565b604051610b30919061553e565b60405180910390f35b610b41612354565b604051610b4e91906150df565b60405180910390f35b610b5f61235a565b604051610b6c91906150df565b60405180910390f35b610b7d612369565b604051610b8a919061553e565b60405180910390f35b610b9b61236f565b604051610ba891906150df565b60405180910390f35b610bcb6004803603810190610bc69190614b03565b61237e565b604051610bd8919061553e565b60405180910390f35b610be9612396565b604051610bf6919061553e565b60405180910390f35b610c0761239c565b604051610c1491906150df565b60405180910390f35b610c256123ab565b604051610c32919061553e565b60405180910390f35b610c436123b1565b604051610c5091906150df565b60405180910390f35b610c616123c0565b604051610c6e919061553e565b60405180910390f35b610c7f6123c6565b604051610c8c91906150df565b60405180910390f35b610c9d6123cc565b005b610ca7612479565b604051610cb4919061553e565b60405180910390f35b610cd76004803603810190610cd29190614c5d565b61247f565b005b610ce1612534565b005b610ceb6130aa565b604051610cf891906150df565b60405180910390f35b610d096130b9565b604051610d1691906150df565b60405180910390f35b610d276130c8565b604051610d3491906150df565b60405180910390f35b610d456130ce565b005b610d616004803603810190610d5c9190614b2c565b61399b565b604051610d6e919061553e565b60405180910390f35b610d7f613a22565b604051610d8c91906150df565b60405180910390f35b610d9d613a31565b604051610daa919061553e565b60405180910390f35b610dbb613a37565b604051610dc8919061553e565b60405180910390f35b610dd9613a3d565b604051610de691906150df565b60405180910390f35b610df7613a43565b604051610e0491906150df565b60405180910390f35b610e276004803603810190610e229190614caf565b613a52565b005b610e31613e83565b604051610e3e919061553e565b60405180910390f35b610e4f613e89565b604051610e5c91906150df565b60405180910390f35b610e6d613e98565b604051610e7a91906150df565b60405180910390f35b610e8b613ebe565b604051610e9891906150df565b60405180910390f35b601d60006a010000000000000000000273ffffffffffffffffffffffffffffffffffffffff1673ffffffffffffffffffffffffffffffffffffffff16815260200190815260200160002060003373ffffffffffffffffffffffffffffffffffffffff1673ffffffffffffffffffffffffffffffffffffffff16815260200190815260200160002054602160003373ffffffffffffffffffffffffffffffffffffffff1673ffffffffffffffffffffffffffffffffffffffff168152602001908152602001600020541015611578576000602160003373ffffffffffffffffffffffffffffffffffffffff1673ffffffffffffffffffffffffffffffffffffffff16815260200190815260200160002054601d60006a010000000000000000000273ffffffffffffffffffffffffffffffffffffffff1673ffffffffffffffffffffffffffffffffffffffff16815260200190815260200160002060003373ffffffffffffffffffffffffffffffffffffffff1673ffffffffffffffffffffffffffffffffffffffff16815260200190815260200160002054611043919061571c565b90506000601e60003373ffffffffffffffffffffffffffffffffffffffff1673ffffffffffffffffffffffffffffffffffffffff168152602001908152602001600020546064836110949190615691565b61109e91906156c2565b9050600081836110ae919061571c565b905081601f60003373ffffffffffffffffffffffffffffffffffffffff1673ffffffffffffffffffffffffffffffffffffffff16815260200190815260200160002060008282546110ff919061563b565b9250508190555080602060003373ffffffffffffffffffffffffffffffffffffffff1673ffffffffffffffffffffffffffffffffffffffff16815260200190815260200160002081905550816019600082825461115c919061563b565b9250508190555080601a6000828254611175919061563b565b925050819055506000600b60009054906101000a900473ffffffffffffffffffffffffffffffffffffffff1673ffffffffffffffffffffffffffffffffffffffff166370a08231306040518263ffffffff1660e01b81526004016111d991906150df565b60206040518083038186803b1580156111f157600080fd5b505afa158015611205573d6000803e3d6000fd5b505050506040513d601f19601f820116820180604052508101906112299190614c86565b9050600760009054906101000a900473ffffffffffffffffffffffffffffffffffffffff1673ffffffffffffffffffffffffffffffffffffffff1663a0712d68856040518263ffffffff1660e01b8152600401611286919061553e565b602060405180830381600087803b1580156112a057600080fd5b505af11580156112b4573d6000803e3d6000fd5b505050506040513d601f19601f820116820180604052508101906112d89190614bf3565b611317576040517f08c379a000000000000000000000000000000000000000000000000000000000815260040161130e906152fe565b60405180910390fd5b6000600b60009054906101000a900473ffffffffffffffffffffffffffffffffffffffff1673ffffffffffffffffffffffffffffffffffffffff166370a08231306040518263ffffffff1660e01b815260040161137491906150df565b60206040518083038186803b15801561138c57600080fd5b505afa1580156113a0573d6000803e3d6000fd5b505050506040513d601f19601f820116820180604052508101906113c49190614c86565b9050600082826113d4919061571c565b905080601d60006a010000000000000000000373ffffffffffffffffffffffffffffffffffffffff1673ffffffffffffffffffffffffffffffffffffffff16815260200190815260200160002060003373ffffffffffffffffffffffffffffffffffffffff1673ffffffffffffffffffffffffffffffffffffffff168152602001908152602001600020600082825461146d919061563b565b925050819055508560116000828254611486919061563b565b92505081905550806012600082825461149f919061563b565b92505081905550601d60006a010000000000000000000273ffffffffffffffffffffffffffffffffffffffff1673ffffffffffffffffffffffffffffffffffffffff16815260200190815260200160002060003373ffffffffffffffffffffffffffffffffffffffff1673ffffffffffffffffffffffffffffffffffffffff16815260200190815260200160002054602160003373ffffffffffffffffffffffffffffffffffffffff1673ffffffffffffffffffffffffffffffffffffffff168152602001908152602001600020819055505050505050505b565b60606003805461158990615832565b80601f01602080910402602001604051908101604052809291908181526020018280546115b590615832565b80156116025780601f106115d757610100808354040283529160200191611602565b820191906000526020600020905b8154815290600101906020018083116115e557829003601f168201915b5050505050905090565b600080611617613ecd565b9050611624818585613ed5565b600191505092915050565b6a020000000002000000000181565b6a040000000000000000000d81565b6501d1a94a200081565b6000600254905090565b6a010000000000000000008181565b6a020000000014000000000181565b6a01000000000000000000ac81565b6a010000000000000000008381565b3073ffffffffffffffffffffffffffffffffffffffff163373ffffffffffffffffffffffffffffffffffffffff1614806117245750600f60009054906101000a900473ffffffffffffffffffffffffffffffffffffffff1673ffffffffffffffffffffffffffffffffffffffff163373ffffffffffffffffffffffffffffffffffffffff16145b611763576040517f08c379a000000000000000000000000000000000000000000000000000000000815260040161175a9061543e565b60405180910390fd5b600d60009054906101000a900460ff1615611b3457600760009054906101000a900473ffffffffffffffffffffffffffffffffffffffff1673ffffffffffffffffffffffffffffffffffffffff1663e6aa216c6040518163ffffffff1660e01b815260040160206040518083038186803b1580156117e057600080fd5b505afa1580156117f4573d6000803e3d6000fd5b505050506040513d601f19601f820116820180604052508101906118189190614c86565b6017819055506017546b204fce5e3e250261100000006118389190615691565b600e81905550600e546402540be4006011546118549190615691565b61185e91906156c2565b60188190555060125460185410156119d657601854601254611880919061571c565b601381905550601854601281905550600660009054906101000a900473ffffffffffffffffffffffffffffffffffffffff1673ffffffffffffffffffffffffffffffffffffffff1663168d560d306000620f424061138860026040516024016040516020818303038152906040527fdb7a3ea3000000000000000000000000000000000000000000000000000000007bffffffffffffffffffffffffffffffffffffffffffffffffffffffff19166020820180517bffffffffffffffffffffffffffffffffffffffffffffffffffffffff83818316178352505050506040518763ffffffff1660e01b815260040161197d9695949392919061515a565b600060405180830381600087803b15801561199757600080fd5b505af11580156119ab573d6000803e3d6000fd5b505050506040513d6000823e3d601f19601f820116820180604052508101906119d49190614c1c565b505b600660009054906101000a900473ffffffffffffffffffffffffffffffffffffffff1673ffffffffffffffffffffffffffffffffffffffff1663168d560d306000620f4240611388600c546040516024016040516020818303038152906040527f1fa1f9e8000000000000000000000000000000000000000000000000000000007bffffffffffffffffffffffffffffffffffffffffffffffffffffffff19166020820180517bffffffffffffffffffffffffffffffffffffffffffffffffffffffff83818316178352505050506040518763ffffffff1660e01b8152600401611ac5969594939291906151c2565b600060405180830381600087803b158015611adf57600080fd5b505af1158015611af3573d6000803e3d6000fd5b505050506040513d6000823e3d601f19601f82011682018060405250810190611b1c9190614c1c565b50601060008154611b2c90615895565b919050819055505b565b600080611b41613ecd565b9050611b4e8582856140a0565b611b5985858561412c565b60019150509392505050565b6a030000000000000000000081565b64e8d4a5100081565b6a010000000000000000000181565b60006012905090565b61080581565b6a010000000000000000000281565b6000601d60006a010000000000000000000173ffffffffffffffffffffffffffffffffffffffff1673ffffffffffffffffffffffffffffffffffffffff16815260200190815260200160002060003373ffffffffffffffffffffffffffffffffffffffff1673ffffffffffffffffffffffffffffffffffffffff1681526020019081526020016000205490506000811115611d7d576000601d60006a010000000000000000000173ffffffffffffffffffffffffffffffffffffffff1673ffffffffffffffffffffffffffffffffffffffff16815260200190815260200160002060003373ffffffffffffffffffffffffffffffffffffffff1673ffffffffffffffffffffffffffffffffffffffff16815260200190815260200160002081905550600960009054906101000a900473ffffffffffffffffffffffffffffffffffffffff1673ffffffffffffffffffffffffffffffffffffffff1663a9059cbb33836040518363ffffffff1660e01b8152600401611d2992919061522a565b602060405180830381600087803b158015611d4357600080fd5b505af1158015611d57573d6000803e3d6000fd5b505050506040513d601f19601f82011682018060405250810190611d7b9190614bf3565b505b6000601d60006a010000000000000000000073ffffffffffffffffffffffffffffffffffffffff1673ffffffffffffffffffffffffffffffffffffffff16815260200190815260200160002060003373ffffffffffffffffffffffffffffffffffffffff1673ffffffffffffffffffffffffffffffffffffffff1681526020019081526020016000205490506000811115611f50576000601d60006a010000000000000000000073ffffffffffffffffffffffffffffffffffffffff1673ffffffffffffffffffffffffffffffffffffffff16815260200190815260200160002060003373ffffffffffffffffffffffffffffffffffffffff1673ffffffffffffffffffffffffffffffffffffffff16815260200190815260200160002081905550600a60009054906101000a900473ffffffffffffffffffffffffffffffffffffffff1673ffffffffffffffffffffffffffffffffffffffff1663a9059cbb33836040518363ffffffff1660e01b8152600401611efc92919061522a565b602060405180830381600087803b158015611f1657600080fd5b505af1158015611f2a573d6000803e3d6000fd5b505050506040513d601f19601f82011682018060405250810190611f4e9190614bf3565b505b5050565b600080611f5f613ecd565b9050611f80818585611f71858961399b565b611f7b919061563b565b613ed5565b600191505092915050565b60135481565b6502ba7def300081565b601e6020528060005260406000206000915090505481565b6a030000000000000000000081565b60165481565b600d60009054906101000a900460ff1681565b601f6020528060005260406000206000915090505481565b6a020000000082000000008181565b600f60009054906101000a900473ffffffffffffffffffffffffffffffffffffffff1673ffffffffffffffffffffffffffffffffffffffff163373ffffffffffffffffffffffffffffffffffffffff1614612092576040517f08c379a0000000000000000000000000000000000000000000000000000000008152600401612089906153fe565b60405180910390fd5b6001600d60006101000a81548160ff0219169083151502179055506120b561169d565b565b60145481565b6a010000000000000000000381565b601b81815481106120dc57600080fd5b906000526020600020016000915054906101000a900473ffffffffffffffffffffffffffffffffffffffff1681565b601a5481565b60155481565b61080681565b6a01000000000000000000aa81565b60008060008373ffffffffffffffffffffffffffffffffffffffff1673ffffffffffffffffffffffffffffffffffffffff168152602001908152602001600020549050919050565b6a010000000000000000008481565b61080381565b6a020000000080000000008181565b601c6020528060005260406000206000915054906101000a900460ff1681565b6060600480546121c790615832565b80601f01602080910402602001604051908101604052809291908181526020018280546121f390615832565b80156122405780601f1061221557610100808354040283529160200191612240565b820191906000526020600020905b81548152906001019060200180831161222357829003601f168201915b5050505050905090565b600e5481565b80600c8190555050565b60125481565b6a010000000000000000000081565b60008061227a613ecd565b90506000612288828661399b565b9050838110156122cd576040517f08c379a00000000000000000000000000000000000000000000000000000000081526004016122c4906154fe565b60405180910390fd5b6122da8286868403613ed5565b60019250505092915050565b6a020000000000000000000181565b602080528060005260406000206000915090505481565b600080612317613ecd565b905061232481858561412c565b600191505092915050565b601d602052816000526040600020602052806000526040600020600091509150505481565b61080281565b6a010000000000000000008081565b60235481565b6a020000000083000000008181565b60216020528060005260406000206000915090505481565b60185481565b6a010000000000000000008281565b60175481565b6a010000000000000000001581565b60195481565b61080781565b600f60009054906101000a900473ffffffffffffffffffffffffffffffffffffffff1673ffffffffffffffffffffffffffffffffffffffff163373ffffffffffffffffffffffffffffffffffffffff161461245c576040517f08c379a0000000000000000000000000000000000000000000000000000000008152600401612453906153fe565b60405180910390fd5b6000600d60006101000a81548160ff021916908315150217905550565b60225481565b600a60009054906101000a900473ffffffffffffffffffffffffffffffffffffffff1673ffffffffffffffffffffffffffffffffffffffff166323b872dd3330846040518463ffffffff1660e01b81526004016124de93929190615123565b602060405180830381600087803b1580156124f857600080fd5b505af115801561250c573d6000803e3d6000fd5b505050506040513d601f19601f820116820180604052508101906125309190614bf3565b5050565b6000601d60003073ffffffffffffffffffffffffffffffffffffffff1673ffffffffffffffffffffffffffffffffffffffff16815260200190815260200160002060003373ffffffffffffffffffffffffffffffffffffffff1673ffffffffffffffffffffffffffffffffffffffff168152602001908152602001600020549050600081116125f8576040517f08c379a00000000000000000000000000000000000000000000000000000000081526004016125ef906153be565b60405180910390fd5b6000601d60003073ffffffffffffffffffffffffffffffffffffffff1673ffffffffffffffffffffffffffffffffffffffff16815260200190815260200160002060003373ffffffffffffffffffffffffffffffffffffffff1673ffffffffffffffffffffffffffffffffffffffff1681526020019081526020016000208190555061268433826143ad565b6000601d60006a010000000000000000000273ffffffffffffffffffffffffffffffffffffffff1673ffffffffffffffffffffffffffffffffffffffff16815260200190815260200160002060003373ffffffffffffffffffffffffffffffffffffffff1673ffffffffffffffffffffffffffffffffffffffff168152602001908152602001600020819055508060116000828254612723919061571c565b925050819055506000601d60006a010000000000000000000373ffffffffffffffffffffffffffffffffffffffff1673ffffffffffffffffffffffffffffffffffffffff16815260200190815260200160002060003373ffffffffffffffffffffffffffffffffffffffff1673ffffffffffffffffffffffffffffffffffffffff1681526020019081526020016000205490506000601d60006a010000000000000000000373ffffffffffffffffffffffffffffffffffffffff1673ffffffffffffffffffffffffffffffffffffffff16815260200190815260200160002060003373ffffffffffffffffffffffffffffffffffffffff1673ffffffffffffffffffffffffffffffffffffffff168152602001908152602001600020819055508060126000828254612855919061571c565b92505081905550601f60003373ffffffffffffffffffffffffffffffffffffffff1673ffffffffffffffffffffffffffffffffffffffff16815260200190815260200160002054601960008282546128ad919061571c565b92505081905550602060003373ffffffffffffffffffffffffffffffffffffffff1673ffffffffffffffffffffffffffffffffffffffff16815260200190815260200160002054601a6000828254612905919061571c565b925050819055506000601f60003373ffffffffffffffffffffffffffffffffffffffff1673ffffffffffffffffffffffffffffffffffffffff168152602001908152602001600020819055506000602060003373ffffffffffffffffffffffffffffffffffffffff1673ffffffffffffffffffffffffffffffffffffffff168152602001908152602001600020819055506000602160003373ffffffffffffffffffffffffffffffffffffffff1673ffffffffffffffffffffffffffffffffffffffff168152602001908152602001600020819055506000600367ffffffffffffffff811115612a1e577f4e487b7100000000000000000000000000000000000000000000000000000000600052604160045260246000fd5b604051908082528060200260200182016040528015612a4c5781602001602082028036833780820191505090505b5090506a010000000000000000000381600081518110612a95577f4e487b7100000000000000000000000000000000000000000000000000000000600052603260045260246000fd5b602002602001019073ffffffffffffffffffffffffffffffffffffffff16908173ffffffffffffffffffffffffffffffffffffffff16815250506a010000000000000000000181600181518110612b15577f4e487b7100000000000000000000000000000000000000000000000000000000600052603260045260246000fd5b602002602001019073ffffffffffffffffffffffffffffffffffffffff16908173ffffffffffffffffffffffffffffffffffffffff16815250506a010000000000000000000281600281518110612b95577f4e487b7100000000000000000000000000000000000000000000000000000000600052603260045260246000fd5b602002602001019073ffffffffffffffffffffffffffffffffffffffff16908173ffffffffffffffffffffffffffffffffffffffff16815250506000600560009054906101000a900473ffffffffffffffffffffffffffffffffffffffff1673ffffffffffffffffffffffffffffffffffffffff16634d60beb183856040518363ffffffff1660e01b8152600401612c2e929190615253565b60206040518083038186803b158015612c4657600080fd5b505afa158015612c5a573d6000803e3d6000fd5b505050506040513d601f19601f82011682018060405250810190612c7e9190614c86565b9050600560009054906101000a900473ffffffffffffffffffffffffffffffffffffffff1673ffffffffffffffffffffffffffffffffffffffff16636fc4b4e5838560016040518463ffffffff1660e01b8152600401612ce093929190615283565b602060405180830381600087803b158015612cfa57600080fd5b505af1158015612d0e573d6000803e3d6000fd5b505050506040513d601f19601f82011682018060405250810190612d329190614bf3565b612d71576040517f08c379a0000000000000000000000000000000000000000000000000000000008152600401612d68906154be565b60405180910390fd5b600860009054906101000a900473ffffffffffffffffffffffffffffffffffffffff1673ffffffffffffffffffffffffffffffffffffffff1663a9059cbb33836040518363ffffffff1660e01b8152600401612dce92919061522a565b602060405180830381600087803b158015612de857600080fd5b505af1158015612dfc573d6000803e3d6000fd5b505050506040513d601f19601f82011682018060405250810190612e209190614bf3565b506000601c60003373ffffffffffffffffffffffffffffffffffffffff1673ffffffffffffffffffffffffffffffffffffffff16815260200190815260200160002060006101000a81548160ff02191690831515021790555060006001601b80549050612e8d919061571c565b905060005b8181116130a257601b8181548110612ed3577f4e487b7100000000000000000000000000000000000000000000000000000000600052603260045260246000fd5b9060005260206000200160009054906101000a900473ffffffffffffffffffffffffffffffffffffffff1673ffffffffffffffffffffffffffffffffffffffff163373ffffffffffffffffffffffffffffffffffffffff16141561308f578181101561302157601b8281548110612f73577f4e487b7100000000000000000000000000000000000000000000000000000000600052603260045260246000fd5b9060005260206000200160009054906101000a900473ffffffffffffffffffffffffffffffffffffffff16601b8281548110612fd8577f4e487b7100000000000000000000000000000000000000000000000000000000600052603260045260246000fd5b9060005260206000200160006101000a81548173ffffffffffffffffffffffffffffffffffffffff021916908373ffffffffffffffffffffffffffffffffffffffff1602179055505b601b805480613059577f4e487b7100000000000000000000000000000000000000000000000000000000600052603160045260246000fd5b6001900381819060005260206000200160006101000a81549073ffffffffffffffffffffffffffffffffffffffff021916905590555b808061309a90615895565b915050612e92565b505050505050565b6a01000000000000000000ab81565b6a010000000000000000001481565b61080081565b6000600960009054906101000a900473ffffffffffffffffffffffffffffffffffffffff1673ffffffffffffffffffffffffffffffffffffffff166370a08231306040518263ffffffff1660e01b815260040161312b91906150df565b60206040518083038186803b15801561314357600080fd5b505afa158015613157573d6000803e3d6000fd5b505050506040513d601f19601f8201168201806040525081019061317b9190614c86565b90506000600a60009054906101000a900473ffffffffffffffffffffffffffffffffffffffff1673ffffffffffffffffffffffffffffffffffffffff166370a08231306040518263ffffffff1660e01b81526004016131da91906150df565b60206040518083038186803b1580156131f257600080fd5b505afa158015613206573d6000803e3d6000fd5b505050506040513d601f19601f8201168201806040525081019061322a9190614c86565b9050600060158190555060006016819055506104d26010819055506000600267ffffffffffffffff811115613288577f4e487b7100000000000000000000000000000000000000000000000000000000600052604160045260246000fd5b6040519080825280602002602001820160405280156132b65781602001602082028036833780820191505090505b5090506a0100000000000000000003816000815181106132ff577f4e487b7100000000000000000000000000000000000000000000000000000000600052603260045260246000fd5b602002602001019073ffffffffffffffffffffffffffffffffffffffff16908173ffffffffffffffffffffffffffffffffffffffff16815250506a01000000000000000000018160018151811061337f577f4e487b7100000000000000000000000000000000000000000000000000000000600052603260045260246000fd5b602002602001019073ffffffffffffffffffffffffffffffffffffffff16908173ffffffffffffffffffffffffffffffffffffffff1681525050600560009054906101000a900473ffffffffffffffffffffffffffffffffffffffff1673ffffffffffffffffffffffffffffffffffffffff16636fc4b4e58260135460016040518463ffffffff1660e01b815260040161341b93929190615283565b602060405180830381600087803b15801561343557600080fd5b505af1158015613449573d6000803e3d6000fd5b505050506040513d601f19601f8201168201806040525081019061346d9190614bf3565b6134ac576040517f08c379a00000000000000000000000000000000000000000000000000000000081526004016134a39061535e565b60405180910390fd5b6000601a5411156138cc5782600960009054906101000a900473ffffffffffffffffffffffffffffffffffffffff1673ffffffffffffffffffffffffffffffffffffffff166370a08231306040518263ffffffff1660e01b815260040161351391906150df565b60206040518083038186803b15801561352b57600080fd5b505afa15801561353f573d6000803e3d6000fd5b505050506040513d601f19601f820116820180604052508101906135639190614c86565b61356d919061571c565b60158190555061357b611657565b601554601a5461358b91906156c2565b6135959190615691565b601481905550600060145411156138cb576000600267ffffffffffffffff8111156135e9577f4e487b7100000000000000000000000000000000000000000000000000000000600052604160045260246000fd5b6040519080825280602002602001820160405280156136175781602001602082028036833780820191505090505b5090506a010000000000000000000181600081518110613660577f4e487b7100000000000000000000000000000000000000000000000000000000600052603260045260246000fd5b602002602001019073ffffffffffffffffffffffffffffffffffffffff16908173ffffffffffffffffffffffffffffffffffffffff16815250506a0100000000000000000000816001815181106136e0577f4e487b7100000000000000000000000000000000000000000000000000000000600052603260045260246000fd5b602002602001019073ffffffffffffffffffffffffffffffffffffffff16908173ffffffffffffffffffffffffffffffffffffffff1681525050600560009054906101000a900473ffffffffffffffffffffffffffffffffffffffff1673ffffffffffffffffffffffffffffffffffffffff16636fc4b4e58260145460016040518463ffffffff1660e01b815260040161377c93929190615283565b602060405180830381600087803b15801561379657600080fd5b505af11580156137aa573d6000803e3d6000fd5b505050506040513d601f19601f820116820180604052508101906137ce9190614bf3565b61380d576040517f08c379a00000000000000000000000000000000000000000000000000000000081526004016138049061541e565b60405180910390fd5b82600a60009054906101000a900473ffffffffffffffffffffffffffffffffffffffff1673ffffffffffffffffffffffffffffffffffffffff166370a08231306040518263ffffffff1660e01b815260040161386991906150df565b60206040518083038186803b15801561388157600080fd5b505afa158015613895573d6000803e3d6000fd5b505050506040513d601f19601f820116820180604052508101906138b99190614c86565b6138c3919061571c565b601681905550505b5b82600960009054906101000a900473ffffffffffffffffffffffffffffffffffffffff1673ffffffffffffffffffffffffffffffffffffffff166370a08231306040518263ffffffff1660e01b815260040161392891906150df565b60206040518083038186803b15801561394057600080fd5b505afa158015613954573d6000803e3d6000fd5b505050506040513d601f19601f820116820180604052508101906139789190614c86565b613982919061571c565b601581905550613996601554601654614584565b505050565b6000600160008473ffffffffffffffffffffffffffffffffffffffff1673ffffffffffffffffffffffffffffffffffffffff16815260200190815260200160002060008373ffffffffffffffffffffffffffffffffffffffff1673ffffffffffffffffffffffffffffffffffffffff16815260200190815260200160002054905092915050565b6a020000000003000000000181565b600c5481565b60115481565b61080181565b6a01000000000000000000a881565b600860009054906101000a900473ffffffffffffffffffffffffffffffffffffffff1673ffffffffffffffffffffffffffffffffffffffff1663dd62ed3e33306040518363ffffffff1660e01b8152600401613aaf9291906150fa565b60206040518083038186803b158015613ac757600080fd5b505afa158015613adb573d6000803e3d6000fd5b505050506040513d601f19601f82011682018060405250810190613aff9190614c86565b821115613b41576040517f08c379a0000000000000000000000000000000000000000000000000000000008152600401613b38906154de565b60405180910390fd5b601c60003373ffffffffffffffffffffffffffffffffffffffff1673ffffffffffffffffffffffffffffffffffffffff16815260200190815260200160002060009054906101000a900460ff16613c92576001601c60003373ffffffffffffffffffffffffffffffffffffffff1673ffffffffffffffffffffffffffffffffffffffff16815260200190815260200160002060006101000a81548160ff021916908315150217905550601b339080600181540180825580915050600190039060005260206000200160009091909190916101000a81548173ffffffffffffffffffffffffffffffffffffffff021916908373ffffffffffffffffffffffffffffffffffffffff16021790555080601e60003373ffffffffffffffffffffffffffffffffffffffff1673ffffffffffffffffffffffffffffffffffffffff168152602001908152602001600020819055505b600860009054906101000a900473ffffffffffffffffffffffffffffffffffffffff1673ffffffffffffffffffffffffffffffffffffffff166323b872dd3330856040518463ffffffff1660e01b8152600401613cf193929190615123565b602060405180830381600087803b158015613d0b57600080fd5b505af1158015613d1f573d6000803e3d6000fd5b505050506040513d601f19601f82011682018060405250810190613d439190614bf3565b5081601d60006a010000000000000000000273ffffffffffffffffffffffffffffffffffffffff1673ffffffffffffffffffffffffffffffffffffffff16815260200190815260200160002060003373ffffffffffffffffffffffffffffffffffffffff1673ffffffffffffffffffffffffffffffffffffffff1681526020019081526020016000206000828254613ddb919061563b565b92505081905550613dec33836148dd565b81601d60003073ffffffffffffffffffffffffffffffffffffffff1673ffffffffffffffffffffffffffffffffffffffff16815260200190815260200160002060003373ffffffffffffffffffffffffffffffffffffffff1673ffffffffffffffffffffffffffffffffffffffff1681526020019081526020016000206000828254613e78919061563b565b925050819055505050565b60105481565b6a030000000000000000000181565b600f60009054906101000a900473ffffffffffffffffffffffffffffffffffffffff1681565b6a01000000000000000000a981565b600033905090565b600073ffffffffffffffffffffffffffffffffffffffff168373ffffffffffffffffffffffffffffffffffffffff161415613f45576040517f08c379a0000000000000000000000000000000000000000000000000000000008152600401613f3c9061549e565b60405180910390fd5b600073ffffffffffffffffffffffffffffffffffffffff168273ffffffffffffffffffffffffffffffffffffffff161415613fb5576040517f08c379a0000000000000000000000000000000000000000000000000000000008152600401613fac9061537e565b60405180910390fd5b80600160008573ffffffffffffffffffffffffffffffffffffffff1673ffffffffffffffffffffffffffffffffffffffff16815260200190815260200160002060008473ffffffffffffffffffffffffffffffffffffffff1673ffffffffffffffffffffffffffffffffffffffff168152602001908152602001600020819055508173ffffffffffffffffffffffffffffffffffffffff168373ffffffffffffffffffffffffffffffffffffffff167f8c5be1e5ebec7d5bd14f71427d1e84f3dd0314c0f7b2291e5b200ac8c7c3b92583604051614093919061553e565b60405180910390a3505050565b60006140ac848461399b565b90507fffffffffffffffffffffffffffffffffffffffffffffffffffffffffffffffff81146141265781811015614118576040517f08c379a000000000000000000000000000000000000000000000000000000000815260040161410f9061539e565b60405180910390fd5b6141258484848403613ed5565b5b50505050565b600073ffffffffffffffffffffffffffffffffffffffff168373ffffffffffffffffffffffffffffffffffffffff16141561419c576040517f08c379a00000000000000000000000000000000000000000000000000000000081526004016141939061547e565b60405180910390fd5b600073ffffffffffffffffffffffffffffffffffffffff168273ffffffffffffffffffffffffffffffffffffffff16141561420c576040517f08c379a00000000000000000000000000000000000000000000000000000000081526004016142039061531e565b60405180910390fd5b614217838383614a3d565b60008060008573ffffffffffffffffffffffffffffffffffffffff1673ffffffffffffffffffffffffffffffffffffffff1681526020019081526020016000205490508181101561429d576040517f08c379a0000000000000000000000000000000000000000000000000000000008152600401614294906153de565b60405180910390fd5b8181036000808673ffffffffffffffffffffffffffffffffffffffff1673ffffffffffffffffffffffffffffffffffffffff16815260200190815260200160002081905550816000808573ffffffffffffffffffffffffffffffffffffffff1673ffffffffffffffffffffffffffffffffffffffff1681526020019081526020016000206000828254614330919061563b565b925050819055508273ffffffffffffffffffffffffffffffffffffffff168473ffffffffffffffffffffffffffffffffffffffff167fddf252ad1be2c89b69c2b068fc378daa952ba7f163c4a11628f55a4df523b3ef84604051614394919061553e565b60405180910390a36143a7848484614a42565b50505050565b600073ffffffffffffffffffffffffffffffffffffffff168273ffffffffffffffffffffffffffffffffffffffff16141561441d576040517f08c379a00000000000000000000000000000000000000000000000000000000081526004016144149061545e565b60405180910390fd5b61442982600083614a3d565b60008060008473ffffffffffffffffffffffffffffffffffffffff1673ffffffffffffffffffffffffffffffffffffffff168152602001908152602001600020549050818110156144af576040517f08c379a00000000000000000000000000000000000000000000000000000000081526004016144a69061533e565b60405180910390fd5b8181036000808573ffffffffffffffffffffffffffffffffffffffff1673ffffffffffffffffffffffffffffffffffffffff168152602001908152602001600020819055508160026000828254614506919061571c565b92505081905550600073ffffffffffffffffffffffffffffffffffffffff168373ffffffffffffffffffffffffffffffffffffffff167fddf252ad1be2c89b69c2b068fc378daa952ba7f163c4a11628f55a4df523b3ef8460405161456b919061553e565b60405180910390a361457f83600084614a42565b505050565b60005b6001601b80549050614599919061571c565b81116148d8576000601b82815481106145db577f4e487b7100000000000000000000000000000000000000000000000000000000600052603260045260246000fd5b9060005260206000200160009054906101000a900473ffffffffffffffffffffffffffffffffffffffff169050600060195411801561465957506000601f60008373ffffffffffffffffffffffffffffffffffffffff1673ffffffffffffffffffffffffffffffffffffffff16815260200190815260200160002054115b80156146655750600084115b1561476657600084601954601f60008573ffffffffffffffffffffffffffffffffffffffff1673ffffffffffffffffffffffffffffffffffffffff168152602001908152602001600020546146ba9190615691565b6146c491906156c2565b905080601d60006a010000000000000000000173ffffffffffffffffffffffffffffffffffffffff1673ffffffffffffffffffffffffffffffffffffffff16815260200190815260200160002060008473ffffffffffffffffffffffffffffffffffffffff1673ffffffffffffffffffffffffffffffffffffffff168152602001908152602001600020600082825461475d919061563b565b92505081905550505b6000601a541180156147b757506000602060008373ffffffffffffffffffffffffffffffffffffffff1673ffffffffffffffffffffffffffffffffffffffff16815260200190815260200160002054115b80156147c35750600083115b156148c457600083601a54602060008573ffffffffffffffffffffffffffffffffffffffff1673ffffffffffffffffffffffffffffffffffffffff168152602001908152602001600020546148189190615691565b61482291906156c2565b905080601d60006a010000000000000000000073ffffffffffffffffffffffffffffffffffffffff1673ffffffffffffffffffffffffffffffffffffffff16815260200190815260200160002060008473ffffffffffffffffffffffffffffffffffffffff1673ffffffffffffffffffffffffffffffffffffffff16815260200190815260200160002060008282546148bb919061563b565b92505081905550505b5080806148d090615895565b915050614587565b505050565b600073ffffffffffffffffffffffffffffffffffffffff168273ffffffffffffffffffffffffffffffffffffffff16141561494d576040517f08c379a00000000000000000000000000000000000000000000000000000000081526004016149449061551e565b60405180910390fd5b61495960008383614a3d565b806002600082825461496b919061563b565b92505081905550806000808473ffffffffffffffffffffffffffffffffffffffff1673ffffffffffffffffffffffffffffffffffffffff16815260200190815260200160002060008282546149c0919061563b565b925050819055508173ffffffffffffffffffffffffffffffffffffffff16600073ffffffffffffffffffffffffffffffffffffffff167fddf252ad1be2c89b69c2b068fc378daa952ba7f163c4a11628f55a4df523b3ef83604051614a25919061553e565b60405180910390a3614a3960008383614a42565b5050565b505050565b505050565b6000614a5a614a5584615599565b615574565b905082815260208101848484011115614a7257600080fd5b614a7d8482856157ff565b509392505050565b600081359050614a9481615e09565b92915050565b600081519050614aa981615e20565b92915050565b600082601f830112614ac057600080fd5b8151614ad0848260208601614a47565b91505092915050565b600081359050614ae881615e37565b92915050565b600081519050614afd81615e37565b92915050565b600060208284031215614b1557600080fd5b6000614b2384828501614a85565b91505092915050565b60008060408385031215614b3f57600080fd5b6000614b4d85828601614a85565b9250506020614b5e85828601614a85565b9150509250929050565b600080600060608486031215614b7d57600080fd5b6000614b8b86828701614a85565b9350506020614b9c86828701614a85565b9250506040614bad86828701614ad9565b9150509250925092565b60008060408385031215614bca57600080fd5b6000614bd885828601614a85565b9250506020614be985828601614ad9565b9150509250929050565b600060208284031215614c0557600080fd5b6000614c1384828501614a9a565b91505092915050565b600060208284031215614c2e57600080fd5b600082015167ffffffffffffffff811115614c4857600080fd5b614c5484828501614aaf565b91505092915050565b600060208284031215614c6f57600080fd5b6000614c7d84828501614ad9565b91505092915050565b600060208284031215614c9857600080fd5b6000614ca684828501614aee565b91505092915050565b60008060408385031215614cc257600080fd5b6000614cd085828601614ad9565b9250506020614ce185828601614ad9565b9150509250929050565b6000614cf78383614d03565b60208301905092915050565b614d0c81615750565b82525050565b614d1b81615750565b82525050565b6000614d2c826155da565b614d368185615608565b9350614d41836155ca565b8060005b83811015614d72578151614d598882614ceb565b9750614d64836155fb565b925050600181019050614d45565b5085935050505092915050565b614d8881615762565b82525050565b6000614d99826155e5565b614da38185615619565b9350614db38185602086016157ff565b614dbc8161599a565b840191505092915050565b614dd0816157a5565b82525050565b614ddf816157b7565b82525050565b614dee816157c9565b82525050565b614dfd816157db565b82525050565b614e0c816157ed565b82525050565b6000614e1d826155f0565b614e27818561562a565b9350614e378185602086016157ff565b614e408161599a565b840191505092915050565b6000614e58600f8361562a565b9150614e63826159ab565b602082019050919050565b6000614e7b60238361562a565b9150614e86826159d4565b604082019050919050565b6000614e9e60228361562a565b9150614ea982615a23565b604082019050919050565b6000614ec1601d8361562a565b9150614ecc82615a72565b602082019050919050565b6000614ee460228361562a565b9150614eef82615a9b565b604082019050919050565b6000614f07601d8361562a565b9150614f1282615aea565b602082019050919050565b6000614f2a60258361562a565b9150614f3582615b13565b604082019050919050565b6000614f4d60268361562a565b9150614f5882615b62565b604082019050919050565b6000614f7060158361562a565b9150614f7b82615bb1565b602082019050919050565b6000614f93601c8361562a565b9150614f9e82615bda565b602082019050919050565b6000614fb660208361562a565b9150614fc182615c03565b602082019050919050565b6000614fd960218361562a565b9150614fe482615c2c565b604082019050919050565b6000614ffc60258361562a565b915061500782615c7b565b604082019050919050565b600061501f60248361562a565b915061502a82615cca565b604082019050919050565b6000615042601c8361562a565b915061504d82615d19565b602082019050919050565b600061506560228361562a565b915061507082615d42565b604082019050919050565b600061508860258361562a565b915061509382615d91565b604082019050919050565b60006150ab601f8361562a565b91506150b682615de0565b602082019050919050565b6150ca8161578e565b82525050565b6150d981615798565b82525050565b60006020820190506150f46000830184614d12565b92915050565b600060408201905061510f6000830185614d12565b61511c6020830184614d12565b9392505050565b60006060820190506151386000830186614d12565b6151456020830185614d12565b61515260408301846150c1565b949350505050565b600060c08201905061516f6000830189614d12565b61517c6020830188614dc7565b6151896040830187614dd6565b6151966060830186614e03565b6151a36080830185614df4565b81810360a08301526151b58184614d8e565b9050979650505050505050565b600060c0820190506151d76000830189614d12565b6151e46020830188614dc7565b6151f16040830187614dd6565b6151fe6060830186614e03565b61520b60808301856150c1565b81810360a083015261521d8184614d8e565b9050979650505050505050565b600060408201905061523f6000830185614d12565b61524c60208301846150c1565b9392505050565b6000604082019050818103600083015261526d8185614d21565b905061527c60208301846150c1565b9392505050565b6000606082019050818103600083015261529d8186614d21565b90506152ac60208301856150c1565b6152b96040830184614de5565b949350505050565b60006020820190506152d66000830184614d7f565b92915050565b600060208201905081810360008301526152f68184614e12565b905092915050565b6000602082019050818103600083015261531781614e4b565b9050919050565b6000602082019050818103600083015261533781614e6e565b9050919050565b6000602082019050818103600083015261535781614e91565b9050919050565b6000602082019050818103600083015261537781614eb4565b9050919050565b6000602082019050818103600083015261539781614ed7565b9050919050565b600060208201905081810360008301526153b781614efa565b9050919050565b600060208201905081810360008301526153d781614f1d565b9050919050565b600060208201905081810360008301526153f781614f40565b9050919050565b6000602082019050818103600083015261541781614f63565b9050919050565b6000602082019050818103600083015261543781614f86565b9050919050565b6000602082019050818103600083015261545781614fa9565b9050919050565b6000602082019050818103600083015261547781614fcc565b9050919050565b6000602082019050818103600083015261549781614fef565b9050919050565b600060208201905081810360008301526154b781615012565b9050919050565b600060208201905081810360008301526154d781615035565b9050919050565b600060208201905081810360008301526154f781615058565b9050919050565b600060208201905081810360008301526155178161507b565b9050919050565b600060208201905081810360008301526155378161509e565b9050919050565b600060208201905061555360008301846150c1565b92915050565b600060208201905061556e60008301846150d0565b92915050565b600061557e61558f565b905061558a8282615864565b919050565b6000604051905090565b600067ffffffffffffffff8211156155b4576155b361596b565b5b6155bd8261599a565b9050602081019050919050565b6000819050602082019050919050565b600081519050919050565b600081519050919050565b600081519050919050565b6000602082019050919050565b600082825260208201905092915050565b600082825260208201905092915050565b600082825260208201905092915050565b60006156468261578e565b91506156518361578e565b9250827fffffffffffffffffffffffffffffffffffffffffffffffffffffffffffffffff03821115615686576156856158de565b5b828201905092915050565b600061569c8261578e565b91506156a78361578e565b9250826156b7576156b661590d565b5b828204905092915050565b60006156cd8261578e565b91506156d88361578e565b9250817fffffffffffffffffffffffffffffffffffffffffffffffffffffffffffffffff0483118215151615615711576157106158de565b5b828202905092915050565b60006157278261578e565b91506157328361578e565b925082821015615745576157446158de565b5b828203905092915050565b600061575b8261576e565b9050919050565b60008115159050919050565b600073ffffffffffffffffffffffffffffffffffffffff82169050919050565b6000819050919050565b600060ff82169050919050565b60006157b08261578e565b9050919050565b60006157c28261578e565b9050919050565b60006157d48261578e565b9050919050565b60006157e68261578e565b9050919050565b60006157f88261578e565b9050919050565b60005b8381101561581d578082015181840152602081019050615802565b8381111561582c576000848401525b50505050565b6000600282049050600182168061584a57607f821691505b6020821081141561585e5761585d61593c565b5b50919050565b61586d8261599a565b810181811067ffffffffffffffff8211171561588c5761588b61596b565b5b80604052505050565b60006158a08261578e565b91507fffffffffffffffffffffffffffffffffffffffffffffffffffffffffffffffff8214156158d3576158d26158de565b5b600182019050919050565b7f4e487b7100000000000000000000000000000000000000000000000000000000600052601160045260246000fd5b7f4e487b7100000000000000000000000000000000000000000000000000000000600052601260045260246000fd5b7f4e487b7100000000000000000000000000000000000000000000000000000000600052602260045260246000fd5b7f4e487b7100000000000000000000000000000000000000000000000000000000600052604160045260246000fd5b6000601f19601f8301169050919050565b7f486f6d61204d696e74204572726f720000000000000000000000000000000000600082015250565b7f45524332303a207472616e7366657220746f20746865207a65726f206164647260008201527f6573730000000000000000000000000000000000000000000000000000000000602082015250565b7f45524332303a206275726e20616d6f756e7420657863656564732062616c616e60008201527f6365000000000000000000000000000000000000000000000000000000000000602082015250565b7f5377617070696e67204c444f5420666f722041555344206661696c6564000000600082015250565b7f45524332303a20617070726f766520746f20746865207a65726f20616464726560008201527f7373000000000000000000000000000000000000000000000000000000000000602082015250565b7f45524332303a20696e73756666696369656e7420616c6c6f77616e6365000000600082015250565b7f6e6f7420656e6f75676820737472617465677920746f6b656e7320746f20756e60008201527f7374616b65000000000000000000000000000000000000000000000000000000602082015250565b7f45524332303a207472616e7366657220616d6f756e742065786365656473206260008201527f616c616e63650000000000000000000000000000000000000000000000000000602082015250565b7f616374696f6e206f6e6c7920666f722061646d696e0000000000000000000000600082015250565b7f5377617070696e67204155534420666f7220414341206661696c656400000000600082015250565b7f616374696f6e206f6e6c7920666f722074686973207363206f722061646d696e600082015250565b7f45524332303a206275726e2066726f6d20746865207a65726f2061646472657360008201527f7300000000000000000000000000000000000000000000000000000000000000602082015250565b7f45524332303a207472616e736665722066726f6d20746865207a65726f20616460008201527f6472657373000000000000000000000000000000000000000000000000000000602082015250565b7f45524332303a20617070726f76652066726f6d20746865207a65726f2061646460008201527f7265737300000000000000000000000000000000000000000000000000000000602082015250565b7f5377617070696e67204c444f5420666f7220444f54206661696c656400000000600082015250565b7f636c69656e74206e6565647320746f20696e63726561736520616c6c6f77616e60008201527f6365000000000000000000000000000000000000000000000000000000000000602082015250565b7f45524332303a2064656372656173656420616c6c6f77616e63652062656c6f7760008201527f207a65726f000000000000000000000000000000000000000000000000000000602082015250565b7f45524332303a206d696e7420746f20746865207a65726f206164647265737300600082015250565b615e1281615750565b8114615e1d57600080fd5b50565b615e2981615762565b8114615e3457600080fd5b50565b615e408161578e565b8114615e4b57600080fd5b5056fea26469706673582212201276b3338aed246c34fcd7768a0e951afdbec106ba4ef85b95893f0a9cf4895764736f6c63430008040033",
  "linkReferences": {},
  "deployedLinkReferences": {}
}