{
  "_format": "hh-sol-artifact-1",
  "contractName": "ntt54StgydotLDOT",
  "sourceName": "contracts/ntt54StgydotLDOT.sol",
  "abi": [
    {
      "inputs": [],
      "stateMutability": "nonpayable",
      "type": "constructor"
    },
    {
      "anonymous": false,
      "inputs": [
        {
          "indexed": true,
          "internalType": "address",
          "name": "owner",
          "type": "address"
        },
        {
          "indexed": true,
          "internalType": "address",
          "name": "spender",
          "type": "address"
        },
        {
          "indexed": false,
          "internalType": "uint256",
          "name": "value",
          "type": "uint256"
        }
      ],
      "name": "Approval",
      "type": "event"
    },
    {
      "anonymous": false,
      "inputs": [
        {
          "indexed": true,
          "internalType": "address",
          "name": "from",
          "type": "address"
        },
        {
          "indexed": true,
          "internalType": "address",
          "name": "to",
          "type": "address"
        },
        {
          "indexed": false,
          "internalType": "uint256",
          "name": "value",
          "type": "uint256"
        }
      ],
      "name": "Transfer",
      "type": "event"
    },
    {
      "inputs": [],
      "name": "ACA",
      "outputs": [
        {
          "internalType": "address",
          "name": "",
          "type": "address"
        }
      ],
      "stateMutability": "view",
      "type": "function"
    },
    {
      "inputs": [],
      "name": "AUSD",
      "outputs": [
        {
          "internalType": "address",
          "name": "",
          "type": "address"
        }
      ],
      "stateMutability": "view",
      "type": "function"
    },
    {
      "inputs": [],
      "name": "BNC",
      "outputs": [
        {
          "internalType": "address",
          "name": "",
          "type": "address"
        }
      ],
      "stateMutability": "view",
      "type": "function"
    },
    {
      "inputs": [],
      "name": "CASH",
      "outputs": [
        {
          "internalType": "address",
          "name": "",
          "type": "address"
        }
      ],
      "stateMutability": "view",
      "type": "function"
    },
    {
      "inputs": [],
      "name": "DEX",
      "outputs": [
        {
          "internalType": "address",
          "name": "",
          "type": "address"
        }
      ],
      "stateMutability": "view",
      "type": "function"
    },
    {
      "inputs": [],
      "name": "DOT",
      "outputs": [
        {
          "internalType": "address",
          "name": "",
          "type": "address"
        }
      ],
      "stateMutability": "view",
      "type": "function"
    },
    {
      "inputs": [],
      "name": "DOT_LDOT",
      "outputs": [
        {
          "internalType": "uint256",
          "name": "",
          "type": "uint256"
        }
      ],
      "stateMutability": "view",
      "type": "function"
    },
    {
      "inputs": [],
      "name": "EVM",
      "outputs": [
        {
          "internalType": "address",
          "name": "",
          "type": "address"
        }
      ],
      "stateMutability": "view",
      "type": "function"
    },
    {
      "inputs": [],
      "name": "EVMAccounts",
      "outputs": [
        {
          "internalType": "address",
          "name": "",
          "type": "address"
        }
      ],
      "stateMutability": "view",
      "type": "function"
    },
    {
      "inputs": [],
      "name": "Homa",
      "outputs": [
        {
          "internalType": "address",
          "name": "",
          "type": "address"
        }
      ],
      "stateMutability": "view",
      "type": "function"
    },
    {
      "inputs": [],
      "name": "Honzon",
      "outputs": [
        {
          "internalType": "address",
          "name": "",
          "type": "address"
        }
      ],
      "stateMutability": "view",
      "type": "function"
    },
    {
      "inputs": [],
      "name": "KAR",
      "outputs": [
        {
          "internalType": "address",
          "name": "",
          "type": "address"
        }
      ],
      "stateMutability": "view",
      "type": "function"
    },
    {
      "inputs": [],
      "name": "KBTC",
      "outputs": [
        {
          "internalType": "address",
          "name": "",
          "type": "address"
        }
      ],
      "stateMutability": "view",
      "type": "function"
    },
    {
      "inputs": [],
      "name": "KINT",
      "outputs": [
        {
          "internalType": "address",
          "name": "",
          "type": "address"
        }
      ],
      "stateMutability": "view",
      "type": "function"
    },
    {
      "inputs": [],
      "name": "KSM",
      "outputs": [
        {
          "internalType": "address",
          "name": "",
          "type": "address"
        }
      ],
      "stateMutability": "view",
      "type": "function"
    },
    {
      "inputs": [],
      "name": "KUSD",
      "outputs": [
        {
          "internalType": "address",
          "name": "",
          "type": "address"
        }
      ],
      "stateMutability": "view",
      "type": "function"
    },
    {
      "inputs": [],
      "name": "LCDOT",
      "outputs": [
        {
          "internalType": "address",
          "name": "",
          "type": "address"
        }
      ],
      "stateMutability": "view",
      "type": "function"
    },
    {
      "inputs": [],
      "name": "LDOT",
      "outputs": [
        {
          "internalType": "address",
          "name": "",
          "type": "address"
        }
      ],
      "stateMutability": "view",
      "type": "function"
    },
    {
      "inputs": [],
      "name": "LKSM",
      "outputs": [
        {
          "internalType": "address",
          "name": "",
          "type": "address"
        }
      ],
      "stateMutability": "view",
      "type": "function"
    },
    {
      "inputs": [],
      "name": "LP_ACA_AUSD",
      "outputs": [
        {
          "internalType": "address",
          "name": "",
          "type": "address"
        }
      ],
      "stateMutability": "view",
      "type": "function"
    },
    {
      "inputs": [],
      "name": "LP_DOT_AUSD",
      "outputs": [
        {
          "internalType": "address",
          "name": "",
          "type": "address"
        }
      ],
      "stateMutability": "view",
      "type": "function"
    },
    {
      "inputs": [],
      "name": "LP_KAR_KUSD",
      "outputs": [
        {
          "internalType": "address",
          "name": "",
          "type": "address"
        }
      ],
      "stateMutability": "view",
      "type": "function"
    },
    {
      "inputs": [],
      "name": "LP_KSM_KUSD",
      "outputs": [
        {
          "internalType": "address",
          "name": "",
          "type": "address"
        }
      ],
      "stateMutability": "view",
      "type": "function"
    },
    {
      "inputs": [],
      "name": "LP_LDOT_AUSD",
      "outputs": [
        {
          "internalType": "address",
          "name": "",
          "type": "address"
        }
      ],
      "stateMutability": "view",
      "type": "function"
    },
    {
      "inputs": [],
      "name": "LP_LKSM_KUSD",
      "outputs": [
        {
          "internalType": "address",
          "name": "",
          "type": "address"
        }
      ],
      "stateMutability": "view",
      "type": "function"
    },
    {
      "inputs": [],
      "name": "LP_RENBTC_AUSD",
      "outputs": [
        {
          "internalType": "address",
          "name": "",
          "type": "address"
        }
      ],
      "stateMutability": "view",
      "type": "function"
    },
    {
      "inputs": [],
      "name": "Oracle",
      "outputs": [
        {
          "internalType": "address",
          "name": "",
          "type": "address"
        }
      ],
      "stateMutability": "view",
      "type": "function"
    },
    {
      "inputs": [],
      "name": "PHA",
      "outputs": [
        {
          "internalType": "address",
          "name": "",
          "type": "address"
        }
      ],
      "stateMutability": "view",
      "type": "function"
    },
    {
      "inputs": [],
      "name": "RENBTC",
      "outputs": [
        {
          "internalType": "address",
          "name": "",
          "type": "address"
        }
      ],
      "stateMutability": "view",
      "type": "function"
    },
    {
      "inputs": [],
      "name": "Schedule",
      "outputs": [
        {
          "internalType": "address",
          "name": "",
          "type": "address"
        }
      ],
      "stateMutability": "view",
      "type": "function"
    },
    {
      "inputs": [],
      "name": "TAI",
      "outputs": [
        {
          "internalType": "address",
          "name": "",
          "type": "address"
        }
      ],
      "stateMutability": "view",
      "type": "function"
    },
    {
      "inputs": [],
      "name": "TAI_3USD",
      "outputs": [
        {
          "internalType": "address",
          "name": "",
          "type": "address"
        }
      ],
      "stateMutability": "view",
      "type": "function"
    },
    {
      "inputs": [],
      "name": "TAI_DOT",
      "outputs": [
        {
          "internalType": "address",
          "name": "",
          "type": "address"
        }
      ],
      "stateMutability": "view",
      "type": "function"
    },
    {
      "inputs": [],
      "name": "TAI_KSM",
      "outputs": [
        {
          "internalType": "address",
          "name": "",
          "type": "address"
        }
      ],
      "stateMutability": "view",
      "type": "function"
    },
    {
      "inputs": [],
      "name": "VSKSM",
      "outputs": [
        {
          "internalType": "address",
          "name": "",
          "type": "address"
        }
      ],
      "stateMutability": "view",
      "type": "function"
    },
    {
      "inputs": [],
      "name": "admin",
      "outputs": [
        {
          "internalType": "address",
          "name": "",
          "type": "address"
        }
      ],
      "stateMutability": "view",
      "type": "function"
    },
    {
      "inputs": [
        {
          "internalType": "address",
          "name": "owner",
          "type": "address"
        },
        {
          "internalType": "address",
          "name": "spender",
          "type": "address"
        }
      ],
      "name": "allowance",
      "outputs": [
        {
          "internalType": "uint256",
          "name": "",
          "type": "uint256"
        }
      ],
      "stateMutability": "view",
      "type": "function"
    },
    {
      "inputs": [],
      "name": "amountAUSDtoSwaptoACA",
      "outputs": [
        {
          "internalType": "uint256",
          "name": "",
          "type": "uint256"
        }
      ],
      "stateMutability": "view",
      "type": "function"
    },
    {
      "inputs": [
        {
          "internalType": "address",
          "name": "spender",
          "type": "address"
        },
        {
          "internalType": "uint256",
          "name": "amount",
          "type": "uint256"
        }
      ],
      "name": "approve",
      "outputs": [
        {
          "internalType": "bool",
          "name": "",
          "type": "bool"
        }
      ],
      "stateMutability": "nonpayable",
      "type": "function"
    },
    {
      "inputs": [
        {
          "internalType": "address",
          "name": "account",
          "type": "address"
        }
      ],
      "name": "balanceOf",
      "outputs": [
        {
          "internalType": "uint256",
          "name": "",
          "type": "uint256"
        }
      ],
      "stateMutability": "view",
      "type": "function"
    },
    {
      "inputs": [],
      "name": "claimRewards",
      "outputs": [],
      "stateMutability": "nonpayable",
      "type": "function"
    },
    {
      "inputs": [],
      "name": "decimals",
      "outputs": [
        {
          "internalType": "uint8",
          "name": "",
          "type": "uint8"
        }
      ],
      "stateMutability": "view",
      "type": "function"
    },
    {
      "inputs": [
        {
          "internalType": "address",
          "name": "spender",
          "type": "address"
        },
        {
          "internalType": "uint256",
          "name": "subtractedValue",
          "type": "uint256"
        }
      ],
      "name": "decreaseAllowance",
      "outputs": [
        {
          "internalType": "bool",
          "name": "",
          "type": "bool"
        }
      ],
      "stateMutability": "nonpayable",
      "type": "function"
    },
    {
      "inputs": [
        {
          "internalType": "uint256",
          "name": "amount",
          "type": "uint256"
        },
        {
          "internalType": "uint256",
          "name": "percentAUSD",
          "type": "uint256"
        }
      ],
      "name": "depositDOT",
      "outputs": [],
      "stateMutability": "nonpayable",
      "type": "function"
    },
    {
      "inputs": [],
      "name": "epochNumber",
      "outputs": [
        {
          "internalType": "uint256",
          "name": "",
          "type": "uint256"
        }
      ],
      "stateMutability": "view",
      "type": "function"
    },
    {
      "inputs": [],
      "name": "excessLDOTinAccount",
      "outputs": [
        {
          "internalType": "uint256",
          "name": "",
          "type": "uint256"
        }
      ],
      "stateMutability": "view",
      "type": "function"
    },
    {
      "inputs": [],
      "name": "frequency",
      "outputs": [
        {
          "internalType": "uint256",
          "name": "",
          "type": "uint256"
        }
      ],
      "stateMutability": "view",
      "type": "function"
    },
    {
      "inputs": [],
      "name": "freshACArewards",
      "outputs": [
        {
          "internalType": "uint256",
          "name": "",
          "type": "uint256"
        }
      ],
      "stateMutability": "view",
      "type": "function"
    },
    {
      "inputs": [],
      "name": "freshAUSDrewards",
      "outputs": [
        {
          "internalType": "uint256",
          "name": "",
          "type": "uint256"
        }
      ],
      "stateMutability": "view",
      "type": "function"
    },
    {
      "inputs": [],
      "name": "homaExchangeRate",
      "outputs": [
        {
          "internalType": "uint256",
          "name": "",
          "type": "uint256"
        }
      ],
      "stateMutability": "view",
      "type": "function"
    },
    {
      "inputs": [
        {
          "internalType": "address",
          "name": "spender",
          "type": "address"
        },
        {
          "internalType": "uint256",
          "name": "addedValue",
          "type": "uint256"
        }
      ],
      "name": "increaseAllowance",
      "outputs": [
        {
          "internalType": "bool",
          "name": "",
          "type": "bool"
        }
      ],
      "stateMutability": "nonpayable",
      "type": "function"
    },
    {
      "inputs": [],
      "name": "initialDOTCapitaltoLDOT",
      "outputs": [
        {
          "internalType": "uint256",
          "name": "",
          "type": "uint256"
        }
      ],
      "stateMutability": "view",
      "type": "function"
    },
    {
      "inputs": [],
      "name": "manageProceeds",
      "outputs": [],
      "stateMutability": "nonpayable",
      "type": "function"
    },
    {
      "inputs": [],
      "name": "managingProceedsState",
      "outputs": [
        {
          "internalType": "bool",
          "name": "",
          "type": "bool"
        }
      ],
      "stateMutability": "view",
      "type": "function"
    },
    {
      "inputs": [],
      "name": "name",
      "outputs": [
        {
          "internalType": "string",
          "name": "",
          "type": "string"
        }
      ],
      "stateMutability": "view",
      "type": "function"
    },
    {
      "inputs": [
        {
          "internalType": "address",
          "name": "",
          "type": "address"
        }
      ],
      "name": "registeredUserAccounts",
      "outputs": [
        {
          "internalType": "bool",
          "name": "",
          "type": "bool"
        }
      ],
      "stateMutability": "view",
      "type": "function"
    },
    {
      "inputs": [],
      "name": "stakeDOT",
      "outputs": [],
      "stateMutability": "nonpayable",
      "type": "function"
    },
    {
      "inputs": [],
      "name": "startManagingProcees",
      "outputs": [],
      "stateMutability": "nonpayable",
      "type": "function"
    },
    {
      "inputs": [],
      "name": "stopManagingProcees",
      "outputs": [],
      "stateMutability": "nonpayable",
      "type": "function"
    },
    {
      "inputs": [],
      "name": "symbol",
      "outputs": [
        {
          "internalType": "string",
          "name": "",
          "type": "string"
        }
      ],
      "stateMutability": "view",
      "type": "function"
    },
    {
      "inputs": [],
      "name": "totalACAavailableBalance",
      "outputs": [
        {
          "internalType": "uint256",
          "name": "",
          "type": "uint256"
        }
      ],
      "stateMutability": "view",
      "type": "function"
    },
    {
      "inputs": [],
      "name": "totalAUSDavailableBalance",
      "outputs": [
        {
          "internalType": "uint256",
          "name": "",
          "type": "uint256"
        }
      ],
      "stateMutability": "view",
      "type": "function"
    },
    {
      "inputs": [],
      "name": "totalSupply",
      "outputs": [
        {
          "internalType": "uint256",
          "name": "",
          "type": "uint256"
        }
      ],
      "stateMutability": "view",
      "type": "function"
    },
    {
      "inputs": [],
      "name": "total_DOTinAccount",
      "outputs": [
        {
          "internalType": "uint256",
          "name": "",
          "type": "uint256"
        }
      ],
      "stateMutability": "view",
      "type": "function"
    },
    {
      "inputs": [],
      "name": "total_LDOTinAccount",
      "outputs": [
        {
          "internalType": "uint256",
          "name": "",
          "type": "uint256"
        }
      ],
      "stateMutability": "view",
      "type": "function"
    },
    {
      "inputs": [],
      "name": "total_STGaca",
      "outputs": [
        {
          "internalType": "uint256",
          "name": "",
          "type": "uint256"
        }
      ],
      "stateMutability": "view",
      "type": "function"
    },
    {
      "inputs": [],
      "name": "total_STGausd",
      "outputs": [
        {
          "internalType": "uint256",
          "name": "",
          "type": "uint256"
        }
      ],
      "stateMutability": "view",
      "type": "function"
    },
    {
      "inputs": [
        {
          "internalType": "address",
          "name": "to",
          "type": "address"
        },
        {
          "internalType": "uint256",
          "name": "amount",
          "type": "uint256"
        }
      ],
      "name": "transfer",
      "outputs": [
        {
          "internalType": "bool",
          "name": "",
          "type": "bool"
        }
      ],
      "stateMutability": "nonpayable",
      "type": "function"
    },
    {
      "inputs": [
        {
          "internalType": "uint256",
          "name": "amount",
          "type": "uint256"
        }
      ],
      "name": "transferFeesBalance",
      "outputs": [],
      "stateMutability": "nonpayable",
      "type": "function"
    },
    {
      "inputs": [
        {
          "internalType": "address",
          "name": "from",
          "type": "address"
        },
        {
          "internalType": "address",
          "name": "to",
          "type": "address"
        },
        {
          "internalType": "uint256",
          "name": "amount",
          "type": "uint256"
        }
      ],
      "name": "transferFrom",
      "outputs": [
        {
          "internalType": "bool",
          "name": "",
          "type": "bool"
        }
      ],
      "stateMutability": "nonpayable",
      "type": "function"
    },
    {
      "inputs": [],
      "name": "unstakeAndWithdrawDOT",
      "outputs": [],
      "stateMutability": "nonpayable",
      "type": "function"
    },
    {
      "inputs": [
        {
          "internalType": "uint256",
          "name": "_frequency",
          "type": "uint256"
        }
      ],
      "name": "updateFrequency",
      "outputs": [],
      "stateMutability": "nonpayable",
      "type": "function"
    },
    {
      "inputs": [
        {
          "internalType": "uint256",
          "name": "",
          "type": "uint256"
        }
      ],
      "name": "userAccounts",
      "outputs": [
        {
          "internalType": "address",
          "name": "",
          "type": "address"
        }
      ],
      "stateMutability": "view",
      "type": "function"
    },
    {
      "inputs": [
        {
          "internalType": "address",
          "name": "",
          "type": "address"
        },
        {
          "internalType": "address",
          "name": "",
          "type": "address"
        }
      ],
      "name": "userBalances",
      "outputs": [
        {
          "internalType": "uint256",
          "name": "",
          "type": "uint256"
        }
      ],
      "stateMutability": "view",
      "type": "function"
    },
    {
      "inputs": [
        {
          "internalType": "address",
          "name": "",
          "type": "address"
        }
      ],
      "name": "userPercentAUSD",
      "outputs": [
        {
          "internalType": "uint256",
          "name": "",
          "type": "uint256"
        }
      ],
      "stateMutability": "view",
      "type": "function"
    },
    {
      "inputs": [
        {
          "internalType": "address",
          "name": "",
          "type": "address"
        }
      ],
      "name": "userSTGaca",
      "outputs": [
        {
          "internalType": "uint256",
          "name": "",
          "type": "uint256"
        }
      ],
      "stateMutability": "view",
      "type": "function"
    },
    {
      "inputs": [
        {
          "internalType": "address",
          "name": "",
          "type": "address"
        }
      ],
      "name": "userSTGausd",
      "outputs": [
        {
          "internalType": "uint256",
          "name": "",
          "type": "uint256"
        }
      ],
      "stateMutability": "view",
      "type": "function"
    },
    {
      "inputs": [
        {
          "internalType": "address",
          "name": "",
          "type": "address"
        }
      ],
      "name": "userStakedDOT",
      "outputs": [
        {
          "internalType": "uint256",
          "name": "",
          "type": "uint256"
        }
      ],
      "stateMutability": "view",
      "type": "function"
    }
  ],
  "bytecode": "0x6080604052610803600560006101000a81548173ffffffffffffffffffffffffffffffffffffffff021916908373ffffffffffffffffffffffffffffffffffffffff160217905550610802600660006101000a81548173ffffffffffffffffffffffffffffffffffffffff021916908373ffffffffffffffffffffffffffffffffffffffff160217905550610805600760006101000a81548173ffffffffffffffffffffffffffffffffffffffff021916908373ffffffffffffffffffffffffffffffffffffffff1602179055506078600c556001600d60006101000a81548160ff0219169083151502179055506000601055600060155560006016556000601755600060185560006019556000601a55600060225560006023553480156200012757600080fd5b506040518060400160405280600d81526020017f4c702053747261746567792032000000000000000000000000000000000000008152506040518060400160405280600481526020017f53544732000000000000000000000000000000000000000000000000000000008152508160039080519060200190620001ac9291906200033f565b508060049080519060200190620001c59291906200033f565b50505033600f60006101000a81548173ffffffffffffffffffffffffffffffffffffffff021916908373ffffffffffffffffffffffffffffffffffffffff1602179055506a0100000000000000000002600860006101000a81548173ffffffffffffffffffffffffffffffffffffffff021916908373ffffffffffffffffffffffffffffffffffffffff1602179055506a0100000000000000000001600960006101000a81548173ffffffffffffffffffffffffffffffffffffffff021916908373ffffffffffffffffffffffffffffffffffffffff1602179055506a0100000000000000000000600a60006101000a81548173ffffffffffffffffffffffffffffffffffffffff021916908373ffffffffffffffffffffffffffffffffffffffff1602179055506a0100000000000000000003600b60006101000a81548173ffffffffffffffffffffffffffffffffffffffff021916908373ffffffffffffffffffffffffffffffffffffffff16021790555062000454565b8280546200034d90620003ef565b90600052602060002090601f016020900481019282620003715760008555620003bd565b82601f106200038c57805160ff1916838001178555620003bd565b82800160010185558215620003bd579182015b82811115620003bc5782518255916020019190600101906200039f565b5b509050620003cc9190620003d0565b5090565b5b80821115620003eb576000816000905550600101620003d1565b5090565b600060028204905060018216806200040857607f821691505b602082108114156200041f576200041e62000425565b5b50919050565b7f4e487b7100000000000000000000000000000000000000000000000000000000600052602260045260246000fd5b615be980620004646000396000f3fe608060405234801561001057600080fd5b506004361061046a5760003560e01c806395d89b411161024c578063c5641d9b11610146578063e18b7ac5116100c3578063f364ecd111610087578063f364ecd114610d7d578063f4145a8314610d99578063f589b63d14610db7578063f851a44014610dd5578063fd45892114610df35761046a565b8063e18b7ac514610ce7578063ead50da314610d05578063ec857cd414610d23578063f24a534e14610d41578063f29588c714610d5f5761046a565b8063d3431c1d1161010a578063d3431c1d14610c53578063d54dc1ab14610c5d578063d7f269fe14610c7b578063d9dc7fcd14610c99578063dd62ed3e14610cb75761046a565b8063c5641d9b14610bd3578063c6bd6a9a14610bf1578063c84dd46614610c0f578063c86a6f9714610c19578063d2c03d4914610c375761046a565b8063adb51980116101d4578063bbfec49d11610198578063bbfec49d14610b2b578063bcb4dcd814610b5b578063c30054c014610b79578063c322dfa014610b97578063c496981514610bb55761046a565b8063adb5198014610a83578063b0dadb7b14610ab3578063b3d27bc514610ad1578063b5fd3c2d14610aef578063bacbd7cc14610b0d5761046a565b8063a1b562261161021b578063a1b56226146109b7578063a457c2d7146109d5578063a5770a5414610a05578063a7114a9814610a23578063a9059cbb14610a535761046a565b806395d89b41146109415780639732059a1461095f57806399ba0bc21461097d5780639c3a17ff146109995761046a565b80633a9c5cbc11610368578063616d5058116102e557806370a08231116102a957806370a0823114610887578063783dc03d146108b757806380935aa9146108d557806380bd60e8146108f357806392afbebf146109115761046a565b8063616d5058146107df578063669c493e1461080f57806366f98e711461082d5780636b80a04c1461084b5780636cd83f18146108695761046a565b80634b981f4b1161032c5780634b981f4b1461074b5780635d499e821461077b5780635e796bf7146107995780635fc1b632146107a35780636022c7ab146107c15761046a565b80633a9c5cbc146106a35780633fdeeded146106c157806341da8653146106f157806344e4a0801461070f5780634b5edf9c1461072d5761046a565b80631f927675116103f6578063313ce567116103ba578063313ce5671461060f578063351f5f3d1461062d57806336e029501461064b578063372500ab1461066957806339509351146106735761046a565b80631f9276751461057b5780631fa1f9e81461059957806323b872dd146105a3578063280d1060146105d35780632fd7d1fd146105f15761046a565b80630bea593a1161043d5780630bea593a146104e557806318160ddd1461050357806318ad37af1461052157806318dca9ba1461053f57806319550da41461055d5761046a565b8063058961ad1461046f57806306fdde0314610479578063095ea7b3146104975780630a4cad6b146104c7575b600080fd5b610477610e11565b005b6104816114fc565b60405161048e919061500a565b60405180910390f35b6104b160048036038101906104ac9190614939565b61158e565b6040516104be9190614fef565b60405180910390f35b6104cf6115b1565b6040516104dc9190614e75565b60405180910390f35b6104ed6115c0565b6040516104fa9190614e75565b60405180910390f35b61050b6115cf565b604051610518919061528c565b60405180910390f35b6105296115d9565b6040516105369190614e75565b60405180910390f35b6105476115e8565b6040516105549190614e75565b60405180910390f35b6105656115f7565b6040516105729190614e75565b60405180910390f35b610583611606565b6040516105909190614e75565b60405180910390f35b6105a1611615565b005b6105bd60048036038101906105b891906148ea565b611982565b6040516105ca9190614fef565b60405180910390f35b6105db6119b1565b6040516105e89190614e75565b60405180910390f35b6105f96119c0565b6040516106069190614e75565b60405180910390f35b6106176119cf565b60405161062491906152a7565b60405180910390f35b6106356119d8565b6040516106429190614e75565b60405180910390f35b6106536119de565b6040516106609190614e75565b60405180910390f35b6106716119ed565b005b61068d60048036038101906106889190614939565b611d97565b60405161069a9190614fef565b60405180910390f35b6106ab611dce565b6040516106b8919061528c565b60405180910390f35b6106db60048036038101906106d69190614885565b611dd4565b6040516106e8919061528c565b60405180910390f35b6106f9611dec565b6040516107069190614e75565b60405180910390f35b610717611dfb565b604051610724919061528c565b60405180910390f35b610735611e01565b6040516107429190614fef565b60405180910390f35b61076560048036038101906107609190614885565b611e14565b604051610772919061528c565b60405180910390f35b610783611e2c565b6040516107909190614e75565b60405180910390f35b6107a1611e3b565b005b6107ab611ef0565b6040516107b8919061528c565b60405180910390f35b6107c9611ef6565b6040516107d69190614e75565b60405180910390f35b6107f960048036038101906107f491906149df565b611f05565b6040516108069190614e75565b60405180910390f35b610817611f44565b604051610824919061528c565b60405180910390f35b610835611f4a565b604051610842919061528c565b60405180910390f35b610853611f50565b6040516108609190614e75565b60405180910390f35b610871611f56565b60405161087e9190614e75565b60405180910390f35b6108a1600480360381019061089c9190614885565b611f65565b6040516108ae919061528c565b60405180910390f35b6108bf611fad565b6040516108cc9190614e75565b60405180910390f35b6108dd611fbc565b6040516108ea9190614e75565b60405180910390f35b6108fb611fc2565b6040516109089190614e75565b60405180910390f35b61092b60048036038101906109269190614885565b611fd1565b6040516109389190614fef565b60405180910390f35b610949611ff1565b604051610956919061500a565b60405180910390f35b610967612083565b604051610974919061528c565b60405180910390f35b610997600480360381019061099291906149df565b612089565b005b6109a1612093565b6040516109ae919061528c565b60405180910390f35b6109bf612099565b6040516109cc9190614e75565b60405180910390f35b6109ef60048036038101906109ea9190614939565b6120a8565b6040516109fc9190614fef565b60405180910390f35b610a0d61211f565b604051610a1a9190614e75565b60405180910390f35b610a3d6004803603810190610a389190614885565b61212e565b604051610a4a919061528c565b60405180910390f35b610a6d6004803603810190610a689190614939565b612145565b604051610a7a9190614fef565b60405180910390f35b610a9d6004803603810190610a9891906148ae565b612168565b604051610aaa919061528c565b60405180910390f35b610abb61218d565b604051610ac89190614e75565b60405180910390f35b610ad9612193565b604051610ae69190614e75565b60405180910390f35b610af76121a2565b604051610b04919061528c565b60405180910390f35b610b156121a8565b604051610b229190614e75565b60405180910390f35b610b456004803603810190610b409190614885565b6121b7565b604051610b52919061528c565b60405180910390f35b610b636121cf565b604051610b70919061528c565b60405180910390f35b610b816121d5565b604051610b8e9190614e75565b60405180910390f35b610b9f6121e4565b604051610bac919061528c565b60405180910390f35b610bbd6121ea565b604051610bca9190614e75565b60405180910390f35b610bdb6121f9565b604051610be8919061528c565b60405180910390f35b610bf96121ff565b604051610c069190614e75565b60405180910390f35b610c17612205565b005b610c216122b2565b604051610c2e919061528c565b60405180910390f35b610c516004803603810190610c4c91906149df565b6122b8565b005b610c5b61236d565b005b610c65612ee3565b604051610c729190614e75565b60405180910390f35b610c83612ef2565b604051610c909190614e75565b60405180910390f35b610ca1612f01565b604051610cae9190614e75565b60405180910390f35b610cd16004803603810190610ccc91906148ae565b612f07565b604051610cde919061528c565b60405180910390f35b610cef612f8e565b604051610cfc9190614e75565b60405180910390f35b610d0d612f9d565b604051610d1a919061528c565b60405180910390f35b610d2b612fa3565b604051610d38919061528c565b60405180910390f35b610d49612fa9565b604051610d569190614e75565b60405180910390f35b610d67612faf565b604051610d749190614e75565b60405180910390f35b610d976004803603810190610d929190614a31565b612fbe565b005b610da161343f565b604051610dae919061528c565b60405180910390f35b610dbf613445565b604051610dcc9190614e75565b60405180910390f35b610ddd613454565b604051610dea9190614e75565b60405180910390f35b610dfb61347a565b604051610e089190614e75565b60405180910390f35b601d60006a010000000000000000000273ffffffffffffffffffffffffffffffffffffffff1673ffffffffffffffffffffffffffffffffffffffff16815260200190815260200160002060003373ffffffffffffffffffffffffffffffffffffffff1673ffffffffffffffffffffffffffffffffffffffff16815260200190815260200160002054602160003373ffffffffffffffffffffffffffffffffffffffff1673ffffffffffffffffffffffffffffffffffffffff1681526020019081526020016000205410156114fa576000602160003373ffffffffffffffffffffffffffffffffffffffff1673ffffffffffffffffffffffffffffffffffffffff16815260200190815260200160002054601d60006a010000000000000000000273ffffffffffffffffffffffffffffffffffffffff1673ffffffffffffffffffffffffffffffffffffffff16815260200190815260200160002060003373ffffffffffffffffffffffffffffffffffffffff1673ffffffffffffffffffffffffffffffffffffffff16815260200190815260200160002054610fb3919061546a565b90506000601e60003373ffffffffffffffffffffffffffffffffffffffff1673ffffffffffffffffffffffffffffffffffffffff1681526020019081526020016000205460648361100491906153df565b61100e9190615410565b90506000818361101e919061546a565b905081601f60003373ffffffffffffffffffffffffffffffffffffffff1673ffffffffffffffffffffffffffffffffffffffff168152602001908152602001600020600082825461106f9190615389565b9250508190555080602060003373ffffffffffffffffffffffffffffffffffffffff1673ffffffffffffffffffffffffffffffffffffffff16815260200190815260200160002060008282546110c59190615389565b9250508190555081601960008282546110de9190615389565b9250508190555080601a60008282546110f79190615389565b925050819055506000600b60009054906101000a900473ffffffffffffffffffffffffffffffffffffffff1673ffffffffffffffffffffffffffffffffffffffff166370a08231306040518263ffffffff1660e01b815260040161115b9190614e75565b60206040518083038186803b15801561117357600080fd5b505afa158015611187573d6000803e3d6000fd5b505050506040513d601f19601f820116820180604052508101906111ab9190614a08565b9050600760009054906101000a900473ffffffffffffffffffffffffffffffffffffffff1673ffffffffffffffffffffffffffffffffffffffff1663a0712d68856040518263ffffffff1660e01b8152600401611208919061528c565b602060405180830381600087803b15801561122257600080fd5b505af1158015611236573d6000803e3d6000fd5b505050506040513d601f19601f8201168201806040525081019061125a9190614975565b611299576040517f08c379a00000000000000000000000000000000000000000000000000000000081526004016112909061502c565b60405180910390fd5b6000600b60009054906101000a900473ffffffffffffffffffffffffffffffffffffffff1673ffffffffffffffffffffffffffffffffffffffff166370a08231306040518263ffffffff1660e01b81526004016112f69190614e75565b60206040518083038186803b15801561130e57600080fd5b505afa158015611322573d6000803e3d6000fd5b505050506040513d601f19601f820116820180604052508101906113469190614a08565b905060008282611356919061546a565b905080601d60006a010000000000000000000373ffffffffffffffffffffffffffffffffffffffff1673ffffffffffffffffffffffffffffffffffffffff16815260200190815260200160002060003373ffffffffffffffffffffffffffffffffffffffff1673ffffffffffffffffffffffffffffffffffffffff16815260200190815260200160002060008282546113ef9190615389565b9250508190555085601160008282546114089190615389565b9250508190555080601260008282546114219190615389565b92505081905550601d60006a010000000000000000000273ffffffffffffffffffffffffffffffffffffffff1673ffffffffffffffffffffffffffffffffffffffff16815260200190815260200160002060003373ffffffffffffffffffffffffffffffffffffffff1673ffffffffffffffffffffffffffffffffffffffff16815260200190815260200160002054602160003373ffffffffffffffffffffffffffffffffffffffff1673ffffffffffffffffffffffffffffffffffffffff168152602001908152602001600020819055505050505050505b565b60606003805461150b9061556e565b80601f01602080910402602001604051908101604052809291908181526020018280546115379061556e565b80156115845780601f1061155957610100808354040283529160200191611584565b820191906000526020600020905b81548152906001019060200180831161156757829003601f168201915b5050505050905090565b600080611599613489565b90506115a6818585613491565b600191505092915050565b6a020000000002000000000181565b6a040000000000000000000d81565b6000600254905090565b6a010000000000000000008181565b6a020000000014000000000181565b6a01000000000000000000ac81565b6a010000000000000000008381565b3073ffffffffffffffffffffffffffffffffffffffff163373ffffffffffffffffffffffffffffffffffffffff16148061169c5750600f60009054906101000a900473ffffffffffffffffffffffffffffffffffffffff1673ffffffffffffffffffffffffffffffffffffffff163373ffffffffffffffffffffffffffffffffffffffff16145b6116db576040517f08c379a00000000000000000000000000000000000000000000000000000000081526004016116d29061516c565b60405180910390fd5b600d60009054906101000a900460ff161561198057600760009054906101000a900473ffffffffffffffffffffffffffffffffffffffff1673ffffffffffffffffffffffffffffffffffffffff1663e6aa216c6040518163ffffffff1660e01b815260040160206040518083038186803b15801561175857600080fd5b505afa15801561176c573d6000803e3d6000fd5b505050506040513d601f19601f820116820180604052508101906117909190614a08565b6017819055506017546b204fce5e3e250261100000006117b091906153df565b600e819055506402540be400600e546011546117cc9190615410565b6117d691906153df565b6018819055506012546018541015611822576018546012546117f8919061546a565b601381905550633b9aca0060135411156118215760185460128190555061182060135461365c565b5b5b600660009054906101000a900473ffffffffffffffffffffffffffffffffffffffff1673ffffffffffffffffffffffffffffffffffffffff1663168d560d306000620f4240611388600c546040516024016040516020818303038152906040527f1fa1f9e8000000000000000000000000000000000000000000000000000000007bffffffffffffffffffffffffffffffffffffffffffffffffffffffff19166020820180517bffffffffffffffffffffffffffffffffffffffffffffffffffffffff83818316178352505050506040518763ffffffff1660e01b815260040161191196959493929190614ef0565b600060405180830381600087803b15801561192b57600080fd5b505af115801561193f573d6000803e3d6000fd5b505050506040513d6000823e3d601f19601f82011682018060405250810190611968919061499e565b50601060008154611978906155d1565b919050819055505b565b60008061198d613489565b905061199a858285613dee565b6119a5858585613e7a565b60019150509392505050565b6a030000000000000000000081565b6a010000000000000000000181565b60006012905090565b61080581565b6a010000000000000000000281565b6000601d60006a010000000000000000000173ffffffffffffffffffffffffffffffffffffffff1673ffffffffffffffffffffffffffffffffffffffff16815260200190815260200160002060003373ffffffffffffffffffffffffffffffffffffffff1673ffffffffffffffffffffffffffffffffffffffff1681526020019081526020016000205490506000811115611bc0576000601d60006a010000000000000000000173ffffffffffffffffffffffffffffffffffffffff1673ffffffffffffffffffffffffffffffffffffffff16815260200190815260200160002060003373ffffffffffffffffffffffffffffffffffffffff1673ffffffffffffffffffffffffffffffffffffffff16815260200190815260200160002081905550600960009054906101000a900473ffffffffffffffffffffffffffffffffffffffff1673ffffffffffffffffffffffffffffffffffffffff1663a9059cbb33836040518363ffffffff1660e01b8152600401611b6c929190614f58565b602060405180830381600087803b158015611b8657600080fd5b505af1158015611b9a573d6000803e3d6000fd5b505050506040513d601f19601f82011682018060405250810190611bbe9190614975565b505b6000601d60006a010000000000000000000073ffffffffffffffffffffffffffffffffffffffff1673ffffffffffffffffffffffffffffffffffffffff16815260200190815260200160002060003373ffffffffffffffffffffffffffffffffffffffff1673ffffffffffffffffffffffffffffffffffffffff1681526020019081526020016000205490506000811115611d93576000601d60006a010000000000000000000073ffffffffffffffffffffffffffffffffffffffff1673ffffffffffffffffffffffffffffffffffffffff16815260200190815260200160002060003373ffffffffffffffffffffffffffffffffffffffff1673ffffffffffffffffffffffffffffffffffffffff16815260200190815260200160002081905550600a60009054906101000a900473ffffffffffffffffffffffffffffffffffffffff1673ffffffffffffffffffffffffffffffffffffffff1663a9059cbb33836040518363ffffffff1660e01b8152600401611d3f929190614f58565b602060405180830381600087803b158015611d5957600080fd5b505af1158015611d6d573d6000803e3d6000fd5b505050506040513d601f19601f82011682018060405250810190611d919190614975565b505b5050565b600080611da2613489565b9050611dc3818585611db48589612f07565b611dbe9190615389565b613491565b600191505092915050565b60135481565b601e6020528060005260406000206000915090505481565b6a030000000000000000000081565b60165481565b600d60009054906101000a900460ff1681565b601f6020528060005260406000206000915090505481565b6a020000000082000000008181565b600f60009054906101000a900473ffffffffffffffffffffffffffffffffffffffff1673ffffffffffffffffffffffffffffffffffffffff163373ffffffffffffffffffffffffffffffffffffffff1614611ecb576040517f08c379a0000000000000000000000000000000000000000000000000000000008152600401611ec29061512c565b60405180910390fd5b6001600d60006101000a81548160ff021916908315150217905550611eee611615565b565b60145481565b6a010000000000000000000381565b601b8181548110611f1557600080fd5b906000526020600020016000915054906101000a900473ffffffffffffffffffffffffffffffffffffffff1681565b601a5481565b60155481565b61080681565b6a01000000000000000000aa81565b60008060008373ffffffffffffffffffffffffffffffffffffffff1673ffffffffffffffffffffffffffffffffffffffff168152602001908152602001600020549050919050565b6a010000000000000000008481565b61080381565b6a020000000080000000008181565b601c6020528060005260406000206000915054906101000a900460ff1681565b6060600480546120009061556e565b80601f016020809104026020016040519081016040528092919081815260200182805461202c9061556e565b80156120795780601f1061204e57610100808354040283529160200191612079565b820191906000526020600020905b81548152906001019060200180831161205c57829003601f168201915b5050505050905090565b600e5481565b80600c8190555050565b60125481565b6a010000000000000000000081565b6000806120b3613489565b905060006120c18286612f07565b905083811015612106576040517f08c379a00000000000000000000000000000000000000000000000000000000081526004016120fd9061524c565b60405180910390fd5b6121138286868403613491565b60019250505092915050565b6a020000000000000000000181565b602080528060005260406000206000915090505481565b600080612150613489565b905061215d818585613e7a565b600191505092915050565b601d602052816000526040600020602052806000526040600020600091509150505481565b61080281565b6a010000000000000000008081565b60235481565b6a020000000083000000008181565b60216020528060005260406000206000915090505481565b60185481565b6a010000000000000000008281565b60175481565b6a010000000000000000001581565b60195481565b61080781565b600f60009054906101000a900473ffffffffffffffffffffffffffffffffffffffff1673ffffffffffffffffffffffffffffffffffffffff163373ffffffffffffffffffffffffffffffffffffffff1614612295576040517f08c379a000000000000000000000000000000000000000000000000000000000815260040161228c9061512c565b60405180910390fd5b6000600d60006101000a81548160ff021916908315150217905550565b60225481565b600a60009054906101000a900473ffffffffffffffffffffffffffffffffffffffff1673ffffffffffffffffffffffffffffffffffffffff166323b872dd3330846040518463ffffffff1660e01b815260040161231793929190614eb9565b602060405180830381600087803b15801561233157600080fd5b505af1158015612345573d6000803e3d6000fd5b505050506040513d601f19601f820116820180604052508101906123699190614975565b5050565b6000601d60003073ffffffffffffffffffffffffffffffffffffffff1673ffffffffffffffffffffffffffffffffffffffff16815260200190815260200160002060003373ffffffffffffffffffffffffffffffffffffffff1673ffffffffffffffffffffffffffffffffffffffff16815260200190815260200160002054905060008111612431576040517f08c379a0000000000000000000000000000000000000000000000000000000008152600401612428906150ec565b60405180910390fd5b6000601d60003073ffffffffffffffffffffffffffffffffffffffff1673ffffffffffffffffffffffffffffffffffffffff16815260200190815260200160002060003373ffffffffffffffffffffffffffffffffffffffff1673ffffffffffffffffffffffffffffffffffffffff168152602001908152602001600020819055506124bd33826140fb565b6000601d60006a010000000000000000000273ffffffffffffffffffffffffffffffffffffffff1673ffffffffffffffffffffffffffffffffffffffff16815260200190815260200160002060003373ffffffffffffffffffffffffffffffffffffffff1673ffffffffffffffffffffffffffffffffffffffff16815260200190815260200160002081905550806011600082825461255c919061546a565b925050819055506000601d60006a010000000000000000000373ffffffffffffffffffffffffffffffffffffffff1673ffffffffffffffffffffffffffffffffffffffff16815260200190815260200160002060003373ffffffffffffffffffffffffffffffffffffffff1673ffffffffffffffffffffffffffffffffffffffff1681526020019081526020016000205490506000601d60006a010000000000000000000373ffffffffffffffffffffffffffffffffffffffff1673ffffffffffffffffffffffffffffffffffffffff16815260200190815260200160002060003373ffffffffffffffffffffffffffffffffffffffff1673ffffffffffffffffffffffffffffffffffffffff16815260200190815260200160002081905550806012600082825461268e919061546a565b92505081905550601f60003373ffffffffffffffffffffffffffffffffffffffff1673ffffffffffffffffffffffffffffffffffffffff16815260200190815260200160002054601960008282546126e6919061546a565b92505081905550602060003373ffffffffffffffffffffffffffffffffffffffff1673ffffffffffffffffffffffffffffffffffffffff16815260200190815260200160002054601a600082825461273e919061546a565b925050819055506000601f60003373ffffffffffffffffffffffffffffffffffffffff1673ffffffffffffffffffffffffffffffffffffffff168152602001908152602001600020819055506000602060003373ffffffffffffffffffffffffffffffffffffffff1673ffffffffffffffffffffffffffffffffffffffff168152602001908152602001600020819055506000602160003373ffffffffffffffffffffffffffffffffffffffff1673ffffffffffffffffffffffffffffffffffffffff168152602001908152602001600020819055506000600367ffffffffffffffff811115612857577f4e487b7100000000000000000000000000000000000000000000000000000000600052604160045260246000fd5b6040519080825280602002602001820160405280156128855781602001602082028036833780820191505090505b5090506a0100000000000000000003816000815181106128ce577f4e487b7100000000000000000000000000000000000000000000000000000000600052603260045260246000fd5b602002602001019073ffffffffffffffffffffffffffffffffffffffff16908173ffffffffffffffffffffffffffffffffffffffff16815250506a01000000000000000000018160018151811061294e577f4e487b7100000000000000000000000000000000000000000000000000000000600052603260045260246000fd5b602002602001019073ffffffffffffffffffffffffffffffffffffffff16908173ffffffffffffffffffffffffffffffffffffffff16815250506a0100000000000000000002816002815181106129ce577f4e487b7100000000000000000000000000000000000000000000000000000000600052603260045260246000fd5b602002602001019073ffffffffffffffffffffffffffffffffffffffff16908173ffffffffffffffffffffffffffffffffffffffff16815250506000600560009054906101000a900473ffffffffffffffffffffffffffffffffffffffff1673ffffffffffffffffffffffffffffffffffffffff16634d60beb183856040518363ffffffff1660e01b8152600401612a67929190614f81565b60206040518083038186803b158015612a7f57600080fd5b505afa158015612a93573d6000803e3d6000fd5b505050506040513d601f19601f82011682018060405250810190612ab79190614a08565b9050600560009054906101000a900473ffffffffffffffffffffffffffffffffffffffff1673ffffffffffffffffffffffffffffffffffffffff16636fc4b4e5838560016040518463ffffffff1660e01b8152600401612b1993929190614fb1565b602060405180830381600087803b158015612b3357600080fd5b505af1158015612b47573d6000803e3d6000fd5b505050506040513d601f19601f82011682018060405250810190612b6b9190614975565b612baa576040517f08c379a0000000000000000000000000000000000000000000000000000000008152600401612ba1906151ec565b60405180910390fd5b600860009054906101000a900473ffffffffffffffffffffffffffffffffffffffff1673ffffffffffffffffffffffffffffffffffffffff1663a9059cbb33836040518363ffffffff1660e01b8152600401612c07929190614f58565b602060405180830381600087803b158015612c2157600080fd5b505af1158015612c35573d6000803e3d6000fd5b505050506040513d601f19601f82011682018060405250810190612c599190614975565b506000601c60003373ffffffffffffffffffffffffffffffffffffffff1673ffffffffffffffffffffffffffffffffffffffff16815260200190815260200160002060006101000a81548160ff02191690831515021790555060006001601b80549050612cc6919061546a565b905060005b818111612edb57601b8181548110612d0c577f4e487b7100000000000000000000000000000000000000000000000000000000600052603260045260246000fd5b9060005260206000200160009054906101000a900473ffffffffffffffffffffffffffffffffffffffff1673ffffffffffffffffffffffffffffffffffffffff163373ffffffffffffffffffffffffffffffffffffffff161415612ec85781811015612e5a57601b8281548110612dac577f4e487b7100000000000000000000000000000000000000000000000000000000600052603260045260246000fd5b9060005260206000200160009054906101000a900473ffffffffffffffffffffffffffffffffffffffff16601b8281548110612e11577f4e487b7100000000000000000000000000000000000000000000000000000000600052603260045260246000fd5b9060005260206000200160006101000a81548173ffffffffffffffffffffffffffffffffffffffff021916908373ffffffffffffffffffffffffffffffffffffffff1602179055505b601b805480612e92577f4e487b7100000000000000000000000000000000000000000000000000000000600052603160045260246000fd5b6001900381819060005260206000200160006101000a81549073ffffffffffffffffffffffffffffffffffffffff021916905590555b8080612ed3906155d1565b915050612ccb565b505050505050565b6a01000000000000000000ab81565b6a010000000000000000001481565b61080081565b6000600160008473ffffffffffffffffffffffffffffffffffffffff1673ffffffffffffffffffffffffffffffffffffffff16815260200190815260200160002060008373ffffffffffffffffffffffffffffffffffffffff1673ffffffffffffffffffffffffffffffffffffffff16815260200190815260200160002054905092915050565b6a020000000003000000000181565b600c5481565b60115481565b61080181565b6a01000000000000000000a881565b600860009054906101000a900473ffffffffffffffffffffffffffffffffffffffff1673ffffffffffffffffffffffffffffffffffffffff1663dd62ed3e33306040518363ffffffff1660e01b815260040161301b929190614e90565b60206040518083038186803b15801561303357600080fd5b505afa158015613047573d6000803e3d6000fd5b505050506040513d601f19601f8201168201806040525081019061306b9190614a08565b821115801561307a5750606482115b6130b9576040517f08c379a00000000000000000000000000000000000000000000000000000000081526004016130b09061520c565b60405180910390fd5b60648111156130fd576040517f08c379a00000000000000000000000000000000000000000000000000000000081526004016130f49061522c565b60405180910390fd5b601c60003373ffffffffffffffffffffffffffffffffffffffff1673ffffffffffffffffffffffffffffffffffffffff16815260200190815260200160002060009054906101000a900460ff1661324e576001601c60003373ffffffffffffffffffffffffffffffffffffffff1673ffffffffffffffffffffffffffffffffffffffff16815260200190815260200160002060006101000a81548160ff021916908315150217905550601b339080600181540180825580915050600190039060005260206000200160009091909190916101000a81548173ffffffffffffffffffffffffffffffffffffffff021916908373ffffffffffffffffffffffffffffffffffffffff16021790555080601e60003373ffffffffffffffffffffffffffffffffffffffff1673ffffffffffffffffffffffffffffffffffffffff168152602001908152602001600020819055505b600860009054906101000a900473ffffffffffffffffffffffffffffffffffffffff1673ffffffffffffffffffffffffffffffffffffffff166323b872dd3330856040518463ffffffff1660e01b81526004016132ad93929190614eb9565b602060405180830381600087803b1580156132c757600080fd5b505af11580156132db573d6000803e3d6000fd5b505050506040513d601f19601f820116820180604052508101906132ff9190614975565b5081601d60006a010000000000000000000273ffffffffffffffffffffffffffffffffffffffff1673ffffffffffffffffffffffffffffffffffffffff16815260200190815260200160002060003373ffffffffffffffffffffffffffffffffffffffff1673ffffffffffffffffffffffffffffffffffffffff16815260200190815260200160002060008282546133979190615389565b925050819055506133a833836142d2565b81601d60003073ffffffffffffffffffffffffffffffffffffffff1673ffffffffffffffffffffffffffffffffffffffff16815260200190815260200160002060003373ffffffffffffffffffffffffffffffffffffffff1673ffffffffffffffffffffffffffffffffffffffff16815260200190815260200160002060008282546134349190615389565b925050819055505050565b60105481565b6a030000000000000000000181565b600f60009054906101000a900473ffffffffffffffffffffffffffffffffffffffff1681565b6a01000000000000000000a981565b600033905090565b600073ffffffffffffffffffffffffffffffffffffffff168373ffffffffffffffffffffffffffffffffffffffff161415613501576040517f08c379a00000000000000000000000000000000000000000000000000000000081526004016134f8906151cc565b60405180910390fd5b600073ffffffffffffffffffffffffffffffffffffffff168273ffffffffffffffffffffffffffffffffffffffff161415613571576040517f08c379a0000000000000000000000000000000000000000000000000000000008152600401613568906150ac565b60405180910390fd5b80600160008573ffffffffffffffffffffffffffffffffffffffff1673ffffffffffffffffffffffffffffffffffffffff16815260200190815260200160002060008473ffffffffffffffffffffffffffffffffffffffff1673ffffffffffffffffffffffffffffffffffffffff168152602001908152602001600020819055508173ffffffffffffffffffffffffffffffffffffffff168373ffffffffffffffffffffffffffffffffffffffff167f8c5be1e5ebec7d5bd14f71427d1e84f3dd0314c0f7b2291e5b200ac8c7c3b9258360405161364f919061528c565b60405180910390a3505050565b3073ffffffffffffffffffffffffffffffffffffffff163373ffffffffffffffffffffffffffffffffffffffff1614806136e35750600f60009054906101000a900473ffffffffffffffffffffffffffffffffffffffff1673ffffffffffffffffffffffffffffffffffffffff163373ffffffffffffffffffffffffffffffffffffffff16145b613722576040517f08c379a00000000000000000000000000000000000000000000000000000000081526004016137199061516c565b60405180910390fd5b600060158190555060006016819055506000600267ffffffffffffffff811115613775577f4e487b7100000000000000000000000000000000000000000000000000000000600052604160045260246000fd5b6040519080825280602002602001820160405280156137a35781602001602082028036833780820191505090505b5090506a0100000000000000000003816000815181106137ec577f4e487b7100000000000000000000000000000000000000000000000000000000600052603260045260246000fd5b602002602001019073ffffffffffffffffffffffffffffffffffffffff16908173ffffffffffffffffffffffffffffffffffffffff16815250506a01000000000000000000018160018151811061386c577f4e487b7100000000000000000000000000000000000000000000000000000000600052603260045260246000fd5b602002602001019073ffffffffffffffffffffffffffffffffffffffff16908173ffffffffffffffffffffffffffffffffffffffff1681525050600560009054906101000a900473ffffffffffffffffffffffffffffffffffffffff1673ffffffffffffffffffffffffffffffffffffffff16634d60beb182846040518363ffffffff1660e01b8152600401613903929190614f81565b60206040518083038186803b15801561391b57600080fd5b505afa15801561392f573d6000803e3d6000fd5b505050506040513d601f19601f820116820180604052508101906139539190614a08565b601581905550600560009054906101000a900473ffffffffffffffffffffffffffffffffffffffff1673ffffffffffffffffffffffffffffffffffffffff16636fc4b4e5828460016040518463ffffffff1660e01b81526004016139b993929190614fb1565b602060405180830381600087803b1580156139d357600080fd5b505af11580156139e7573d6000803e3d6000fd5b505050506040513d601f19601f82011682018060405250810190613a0b9190614975565b613a4a576040517f08c379a0000000000000000000000000000000000000000000000000000000008152600401613a419061508c565b60405180910390fd5b6000601a541115613ddc57612710601554613a636115cf565b612710601a54613a739190615410565b613a7d91906153df565b613a879190615410565b613a9191906153df565b60148190555060006014541115613ddb576000600267ffffffffffffffff811115613ae5577f4e487b7100000000000000000000000000000000000000000000000000000000600052604160045260246000fd5b604051908082528060200260200182016040528015613b135781602001602082028036833780820191505090505b5090506a010000000000000000000181600081518110613b5c577f4e487b7100000000000000000000000000000000000000000000000000000000600052603260045260246000fd5b602002602001019073ffffffffffffffffffffffffffffffffffffffff16908173ffffffffffffffffffffffffffffffffffffffff16815250506a010000000000000000000081600181518110613bdc577f4e487b7100000000000000000000000000000000000000000000000000000000600052603260045260246000fd5b602002602001019073ffffffffffffffffffffffffffffffffffffffff16908173ffffffffffffffffffffffffffffffffffffffff1681525050600560009054906101000a900473ffffffffffffffffffffffffffffffffffffffff1673ffffffffffffffffffffffffffffffffffffffff16634d60beb1826014546040518363ffffffff1660e01b8152600401613c75929190614f81565b60206040518083038186803b158015613c8d57600080fd5b505afa158015613ca1573d6000803e3d6000fd5b505050506040513d601f19601f82011682018060405250810190613cc59190614a08565b601681905550600560009054906101000a900473ffffffffffffffffffffffffffffffffffffffff1673ffffffffffffffffffffffffffffffffffffffff16636fc4b4e58260145460016040518463ffffffff1660e01b8152600401613d2d93929190614fb1565b602060405180830381600087803b158015613d4757600080fd5b505af1158015613d5b573d6000803e3d6000fd5b505050506040513d601f19601f82011682018060405250810190613d7f9190614975565b613dbe576040517f08c379a0000000000000000000000000000000000000000000000000000000008152600401613db59061514c565b60405180910390fd5b60145460156000828254613dd2919061546a565b92505081905550505b5b613dea601554601654614432565b5050565b6000613dfa8484612f07565b90507fffffffffffffffffffffffffffffffffffffffffffffffffffffffffffffffff8114613e745781811015613e66576040517f08c379a0000000000000000000000000000000000000000000000000000000008152600401613e5d906150cc565b60405180910390fd5b613e738484848403613491565b5b50505050565b600073ffffffffffffffffffffffffffffffffffffffff168373ffffffffffffffffffffffffffffffffffffffff161415613eea576040517f08c379a0000000000000000000000000000000000000000000000000000000008152600401613ee1906151ac565b60405180910390fd5b600073ffffffffffffffffffffffffffffffffffffffff168273ffffffffffffffffffffffffffffffffffffffff161415613f5a576040517f08c379a0000000000000000000000000000000000000000000000000000000008152600401613f519061504c565b60405180910390fd5b613f658383836147bf565b60008060008573ffffffffffffffffffffffffffffffffffffffff1673ffffffffffffffffffffffffffffffffffffffff16815260200190815260200160002054905081811015613feb576040517f08c379a0000000000000000000000000000000000000000000000000000000008152600401613fe29061510c565b60405180910390fd5b8181036000808673ffffffffffffffffffffffffffffffffffffffff1673ffffffffffffffffffffffffffffffffffffffff16815260200190815260200160002081905550816000808573ffffffffffffffffffffffffffffffffffffffff1673ffffffffffffffffffffffffffffffffffffffff168152602001908152602001600020600082825461407e9190615389565b925050819055508273ffffffffffffffffffffffffffffffffffffffff168473ffffffffffffffffffffffffffffffffffffffff167fddf252ad1be2c89b69c2b068fc378daa952ba7f163c4a11628f55a4df523b3ef846040516140e2919061528c565b60405180910390a36140f58484846147c4565b50505050565b600073ffffffffffffffffffffffffffffffffffffffff168273ffffffffffffffffffffffffffffffffffffffff16141561416b576040517f08c379a00000000000000000000000000000000000000000000000000000000081526004016141629061518c565b60405180910390fd5b614177826000836147bf565b60008060008473ffffffffffffffffffffffffffffffffffffffff1673ffffffffffffffffffffffffffffffffffffffff168152602001908152602001600020549050818110156141fd576040517f08c379a00000000000000000000000000000000000000000000000000000000081526004016141f49061506c565b60405180910390fd5b8181036000808573ffffffffffffffffffffffffffffffffffffffff1673ffffffffffffffffffffffffffffffffffffffff168152602001908152602001600020819055508160026000828254614254919061546a565b92505081905550600073ffffffffffffffffffffffffffffffffffffffff168373ffffffffffffffffffffffffffffffffffffffff167fddf252ad1be2c89b69c2b068fc378daa952ba7f163c4a11628f55a4df523b3ef846040516142b9919061528c565b60405180910390a36142cd836000846147c4565b505050565b600073ffffffffffffffffffffffffffffffffffffffff168273ffffffffffffffffffffffffffffffffffffffff161415614342576040517f08c379a00000000000000000000000000000000000000000000000000000000081526004016143399061526c565b60405180910390fd5b61434e600083836147bf565b80600260008282546143609190615389565b92505081905550806000808473ffffffffffffffffffffffffffffffffffffffff1673ffffffffffffffffffffffffffffffffffffffff16815260200190815260200160002060008282546143b59190615389565b925050819055508173ffffffffffffffffffffffffffffffffffffffff16600073ffffffffffffffffffffffffffffffffffffffff167fddf252ad1be2c89b69c2b068fc378daa952ba7f163c4a11628f55a4df523b3ef8360405161441a919061528c565b60405180910390a361442e600083836147c4565b5050565b60005b6001601b80549050614447919061546a565b81116147ba576000601b8281548110614489577f4e487b7100000000000000000000000000000000000000000000000000000000600052603260045260246000fd5b9060005260206000200160009054906101000a900473ffffffffffffffffffffffffffffffffffffffff169050600060195411801561450757506000601f60008373ffffffffffffffffffffffffffffffffffffffff1673ffffffffffffffffffffffffffffffffffffffff16815260200190815260200160002054115b80156145135750600084115b1561462e57600061271085601954612710601f60008773ffffffffffffffffffffffffffffffffffffffff1673ffffffffffffffffffffffffffffffffffffffff1681526020019081526020016000205461456e9190615410565b61457891906153df565b6145829190615410565b61458c91906153df565b905080601d60006a010000000000000000000173ffffffffffffffffffffffffffffffffffffffff1673ffffffffffffffffffffffffffffffffffffffff16815260200190815260200160002060008473ffffffffffffffffffffffffffffffffffffffff1673ffffffffffffffffffffffffffffffffffffffff16815260200190815260200160002060008282546146259190615389565b92505081905550505b6000601a5411801561467f57506000602060008373ffffffffffffffffffffffffffffffffffffffff1673ffffffffffffffffffffffffffffffffffffffff16815260200190815260200160002054115b801561468b5750600083115b156147a657600061271084601a54612710602060008773ffffffffffffffffffffffffffffffffffffffff1673ffffffffffffffffffffffffffffffffffffffff168152602001908152602001600020546146e69190615410565b6146f091906153df565b6146fa9190615410565b61470491906153df565b905080601d60006a010000000000000000000073ffffffffffffffffffffffffffffffffffffffff1673ffffffffffffffffffffffffffffffffffffffff16815260200190815260200160002060008473ffffffffffffffffffffffffffffffffffffffff1673ffffffffffffffffffffffffffffffffffffffff168152602001908152602001600020600082825461479d9190615389565b92505081905550505b5080806147b2906155d1565b915050614435565b505050565b505050565b505050565b60006147dc6147d7846152e7565b6152c2565b9050828152602081018484840111156147f457600080fd5b6147ff84828561553b565b509392505050565b60008135905061481681615b6e565b92915050565b60008151905061482b81615b85565b92915050565b600082601f83011261484257600080fd5b81516148528482602086016147c9565b91505092915050565b60008135905061486a81615b9c565b92915050565b60008151905061487f81615b9c565b92915050565b60006020828403121561489757600080fd5b60006148a584828501614807565b91505092915050565b600080604083850312156148c157600080fd5b60006148cf85828601614807565b92505060206148e085828601614807565b9150509250929050565b6000806000606084860312156148ff57600080fd5b600061490d86828701614807565b935050602061491e86828701614807565b925050604061492f8682870161485b565b9150509250925092565b6000806040838503121561494c57600080fd5b600061495a85828601614807565b925050602061496b8582860161485b565b9150509250929050565b60006020828403121561498757600080fd5b60006149958482850161481c565b91505092915050565b6000602082840312156149b057600080fd5b600082015167ffffffffffffffff8111156149ca57600080fd5b6149d684828501614831565b91505092915050565b6000602082840312156149f157600080fd5b60006149ff8482850161485b565b91505092915050565b600060208284031215614a1a57600080fd5b6000614a2884828501614870565b91505092915050565b60008060408385031215614a4457600080fd5b6000614a528582860161485b565b9250506020614a638582860161485b565b9150509250929050565b6000614a798383614a85565b60208301905092915050565b614a8e8161549e565b82525050565b614a9d8161549e565b82525050565b6000614aae82615328565b614ab88185615356565b9350614ac383615318565b8060005b83811015614af4578151614adb8882614a6d565b9750614ae683615349565b925050600181019050614ac7565b5085935050505092915050565b614b0a816154b0565b82525050565b6000614b1b82615333565b614b258185615367565b9350614b3581856020860161553b565b614b3e816156d6565b840191505092915050565b614b52816154f3565b82525050565b614b6181615505565b82525050565b614b7081615517565b82525050565b614b7f81615529565b82525050565b6000614b908261533e565b614b9a8185615378565b9350614baa81856020860161553b565b614bb3816156d6565b840191505092915050565b6000614bcb600f83615378565b9150614bd6826156e7565b602082019050919050565b6000614bee602383615378565b9150614bf982615710565b604082019050919050565b6000614c11602283615378565b9150614c1c8261575f565b604082019050919050565b6000614c34601d83615378565b9150614c3f826157ae565b602082019050919050565b6000614c57602283615378565b9150614c62826157d7565b604082019050919050565b6000614c7a601d83615378565b9150614c8582615826565b602082019050919050565b6000614c9d602583615378565b9150614ca88261584f565b604082019050919050565b6000614cc0602683615378565b9150614ccb8261589e565b604082019050919050565b6000614ce3601583615378565b9150614cee826158ed565b602082019050919050565b6000614d06601c83615378565b9150614d1182615916565b602082019050919050565b6000614d29602083615378565b9150614d348261593f565b602082019050919050565b6000614d4c602183615378565b9150614d5782615968565b604082019050919050565b6000614d6f602583615378565b9150614d7a826159b7565b604082019050919050565b6000614d92602483615378565b9150614d9d82615a06565b604082019050919050565b6000614db5601c83615378565b9150614dc082615a55565b602082019050919050565b6000614dd8602283615378565b9150614de382615a7e565b604082019050919050565b6000614dfb601783615378565b9150614e0682615acd565b602082019050919050565b6000614e1e602583615378565b9150614e2982615af6565b604082019050919050565b6000614e41601f83615378565b9150614e4c82615b45565b602082019050919050565b614e60816154dc565b82525050565b614e6f816154e6565b82525050565b6000602082019050614e8a6000830184614a94565b92915050565b6000604082019050614ea56000830185614a94565b614eb26020830184614a94565b9392505050565b6000606082019050614ece6000830186614a94565b614edb6020830185614a94565b614ee86040830184614e57565b949350505050565b600060c082019050614f056000830189614a94565b614f126020830188614b49565b614f1f6040830187614b58565b614f2c6060830186614b76565b614f396080830185614e57565b81810360a0830152614f4b8184614b10565b9050979650505050505050565b6000604082019050614f6d6000830185614a94565b614f7a6020830184614e57565b9392505050565b60006040820190508181036000830152614f9b8185614aa3565b9050614faa6020830184614e57565b9392505050565b60006060820190508181036000830152614fcb8186614aa3565b9050614fda6020830185614e57565b614fe76040830184614b67565b949350505050565b60006020820190506150046000830184614b01565b92915050565b600060208201905081810360008301526150248184614b85565b905092915050565b6000602082019050818103600083015261504581614bbe565b9050919050565b6000602082019050818103600083015261506581614be1565b9050919050565b6000602082019050818103600083015261508581614c04565b9050919050565b600060208201905081810360008301526150a581614c27565b9050919050565b600060208201905081810360008301526150c581614c4a565b9050919050565b600060208201905081810360008301526150e581614c6d565b9050919050565b6000602082019050818103600083015261510581614c90565b9050919050565b6000602082019050818103600083015261512581614cb3565b9050919050565b6000602082019050818103600083015261514581614cd6565b9050919050565b6000602082019050818103600083015261516581614cf9565b9050919050565b6000602082019050818103600083015261518581614d1c565b9050919050565b600060208201905081810360008301526151a581614d3f565b9050919050565b600060208201905081810360008301526151c581614d62565b9050919050565b600060208201905081810360008301526151e581614d85565b9050919050565b6000602082019050818103600083015261520581614da8565b9050919050565b6000602082019050818103600083015261522581614dcb565b9050919050565b6000602082019050818103600083015261524581614dee565b9050919050565b6000602082019050818103600083015261526581614e11565b9050919050565b6000602082019050818103600083015261528581614e34565b9050919050565b60006020820190506152a16000830184614e57565b92915050565b60006020820190506152bc6000830184614e66565b92915050565b60006152cc6152dd565b90506152d882826155a0565b919050565b6000604051905090565b600067ffffffffffffffff821115615302576153016156a7565b5b61530b826156d6565b9050602081019050919050565b6000819050602082019050919050565b600081519050919050565b600081519050919050565b600081519050919050565b6000602082019050919050565b600082825260208201905092915050565b600082825260208201905092915050565b600082825260208201905092915050565b6000615394826154dc565b915061539f836154dc565b9250827fffffffffffffffffffffffffffffffffffffffffffffffffffffffffffffffff038211156153d4576153d361561a565b5b828201905092915050565b60006153ea826154dc565b91506153f5836154dc565b92508261540557615404615649565b5b828204905092915050565b600061541b826154dc565b9150615426836154dc565b9250817fffffffffffffffffffffffffffffffffffffffffffffffffffffffffffffffff048311821515161561545f5761545e61561a565b5b828202905092915050565b6000615475826154dc565b9150615480836154dc565b9250828210156154935761549261561a565b5b828203905092915050565b60006154a9826154bc565b9050919050565b60008115159050919050565b600073ffffffffffffffffffffffffffffffffffffffff82169050919050565b6000819050919050565b600060ff82169050919050565b60006154fe826154dc565b9050919050565b6000615510826154dc565b9050919050565b6000615522826154dc565b9050919050565b6000615534826154dc565b9050919050565b60005b8381101561555957808201518184015260208101905061553e565b83811115615568576000848401525b50505050565b6000600282049050600182168061558657607f821691505b6020821081141561559a57615599615678565b5b50919050565b6155a9826156d6565b810181811067ffffffffffffffff821117156155c8576155c76156a7565b5b80604052505050565b60006155dc826154dc565b91507fffffffffffffffffffffffffffffffffffffffffffffffffffffffffffffffff82141561560f5761560e61561a565b5b600182019050919050565b7f4e487b7100000000000000000000000000000000000000000000000000000000600052601160045260246000fd5b7f4e487b7100000000000000000000000000000000000000000000000000000000600052601260045260246000fd5b7f4e487b7100000000000000000000000000000000000000000000000000000000600052602260045260246000fd5b7f4e487b7100000000000000000000000000000000000000000000000000000000600052604160045260246000fd5b6000601f19601f8301169050919050565b7f486f6d61204d696e74204572726f720000000000000000000000000000000000600082015250565b7f45524332303a207472616e7366657220746f20746865207a65726f206164647260008201527f6573730000000000000000000000000000000000000000000000000000000000602082015250565b7f45524332303a206275726e20616d6f756e7420657863656564732062616c616e60008201527f6365000000000000000000000000000000000000000000000000000000000000602082015250565b7f5377617070696e67204c444f5420666f722041555344206661696c6564000000600082015250565b7f45524332303a20617070726f766520746f20746865207a65726f20616464726560008201527f7373000000000000000000000000000000000000000000000000000000000000602082015250565b7f45524332303a20696e73756666696369656e7420616c6c6f77616e6365000000600082015250565b7f6e6f7420656e6f75676820737472617465677920746f6b656e7320746f20756e60008201527f7374616b65000000000000000000000000000000000000000000000000000000602082015250565b7f45524332303a207472616e7366657220616d6f756e742065786365656473206260008201527f616c616e63650000000000000000000000000000000000000000000000000000602082015250565b7f616374696f6e206f6e6c7920666f722061646d696e0000000000000000000000600082015250565b7f5377617070696e67204155534420666f7220414341206661696c656400000000600082015250565b7f616374696f6e206f6e6c7920666f722074686973207363206f722061646d696e600082015250565b7f45524332303a206275726e2066726f6d20746865207a65726f2061646472657360008201527f7300000000000000000000000000000000000000000000000000000000000000602082015250565b7f45524332303a207472616e736665722066726f6d20746865207a65726f20616460008201527f6472657373000000000000000000000000000000000000000000000000000000602082015250565b7f45524332303a20617070726f76652066726f6d20746865207a65726f2061646460008201527f7265737300000000000000000000000000000000000000000000000000000000602082015250565b7f5377617070696e67204c444f5420666f7220444f54206661696c656400000000600082015250565b7f636c69656e74206e6565647320746f20696e63726561736520616c6c6f77616e60008201527f6365000000000000000000000000000000000000000000000000000000000000602082015250565b7f70657263656e7441555344206578636565647320313030000000000000000000600082015250565b7f45524332303a2064656372656173656420616c6c6f77616e63652062656c6f7760008201527f207a65726f000000000000000000000000000000000000000000000000000000602082015250565b7f45524332303a206d696e7420746f20746865207a65726f206164647265737300600082015250565b615b778161549e565b8114615b8257600080fd5b50565b615b8e816154b0565b8114615b9957600080fd5b50565b615ba5816154dc565b8114615bb057600080fd5b5056fea264697066735822122086ce63bf32e18802efc7facc232cf5e842cded41244ac217d4d966536922a36d64736f6c63430008040033",
  "linkReferences": {},
  "deployedLinkReferences": {}
}