{
  "_format": "hh-sol-artifact-1",
  "contractName": "ntt54StgydotLDOT",
  "sourceName": "contracts/ntt54StgydotLDOT.sol",
  "abi": [
    {
      "inputs": [],
      "stateMutability": "nonpayable",
      "type": "constructor"
    },
    {
      "anonymous": false,
      "inputs": [
        {
          "indexed": true,
          "internalType": "address",
          "name": "owner",
          "type": "address"
        },
        {
          "indexed": true,
          "internalType": "address",
          "name": "spender",
          "type": "address"
        },
        {
          "indexed": false,
          "internalType": "uint256",
          "name": "value",
          "type": "uint256"
        }
      ],
      "name": "Approval",
      "type": "event"
    },
    {
      "anonymous": false,
      "inputs": [
        {
          "indexed": true,
          "internalType": "address",
          "name": "from",
          "type": "address"
        },
        {
          "indexed": true,
          "internalType": "address",
          "name": "to",
          "type": "address"
        },
        {
          "indexed": false,
          "internalType": "uint256",
          "name": "value",
          "type": "uint256"
        }
      ],
      "name": "Transfer",
      "type": "event"
    },
    {
      "inputs": [],
      "name": "ACA",
      "outputs": [
        {
          "internalType": "address",
          "name": "",
          "type": "address"
        }
      ],
      "stateMutability": "view",
      "type": "function"
    },
    {
      "inputs": [],
      "name": "AUSD",
      "outputs": [
        {
          "internalType": "address",
          "name": "",
          "type": "address"
        }
      ],
      "stateMutability": "view",
      "type": "function"
    },
    {
      "inputs": [],
      "name": "BNC",
      "outputs": [
        {
          "internalType": "address",
          "name": "",
          "type": "address"
        }
      ],
      "stateMutability": "view",
      "type": "function"
    },
    {
      "inputs": [],
      "name": "CASH",
      "outputs": [
        {
          "internalType": "address",
          "name": "",
          "type": "address"
        }
      ],
      "stateMutability": "view",
      "type": "function"
    },
    {
      "inputs": [],
      "name": "DEX",
      "outputs": [
        {
          "internalType": "address",
          "name": "",
          "type": "address"
        }
      ],
      "stateMutability": "view",
      "type": "function"
    },
    {
      "inputs": [],
      "name": "DOT",
      "outputs": [
        {
          "internalType": "address",
          "name": "",
          "type": "address"
        }
      ],
      "stateMutability": "view",
      "type": "function"
    },
    {
      "inputs": [],
      "name": "DOT_LDOT",
      "outputs": [
        {
          "internalType": "uint256",
          "name": "",
          "type": "uint256"
        }
      ],
      "stateMutability": "view",
      "type": "function"
    },
    {
      "inputs": [],
      "name": "EVM",
      "outputs": [
        {
          "internalType": "address",
          "name": "",
          "type": "address"
        }
      ],
      "stateMutability": "view",
      "type": "function"
    },
    {
      "inputs": [],
      "name": "EVMAccounts",
      "outputs": [
        {
          "internalType": "address",
          "name": "",
          "type": "address"
        }
      ],
      "stateMutability": "view",
      "type": "function"
    },
    {
      "inputs": [],
      "name": "Homa",
      "outputs": [
        {
          "internalType": "address",
          "name": "",
          "type": "address"
        }
      ],
      "stateMutability": "view",
      "type": "function"
    },
    {
      "inputs": [],
      "name": "Honzon",
      "outputs": [
        {
          "internalType": "address",
          "name": "",
          "type": "address"
        }
      ],
      "stateMutability": "view",
      "type": "function"
    },
    {
      "inputs": [],
      "name": "KAR",
      "outputs": [
        {
          "internalType": "address",
          "name": "",
          "type": "address"
        }
      ],
      "stateMutability": "view",
      "type": "function"
    },
    {
      "inputs": [],
      "name": "KBTC",
      "outputs": [
        {
          "internalType": "address",
          "name": "",
          "type": "address"
        }
      ],
      "stateMutability": "view",
      "type": "function"
    },
    {
      "inputs": [],
      "name": "KINT",
      "outputs": [
        {
          "internalType": "address",
          "name": "",
          "type": "address"
        }
      ],
      "stateMutability": "view",
      "type": "function"
    },
    {
      "inputs": [],
      "name": "KSM",
      "outputs": [
        {
          "internalType": "address",
          "name": "",
          "type": "address"
        }
      ],
      "stateMutability": "view",
      "type": "function"
    },
    {
      "inputs": [],
      "name": "KUSD",
      "outputs": [
        {
          "internalType": "address",
          "name": "",
          "type": "address"
        }
      ],
      "stateMutability": "view",
      "type": "function"
    },
    {
      "inputs": [],
      "name": "LCDOT",
      "outputs": [
        {
          "internalType": "address",
          "name": "",
          "type": "address"
        }
      ],
      "stateMutability": "view",
      "type": "function"
    },
    {
      "inputs": [],
      "name": "LDOT",
      "outputs": [
        {
          "internalType": "address",
          "name": "",
          "type": "address"
        }
      ],
      "stateMutability": "view",
      "type": "function"
    },
    {
      "inputs": [],
      "name": "LKSM",
      "outputs": [
        {
          "internalType": "address",
          "name": "",
          "type": "address"
        }
      ],
      "stateMutability": "view",
      "type": "function"
    },
    {
      "inputs": [],
      "name": "LP_ACA_AUSD",
      "outputs": [
        {
          "internalType": "address",
          "name": "",
          "type": "address"
        }
      ],
      "stateMutability": "view",
      "type": "function"
    },
    {
      "inputs": [],
      "name": "LP_DOT_AUSD",
      "outputs": [
        {
          "internalType": "address",
          "name": "",
          "type": "address"
        }
      ],
      "stateMutability": "view",
      "type": "function"
    },
    {
      "inputs": [],
      "name": "LP_KAR_KUSD",
      "outputs": [
        {
          "internalType": "address",
          "name": "",
          "type": "address"
        }
      ],
      "stateMutability": "view",
      "type": "function"
    },
    {
      "inputs": [],
      "name": "LP_KSM_KUSD",
      "outputs": [
        {
          "internalType": "address",
          "name": "",
          "type": "address"
        }
      ],
      "stateMutability": "view",
      "type": "function"
    },
    {
      "inputs": [],
      "name": "LP_LDOT_AUSD",
      "outputs": [
        {
          "internalType": "address",
          "name": "",
          "type": "address"
        }
      ],
      "stateMutability": "view",
      "type": "function"
    },
    {
      "inputs": [],
      "name": "LP_LKSM_KUSD",
      "outputs": [
        {
          "internalType": "address",
          "name": "",
          "type": "address"
        }
      ],
      "stateMutability": "view",
      "type": "function"
    },
    {
      "inputs": [],
      "name": "LP_RENBTC_AUSD",
      "outputs": [
        {
          "internalType": "address",
          "name": "",
          "type": "address"
        }
      ],
      "stateMutability": "view",
      "type": "function"
    },
    {
      "inputs": [],
      "name": "Oracle",
      "outputs": [
        {
          "internalType": "address",
          "name": "",
          "type": "address"
        }
      ],
      "stateMutability": "view",
      "type": "function"
    },
    {
      "inputs": [],
      "name": "PHA",
      "outputs": [
        {
          "internalType": "address",
          "name": "",
          "type": "address"
        }
      ],
      "stateMutability": "view",
      "type": "function"
    },
    {
      "inputs": [],
      "name": "RENBTC",
      "outputs": [
        {
          "internalType": "address",
          "name": "",
          "type": "address"
        }
      ],
      "stateMutability": "view",
      "type": "function"
    },
    {
      "inputs": [],
      "name": "Schedule",
      "outputs": [
        {
          "internalType": "address",
          "name": "",
          "type": "address"
        }
      ],
      "stateMutability": "view",
      "type": "function"
    },
    {
      "inputs": [],
      "name": "TAI",
      "outputs": [
        {
          "internalType": "address",
          "name": "",
          "type": "address"
        }
      ],
      "stateMutability": "view",
      "type": "function"
    },
    {
      "inputs": [],
      "name": "TAI_3USD",
      "outputs": [
        {
          "internalType": "address",
          "name": "",
          "type": "address"
        }
      ],
      "stateMutability": "view",
      "type": "function"
    },
    {
      "inputs": [],
      "name": "TAI_DOT",
      "outputs": [
        {
          "internalType": "address",
          "name": "",
          "type": "address"
        }
      ],
      "stateMutability": "view",
      "type": "function"
    },
    {
      "inputs": [],
      "name": "TAI_KSM",
      "outputs": [
        {
          "internalType": "address",
          "name": "",
          "type": "address"
        }
      ],
      "stateMutability": "view",
      "type": "function"
    },
    {
      "inputs": [],
      "name": "VSKSM",
      "outputs": [
        {
          "internalType": "address",
          "name": "",
          "type": "address"
        }
      ],
      "stateMutability": "view",
      "type": "function"
    },
    {
      "inputs": [],
      "name": "admin",
      "outputs": [
        {
          "internalType": "address",
          "name": "",
          "type": "address"
        }
      ],
      "stateMutability": "view",
      "type": "function"
    },
    {
      "inputs": [
        {
          "internalType": "address",
          "name": "owner",
          "type": "address"
        },
        {
          "internalType": "address",
          "name": "spender",
          "type": "address"
        }
      ],
      "name": "allowance",
      "outputs": [
        {
          "internalType": "uint256",
          "name": "",
          "type": "uint256"
        }
      ],
      "stateMutability": "view",
      "type": "function"
    },
    {
      "inputs": [],
      "name": "amountAUSDtoSwaptoACA",
      "outputs": [
        {
          "internalType": "uint256",
          "name": "",
          "type": "uint256"
        }
      ],
      "stateMutability": "view",
      "type": "function"
    },
    {
      "inputs": [
        {
          "internalType": "address",
          "name": "spender",
          "type": "address"
        },
        {
          "internalType": "uint256",
          "name": "amount",
          "type": "uint256"
        }
      ],
      "name": "approve",
      "outputs": [
        {
          "internalType": "bool",
          "name": "",
          "type": "bool"
        }
      ],
      "stateMutability": "nonpayable",
      "type": "function"
    },
    {
      "inputs": [
        {
          "internalType": "address",
          "name": "account",
          "type": "address"
        }
      ],
      "name": "balanceOf",
      "outputs": [
        {
          "internalType": "uint256",
          "name": "",
          "type": "uint256"
        }
      ],
      "stateMutability": "view",
      "type": "function"
    },
    {
      "inputs": [],
      "name": "claimRewards",
      "outputs": [],
      "stateMutability": "nonpayable",
      "type": "function"
    },
    {
      "inputs": [],
      "name": "decimals",
      "outputs": [
        {
          "internalType": "uint8",
          "name": "",
          "type": "uint8"
        }
      ],
      "stateMutability": "view",
      "type": "function"
    },
    {
      "inputs": [
        {
          "internalType": "address",
          "name": "spender",
          "type": "address"
        },
        {
          "internalType": "uint256",
          "name": "subtractedValue",
          "type": "uint256"
        }
      ],
      "name": "decreaseAllowance",
      "outputs": [
        {
          "internalType": "bool",
          "name": "",
          "type": "bool"
        }
      ],
      "stateMutability": "nonpayable",
      "type": "function"
    },
    {
      "inputs": [
        {
          "internalType": "uint256",
          "name": "amount",
          "type": "uint256"
        },
        {
          "internalType": "uint256",
          "name": "percentAUSD",
          "type": "uint256"
        }
      ],
      "name": "depositDOT",
      "outputs": [],
      "stateMutability": "nonpayable",
      "type": "function"
    },
    {
      "inputs": [],
      "name": "epochNumber",
      "outputs": [
        {
          "internalType": "uint256",
          "name": "",
          "type": "uint256"
        }
      ],
      "stateMutability": "view",
      "type": "function"
    },
    {
      "inputs": [],
      "name": "excessLDOTinAccount",
      "outputs": [
        {
          "internalType": "uint256",
          "name": "",
          "type": "uint256"
        }
      ],
      "stateMutability": "view",
      "type": "function"
    },
    {
      "inputs": [],
      "name": "frequency",
      "outputs": [
        {
          "internalType": "uint256",
          "name": "",
          "type": "uint256"
        }
      ],
      "stateMutability": "view",
      "type": "function"
    },
    {
      "inputs": [],
      "name": "freshACArewards",
      "outputs": [
        {
          "internalType": "uint256",
          "name": "",
          "type": "uint256"
        }
      ],
      "stateMutability": "view",
      "type": "function"
    },
    {
      "inputs": [],
      "name": "freshAUSDrewards",
      "outputs": [
        {
          "internalType": "uint256",
          "name": "",
          "type": "uint256"
        }
      ],
      "stateMutability": "view",
      "type": "function"
    },
    {
      "inputs": [],
      "name": "homaExchangeRate",
      "outputs": [
        {
          "internalType": "uint256",
          "name": "",
          "type": "uint256"
        }
      ],
      "stateMutability": "view",
      "type": "function"
    },
    {
      "inputs": [
        {
          "internalType": "address",
          "name": "spender",
          "type": "address"
        },
        {
          "internalType": "uint256",
          "name": "addedValue",
          "type": "uint256"
        }
      ],
      "name": "increaseAllowance",
      "outputs": [
        {
          "internalType": "bool",
          "name": "",
          "type": "bool"
        }
      ],
      "stateMutability": "nonpayable",
      "type": "function"
    },
    {
      "inputs": [],
      "name": "initialDOTCapitaltoLDOT",
      "outputs": [
        {
          "internalType": "uint256",
          "name": "",
          "type": "uint256"
        }
      ],
      "stateMutability": "view",
      "type": "function"
    },
    {
      "inputs": [],
      "name": "manageProceeds",
      "outputs": [],
      "stateMutability": "nonpayable",
      "type": "function"
    },
    {
      "inputs": [],
      "name": "managingProceedsState",
      "outputs": [
        {
          "internalType": "bool",
          "name": "",
          "type": "bool"
        }
      ],
      "stateMutability": "view",
      "type": "function"
    },
    {
      "inputs": [],
      "name": "name",
      "outputs": [
        {
          "internalType": "string",
          "name": "",
          "type": "string"
        }
      ],
      "stateMutability": "view",
      "type": "function"
    },
    {
      "inputs": [
        {
          "internalType": "uint256",
          "name": "excessLDOT",
          "type": "uint256"
        }
      ],
      "name": "rebalanceStrategy",
      "outputs": [],
      "stateMutability": "nonpayable",
      "type": "function"
    },
    {
      "inputs": [
        {
          "internalType": "address",
          "name": "",
          "type": "address"
        }
      ],
      "name": "registeredUserAccounts",
      "outputs": [
        {
          "internalType": "bool",
          "name": "",
          "type": "bool"
        }
      ],
      "stateMutability": "view",
      "type": "function"
    },
    {
      "inputs": [],
      "name": "stakeDOT",
      "outputs": [],
      "stateMutability": "nonpayable",
      "type": "function"
    },
    {
      "inputs": [],
      "name": "startManagingProcees",
      "outputs": [],
      "stateMutability": "nonpayable",
      "type": "function"
    },
    {
      "inputs": [],
      "name": "stopManagingProcees",
      "outputs": [],
      "stateMutability": "nonpayable",
      "type": "function"
    },
    {
      "inputs": [],
      "name": "symbol",
      "outputs": [
        {
          "internalType": "string",
          "name": "",
          "type": "string"
        }
      ],
      "stateMutability": "view",
      "type": "function"
    },
    {
      "inputs": [],
      "name": "totalACAavailableBalance",
      "outputs": [
        {
          "internalType": "uint256",
          "name": "",
          "type": "uint256"
        }
      ],
      "stateMutability": "view",
      "type": "function"
    },
    {
      "inputs": [],
      "name": "totalAUSDavailableBalance",
      "outputs": [
        {
          "internalType": "uint256",
          "name": "",
          "type": "uint256"
        }
      ],
      "stateMutability": "view",
      "type": "function"
    },
    {
      "inputs": [],
      "name": "totalSupply",
      "outputs": [
        {
          "internalType": "uint256",
          "name": "",
          "type": "uint256"
        }
      ],
      "stateMutability": "view",
      "type": "function"
    },
    {
      "inputs": [],
      "name": "total_DOTinAccount",
      "outputs": [
        {
          "internalType": "uint256",
          "name": "",
          "type": "uint256"
        }
      ],
      "stateMutability": "view",
      "type": "function"
    },
    {
      "inputs": [],
      "name": "total_LDOTinAccount",
      "outputs": [
        {
          "internalType": "uint256",
          "name": "",
          "type": "uint256"
        }
      ],
      "stateMutability": "view",
      "type": "function"
    },
    {
      "inputs": [],
      "name": "total_STGaca",
      "outputs": [
        {
          "internalType": "uint256",
          "name": "",
          "type": "uint256"
        }
      ],
      "stateMutability": "view",
      "type": "function"
    },
    {
      "inputs": [],
      "name": "total_STGausd",
      "outputs": [
        {
          "internalType": "uint256",
          "name": "",
          "type": "uint256"
        }
      ],
      "stateMutability": "view",
      "type": "function"
    },
    {
      "inputs": [
        {
          "internalType": "address",
          "name": "to",
          "type": "address"
        },
        {
          "internalType": "uint256",
          "name": "amount",
          "type": "uint256"
        }
      ],
      "name": "transfer",
      "outputs": [
        {
          "internalType": "bool",
          "name": "",
          "type": "bool"
        }
      ],
      "stateMutability": "nonpayable",
      "type": "function"
    },
    {
      "inputs": [
        {
          "internalType": "uint256",
          "name": "amount",
          "type": "uint256"
        }
      ],
      "name": "transferFeesBalance",
      "outputs": [],
      "stateMutability": "nonpayable",
      "type": "function"
    },
    {
      "inputs": [
        {
          "internalType": "address",
          "name": "from",
          "type": "address"
        },
        {
          "internalType": "address",
          "name": "to",
          "type": "address"
        },
        {
          "internalType": "uint256",
          "name": "amount",
          "type": "uint256"
        }
      ],
      "name": "transferFrom",
      "outputs": [
        {
          "internalType": "bool",
          "name": "",
          "type": "bool"
        }
      ],
      "stateMutability": "nonpayable",
      "type": "function"
    },
    {
      "inputs": [],
      "name": "unstakeAndWithdrawDOT",
      "outputs": [],
      "stateMutability": "nonpayable",
      "type": "function"
    },
    {
      "inputs": [
        {
          "internalType": "uint256",
          "name": "_frequency",
          "type": "uint256"
        }
      ],
      "name": "updateFrequency",
      "outputs": [],
      "stateMutability": "nonpayable",
      "type": "function"
    },
    {
      "inputs": [
        {
          "internalType": "uint256",
          "name": "",
          "type": "uint256"
        }
      ],
      "name": "userAccounts",
      "outputs": [
        {
          "internalType": "address",
          "name": "",
          "type": "address"
        }
      ],
      "stateMutability": "view",
      "type": "function"
    },
    {
      "inputs": [
        {
          "internalType": "address",
          "name": "",
          "type": "address"
        },
        {
          "internalType": "address",
          "name": "",
          "type": "address"
        }
      ],
      "name": "userBalances",
      "outputs": [
        {
          "internalType": "uint256",
          "name": "",
          "type": "uint256"
        }
      ],
      "stateMutability": "view",
      "type": "function"
    },
    {
      "inputs": [
        {
          "internalType": "address",
          "name": "",
          "type": "address"
        }
      ],
      "name": "userPercentAUSD",
      "outputs": [
        {
          "internalType": "uint256",
          "name": "",
          "type": "uint256"
        }
      ],
      "stateMutability": "view",
      "type": "function"
    },
    {
      "inputs": [
        {
          "internalType": "address",
          "name": "",
          "type": "address"
        }
      ],
      "name": "userSTGaca",
      "outputs": [
        {
          "internalType": "uint256",
          "name": "",
          "type": "uint256"
        }
      ],
      "stateMutability": "view",
      "type": "function"
    },
    {
      "inputs": [
        {
          "internalType": "address",
          "name": "",
          "type": "address"
        }
      ],
      "name": "userSTGausd",
      "outputs": [
        {
          "internalType": "uint256",
          "name": "",
          "type": "uint256"
        }
      ],
      "stateMutability": "view",
      "type": "function"
    },
    {
      "inputs": [
        {
          "internalType": "address",
          "name": "",
          "type": "address"
        }
      ],
      "name": "userStakedDOT",
      "outputs": [
        {
          "internalType": "uint256",
          "name": "",
          "type": "uint256"
        }
      ],
      "stateMutability": "view",
      "type": "function"
    }
  ],
  "bytecode": "0x6080604052610803600560006101000a81548173ffffffffffffffffffffffffffffffffffffffff021916908373ffffffffffffffffffffffffffffffffffffffff160217905550610802600660006101000a81548173ffffffffffffffffffffffffffffffffffffffff021916908373ffffffffffffffffffffffffffffffffffffffff160217905550610805600760006101000a81548173ffffffffffffffffffffffffffffffffffffffff021916908373ffffffffffffffffffffffffffffffffffffffff1602179055506078600c556001600d60006101000a81548160ff0219169083151502179055506000601055600060155560006016556000601755600060185560006019556000601a55600060225560006023553480156200012757600080fd5b506040518060400160405280600d81526020017f4c702053747261746567792032000000000000000000000000000000000000008152506040518060400160405280600481526020017f53544732000000000000000000000000000000000000000000000000000000008152508160039080519060200190620001ac9291906200033f565b508060049080519060200190620001c59291906200033f565b50505033600f60006101000a81548173ffffffffffffffffffffffffffffffffffffffff021916908373ffffffffffffffffffffffffffffffffffffffff1602179055506a0100000000000000000002600860006101000a81548173ffffffffffffffffffffffffffffffffffffffff021916908373ffffffffffffffffffffffffffffffffffffffff1602179055506a0100000000000000000001600960006101000a81548173ffffffffffffffffffffffffffffffffffffffff021916908373ffffffffffffffffffffffffffffffffffffffff1602179055506a0100000000000000000000600a60006101000a81548173ffffffffffffffffffffffffffffffffffffffff021916908373ffffffffffffffffffffffffffffffffffffffff1602179055506a0100000000000000000003600b60006101000a81548173ffffffffffffffffffffffffffffffffffffffff021916908373ffffffffffffffffffffffffffffffffffffffff16021790555062000454565b8280546200034d90620003ef565b90600052602060002090601f016020900481019282620003715760008555620003bd565b82601f106200038c57805160ff1916838001178555620003bd565b82800160010185558215620003bd579182015b82811115620003bc5782518255916020019190600101906200039f565b5b509050620003cc9190620003d0565b5090565b5b80821115620003eb576000816000905550600101620003d1565b5090565b600060028204905060018216806200040857607f821691505b602082108114156200041f576200041e62000425565b5b50919050565b7f4e487b7100000000000000000000000000000000000000000000000000000000600052602260045260246000fd5b615c4080620004646000396000f3fe608060405234801561001057600080fd5b50600436106104755760003560e01c806392afbebf11610257578063c5641d9b11610146578063e18b7ac5116100c3578063f364ecd111610087578063f364ecd114610da4578063f4145a8314610dc0578063f589b63d14610dde578063f851a44014610dfc578063fd45892114610e1a57610475565b8063e18b7ac514610d0e578063ead50da314610d2c578063ec857cd414610d4a578063f24a534e14610d68578063f29588c714610d8657610475565b8063d3431c1d1161010a578063d3431c1d14610c7a578063d54dc1ab14610c84578063d7f269fe14610ca2578063d9dc7fcd14610cc0578063dd62ed3e14610cde57610475565b8063c5641d9b14610bfa578063c6bd6a9a14610c18578063c84dd46614610c36578063c86a6f9714610c40578063d2c03d4914610c5e57610475565b8063adb51980116101d4578063bbfec49d11610198578063bbfec49d14610b52578063bcb4dcd814610b82578063c30054c014610ba0578063c322dfa014610bbe578063c496981514610bdc57610475565b8063adb5198014610aaa578063b0dadb7b14610ada578063b3d27bc514610af8578063b5fd3c2d14610b16578063bacbd7cc14610b3457610475565b8063a1b562261161021b578063a1b56226146109de578063a457c2d7146109fc578063a5770a5414610a2c578063a7114a9814610a4a578063a9059cbb14610a7a57610475565b806392afbebf1461093857806395d89b41146109685780639732059a1461098657806399ba0bc2146109a45780639c3a17ff146109c057610475565b80633a9c5cbc11610373578063616d5058116102f057806370a08231116102b457806370a0823114610892578063783dc03d146108c25780637b90bb1f146108e057806380935aa9146108fc57806380bd60e81461091a57610475565b8063616d5058146107ea578063669c493e1461081a57806366f98e71146108385780636b80a04c146108565780636cd83f181461087457610475565b80634b981f4b116103375780634b981f4b146107565780635d499e82146107865780635e796bf7146107a45780635fc1b632146107ae5780636022c7ab146107cc57610475565b80633a9c5cbc146106ae5780633fdeeded146106cc57806341da8653146106fc57806344e4a0801461071a5780634b5edf9c1461073857610475565b80631f92767511610401578063313ce567116103c5578063313ce5671461061a578063351f5f3d1461063857806336e0295014610656578063372500ab14610674578063395093511461067e57610475565b80631f927675146105865780631fa1f9e8146105a457806323b872dd146105ae578063280d1060146105de5780632fd7d1fd146105fc57610475565b80630bea593a116104485780630bea593a146104f057806318160ddd1461050e57806318ad37af1461052c57806318dca9ba1461054a57806319550da41461056857610475565b8063058961ad1461047a57806306fdde0314610484578063095ea7b3146104a25780630a4cad6b146104d2575b600080fd5b610482610e38565b005b61048c611511565b60405161049991906150aa565b60405180910390f35b6104bc60048036038101906104b791906149fc565b6115a3565b6040516104c9919061508f565b60405180910390f35b6104da6115c6565b6040516104e79190614f15565b60405180910390f35b6104f86115d5565b6040516105059190614f15565b60405180910390f35b6105166115e4565b604051610523919061530c565b60405180910390f35b6105346115ee565b6040516105419190614f15565b60405180910390f35b6105526115fd565b60405161055f9190614f15565b60405180910390f35b61057061160c565b60405161057d9190614f15565b60405180910390f35b61058e61161b565b60405161059b9190614f15565b60405180910390f35b6105ac61162a565b005b6105c860048036038101906105c391906149ad565b611998565b6040516105d5919061508f565b60405180910390f35b6105e66119c7565b6040516105f39190614f15565b60405180910390f35b6106046119d6565b6040516106119190614f15565b60405180910390f35b6106226119e5565b60405161062f9190615327565b60405180910390f35b6106406119ee565b60405161064d9190614f15565b60405180910390f35b61065e6119f4565b60405161066b9190614f15565b60405180910390f35b61067c611a03565b005b610698600480360381019061069391906149fc565b611dad565b6040516106a5919061508f565b60405180910390f35b6106b6611de4565b6040516106c3919061530c565b60405180910390f35b6106e660048036038101906106e19190614948565b611dea565b6040516106f3919061530c565b60405180910390f35b610704611e02565b6040516107119190614f15565b60405180910390f35b610722611e11565b60405161072f919061530c565b60405180910390f35b610740611e17565b60405161074d919061508f565b60405180910390f35b610770600480360381019061076b9190614948565b611e2a565b60405161077d919061530c565b60405180910390f35b61078e611e42565b60405161079b9190614f15565b60405180910390f35b6107ac611e51565b005b6107b6611f06565b6040516107c3919061530c565b60405180910390f35b6107d4611f0c565b6040516107e19190614f15565b60405180910390f35b61080460048036038101906107ff9190614aa2565b611f1b565b6040516108119190614f15565b60405180910390f35b610822611f5a565b60405161082f919061530c565b60405180910390f35b610840611f60565b60405161084d919061530c565b60405180910390f35b61085e611f66565b60405161086b9190614f15565b60405180910390f35b61087c611f6c565b6040516108899190614f15565b60405180910390f35b6108ac60048036038101906108a79190614948565b611f7b565b6040516108b9919061530c565b60405180910390f35b6108ca611fc3565b6040516108d79190614f15565b60405180910390f35b6108fa60048036038101906108f59190614aa2565b611fd2565b005b610904612895565b6040516109119190614f15565b60405180910390f35b61092261289b565b60405161092f9190614f15565b60405180910390f35b610952600480360381019061094d9190614948565b6128aa565b60405161095f919061508f565b60405180910390f35b6109706128ca565b60405161097d91906150aa565b60405180910390f35b61098e61295c565b60405161099b919061530c565b60405180910390f35b6109be60048036038101906109b99190614aa2565b612962565b005b6109c861296c565b6040516109d5919061530c565b60405180910390f35b6109e6612972565b6040516109f39190614f15565b60405180910390f35b610a166004803603810190610a1191906149fc565b612981565b604051610a23919061508f565b60405180910390f35b610a346129f8565b604051610a419190614f15565b60405180910390f35b610a646004803603810190610a5f9190614948565b612a07565b604051610a71919061530c565b60405180910390f35b610a946004803603810190610a8f91906149fc565b612a1e565b604051610aa1919061508f565b60405180910390f35b610ac46004803603810190610abf9190614971565b612a41565b604051610ad1919061530c565b60405180910390f35b610ae2612a66565b604051610aef9190614f15565b60405180910390f35b610b00612a6c565b604051610b0d9190614f15565b60405180910390f35b610b1e612a7b565b604051610b2b919061530c565b60405180910390f35b610b3c612a81565b604051610b499190614f15565b60405180910390f35b610b6c6004803603810190610b679190614948565b612a90565b604051610b79919061530c565b60405180910390f35b610b8a612aa8565b604051610b97919061530c565b60405180910390f35b610ba8612aae565b604051610bb59190614f15565b60405180910390f35b610bc6612abd565b604051610bd3919061530c565b60405180910390f35b610be4612ac3565b604051610bf19190614f15565b60405180910390f35b610c02612ad2565b604051610c0f919061530c565b60405180910390f35b610c20612ad8565b604051610c2d9190614f15565b60405180910390f35b610c3e612ade565b005b610c48612b8b565b604051610c55919061530c565b60405180910390f35b610c786004803603810190610c739190614aa2565b612b91565b005b610c82612c46565b005b610c8c6137bc565b604051610c999190614f15565b60405180910390f35b610caa6137cb565b604051610cb79190614f15565b60405180910390f35b610cc86137da565b604051610cd59190614f15565b60405180910390f35b610cf86004803603810190610cf39190614971565b6137e0565b604051610d05919061530c565b60405180910390f35b610d16613867565b604051610d239190614f15565b60405180910390f35b610d34613876565b604051610d41919061530c565b60405180910390f35b610d5261387c565b604051610d5f919061530c565b60405180910390f35b610d70613882565b604051610d7d9190614f15565b60405180910390f35b610d8e613888565b604051610d9b9190614f15565b60405180910390f35b610dbe6004803603810190610db99190614af4565b613897565b005b610dc8613cc8565b604051610dd5919061530c565b60405180910390f35b610de6613cce565b604051610df39190614f15565b60405180910390f35b610e04613cdd565b604051610e119190614f15565b60405180910390f35b610e22613d03565b604051610e2f9190614f15565b60405180910390f35b601d60006a010000000000000000000273ffffffffffffffffffffffffffffffffffffffff1673ffffffffffffffffffffffffffffffffffffffff16815260200190815260200160002060003373ffffffffffffffffffffffffffffffffffffffff1673ffffffffffffffffffffffffffffffffffffffff16815260200190815260200160002054602160003373ffffffffffffffffffffffffffffffffffffffff1673ffffffffffffffffffffffffffffffffffffffff16815260200190815260200160002054101561150f576000602160003373ffffffffffffffffffffffffffffffffffffffff1673ffffffffffffffffffffffffffffffffffffffff16815260200190815260200160002054601d60006a010000000000000000000273ffffffffffffffffffffffffffffffffffffffff1673ffffffffffffffffffffffffffffffffffffffff16815260200190815260200160002060003373ffffffffffffffffffffffffffffffffffffffff1673ffffffffffffffffffffffffffffffffffffffff16815260200190815260200160002054610fda91906154ea565b90506000601e60003373ffffffffffffffffffffffffffffffffffffffff1673ffffffffffffffffffffffffffffffffffffffff1681526020019081526020016000205460648361102b919061545f565b6110359190615490565b90506000818361104591906154ea565b905081601f60003373ffffffffffffffffffffffffffffffffffffffff1673ffffffffffffffffffffffffffffffffffffffff16815260200190815260200160002060008282546110969190615409565b9250508190555080602060003373ffffffffffffffffffffffffffffffffffffffff1673ffffffffffffffffffffffffffffffffffffffff1681526020019081526020016000208190555081601960008282546110f39190615409565b9250508190555080601a600082825461110c9190615409565b925050819055506000600b60009054906101000a900473ffffffffffffffffffffffffffffffffffffffff1673ffffffffffffffffffffffffffffffffffffffff166370a08231306040518263ffffffff1660e01b81526004016111709190614f15565b60206040518083038186803b15801561118857600080fd5b505afa15801561119c573d6000803e3d6000fd5b505050506040513d601f19601f820116820180604052508101906111c09190614acb565b9050600760009054906101000a900473ffffffffffffffffffffffffffffffffffffffff1673ffffffffffffffffffffffffffffffffffffffff1663a0712d68856040518263ffffffff1660e01b815260040161121d919061530c565b602060405180830381600087803b15801561123757600080fd5b505af115801561124b573d6000803e3d6000fd5b505050506040513d601f19601f8201168201806040525081019061126f9190614a38565b6112ae576040517f08c379a00000000000000000000000000000000000000000000000000000000081526004016112a5906150cc565b60405180910390fd5b6000600b60009054906101000a900473ffffffffffffffffffffffffffffffffffffffff1673ffffffffffffffffffffffffffffffffffffffff166370a08231306040518263ffffffff1660e01b815260040161130b9190614f15565b60206040518083038186803b15801561132357600080fd5b505afa158015611337573d6000803e3d6000fd5b505050506040513d601f19601f8201168201806040525081019061135b9190614acb565b90506000828261136b91906154ea565b905080601d60006a010000000000000000000373ffffffffffffffffffffffffffffffffffffffff1673ffffffffffffffffffffffffffffffffffffffff16815260200190815260200160002060003373ffffffffffffffffffffffffffffffffffffffff1673ffffffffffffffffffffffffffffffffffffffff16815260200190815260200160002060008282546114049190615409565b92505081905550856011600082825461141d9190615409565b9250508190555080601260008282546114369190615409565b92505081905550601d60006a010000000000000000000273ffffffffffffffffffffffffffffffffffffffff1673ffffffffffffffffffffffffffffffffffffffff16815260200190815260200160002060003373ffffffffffffffffffffffffffffffffffffffff1673ffffffffffffffffffffffffffffffffffffffff16815260200190815260200160002054602160003373ffffffffffffffffffffffffffffffffffffffff1673ffffffffffffffffffffffffffffffffffffffff168152602001908152602001600020819055505050505050505b565b606060038054611520906155ee565b80601f016020809104026020016040519081016040528092919081815260200182805461154c906155ee565b80156115995780601f1061156e57610100808354040283529160200191611599565b820191906000526020600020905b81548152906001019060200180831161157c57829003601f168201915b5050505050905090565b6000806115ae613d12565b90506115bb818585613d1a565b600191505092915050565b6a020000000002000000000181565b6a040000000000000000000d81565b6000600254905090565b6a010000000000000000008181565b6a020000000014000000000181565b6a01000000000000000000ac81565b6a010000000000000000008381565b3073ffffffffffffffffffffffffffffffffffffffff163373ffffffffffffffffffffffffffffffffffffffff1614806116b15750600f60009054906101000a900473ffffffffffffffffffffffffffffffffffffffff1673ffffffffffffffffffffffffffffffffffffffff163373ffffffffffffffffffffffffffffffffffffffff16145b6116f0576040517f08c379a00000000000000000000000000000000000000000000000000000000081526004016116e79061520c565b60405180910390fd5b600d60009054906101000a900460ff161561199657600760009054906101000a900473ffffffffffffffffffffffffffffffffffffffff1673ffffffffffffffffffffffffffffffffffffffff1663e6aa216c6040518163ffffffff1660e01b815260040160206040518083038186803b15801561176d57600080fd5b505afa158015611781573d6000803e3d6000fd5b505050506040513d601f19601f820116820180604052508101906117a59190614acb565b6017819055506017546b204fce5e3e250261100000006117c5919061545f565b600e81905550600e546402540be4006011546117e1919061545f565b6117eb9190615490565b60188190555060125460185410156118385760185460125461180d91906154ea565b60138190555064174876e800601354111561183757601854601281905550611836601354611fd2565b5b5b600660009054906101000a900473ffffffffffffffffffffffffffffffffffffffff1673ffffffffffffffffffffffffffffffffffffffff1663168d560d306000620f4240611388600c546040516024016040516020818303038152906040527f1fa1f9e8000000000000000000000000000000000000000000000000000000007bffffffffffffffffffffffffffffffffffffffffffffffffffffffff19166020820180517bffffffffffffffffffffffffffffffffffffffffffffffffffffffff83818316178352505050506040518763ffffffff1660e01b815260040161192796959493929190614f90565b600060405180830381600087803b15801561194157600080fd5b505af1158015611955573d6000803e3d6000fd5b505050506040513d6000823e3d601f19601f8201168201806040525081019061197e9190614a61565b5060106000815461198e90615651565b919050819055505b565b6000806119a3613d12565b90506119b0858285613ee5565b6119bb858585613f71565b60019150509392505050565b6a030000000000000000000081565b6a010000000000000000000181565b60006012905090565b61080581565b6a010000000000000000000281565b6000601d60006a010000000000000000000173ffffffffffffffffffffffffffffffffffffffff1673ffffffffffffffffffffffffffffffffffffffff16815260200190815260200160002060003373ffffffffffffffffffffffffffffffffffffffff1673ffffffffffffffffffffffffffffffffffffffff1681526020019081526020016000205490506000811115611bd6576000601d60006a010000000000000000000173ffffffffffffffffffffffffffffffffffffffff1673ffffffffffffffffffffffffffffffffffffffff16815260200190815260200160002060003373ffffffffffffffffffffffffffffffffffffffff1673ffffffffffffffffffffffffffffffffffffffff16815260200190815260200160002081905550600960009054906101000a900473ffffffffffffffffffffffffffffffffffffffff1673ffffffffffffffffffffffffffffffffffffffff1663a9059cbb33836040518363ffffffff1660e01b8152600401611b82929190614ff8565b602060405180830381600087803b158015611b9c57600080fd5b505af1158015611bb0573d6000803e3d6000fd5b505050506040513d601f19601f82011682018060405250810190611bd49190614a38565b505b6000601d60006a010000000000000000000073ffffffffffffffffffffffffffffffffffffffff1673ffffffffffffffffffffffffffffffffffffffff16815260200190815260200160002060003373ffffffffffffffffffffffffffffffffffffffff1673ffffffffffffffffffffffffffffffffffffffff1681526020019081526020016000205490506000811115611da9576000601d60006a010000000000000000000073ffffffffffffffffffffffffffffffffffffffff1673ffffffffffffffffffffffffffffffffffffffff16815260200190815260200160002060003373ffffffffffffffffffffffffffffffffffffffff1673ffffffffffffffffffffffffffffffffffffffff16815260200190815260200160002081905550600a60009054906101000a900473ffffffffffffffffffffffffffffffffffffffff1673ffffffffffffffffffffffffffffffffffffffff1663a9059cbb33836040518363ffffffff1660e01b8152600401611d55929190614ff8565b602060405180830381600087803b158015611d6f57600080fd5b505af1158015611d83573d6000803e3d6000fd5b505050506040513d601f19601f82011682018060405250810190611da79190614a38565b505b5050565b600080611db8613d12565b9050611dd9818585611dca85896137e0565b611dd49190615409565b613d1a565b600191505092915050565b60135481565b601e6020528060005260406000206000915090505481565b6a030000000000000000000081565b60165481565b600d60009054906101000a900460ff1681565b601f6020528060005260406000206000915090505481565b6a020000000082000000008181565b600f60009054906101000a900473ffffffffffffffffffffffffffffffffffffffff1673ffffffffffffffffffffffffffffffffffffffff163373ffffffffffffffffffffffffffffffffffffffff1614611ee1576040517f08c379a0000000000000000000000000000000000000000000000000000000008152600401611ed8906151cc565b60405180910390fd5b6001600d60006101000a81548160ff021916908315150217905550611f0461162a565b565b60145481565b6a010000000000000000000381565b601b8181548110611f2b57600080fd5b906000526020600020016000915054906101000a900473ffffffffffffffffffffffffffffffffffffffff1681565b601a5481565b60155481565b61080681565b6a01000000000000000000aa81565b60008060008373ffffffffffffffffffffffffffffffffffffffff1673ffffffffffffffffffffffffffffffffffffffff168152602001908152602001600020549050919050565b6a010000000000000000008481565b6000600960009054906101000a900473ffffffffffffffffffffffffffffffffffffffff1673ffffffffffffffffffffffffffffffffffffffff166370a08231306040518263ffffffff1660e01b815260040161202f9190614f15565b60206040518083038186803b15801561204757600080fd5b505afa15801561205b573d6000803e3d6000fd5b505050506040513d601f19601f8201168201806040525081019061207f9190614acb565b90506000600a60009054906101000a900473ffffffffffffffffffffffffffffffffffffffff1673ffffffffffffffffffffffffffffffffffffffff166370a08231306040518263ffffffff1660e01b81526004016120de9190614f15565b60206040518083038186803b1580156120f657600080fd5b505afa15801561210a573d6000803e3d6000fd5b505050506040513d601f19601f8201168201806040525081019061212e9190614acb565b9050600060158190555060006016819055506000600267ffffffffffffffff811115612183577f4e487b7100000000000000000000000000000000000000000000000000000000600052604160045260246000fd5b6040519080825280602002602001820160405280156121b15781602001602082028036833780820191505090505b5090506a0100000000000000000003816000815181106121fa577f4e487b7100000000000000000000000000000000000000000000000000000000600052603260045260246000fd5b602002602001019073ffffffffffffffffffffffffffffffffffffffff16908173ffffffffffffffffffffffffffffffffffffffff16815250506a01000000000000000000018160018151811061227a577f4e487b7100000000000000000000000000000000000000000000000000000000600052603260045260246000fd5b602002602001019073ffffffffffffffffffffffffffffffffffffffff16908173ffffffffffffffffffffffffffffffffffffffff1681525050600560009054906101000a900473ffffffffffffffffffffffffffffffffffffffff1673ffffffffffffffffffffffffffffffffffffffff16636fc4b4e5828660016040518463ffffffff1660e01b815260040161231493929190615051565b602060405180830381600087803b15801561232e57600080fd5b505af1158015612342573d6000803e3d6000fd5b505050506040513d601f19601f820116820180604052508101906123669190614a38565b6123a5576040517f08c379a000000000000000000000000000000000000000000000000000000000815260040161239c9061512c565b60405180910390fd5b6000601a5411156127c55782600960009054906101000a900473ffffffffffffffffffffffffffffffffffffffff1673ffffffffffffffffffffffffffffffffffffffff166370a08231306040518263ffffffff1660e01b815260040161240c9190614f15565b60206040518083038186803b15801561242457600080fd5b505afa158015612438573d6000803e3d6000fd5b505050506040513d601f19601f8201168201806040525081019061245c9190614acb565b61246691906154ea565b6015819055506124746115e4565b601554601a546124849190615490565b61248e919061545f565b601481905550600060145411156127c4576000600267ffffffffffffffff8111156124e2577f4e487b7100000000000000000000000000000000000000000000000000000000600052604160045260246000fd5b6040519080825280602002602001820160405280156125105781602001602082028036833780820191505090505b5090506a010000000000000000000181600081518110612559577f4e487b7100000000000000000000000000000000000000000000000000000000600052603260045260246000fd5b602002602001019073ffffffffffffffffffffffffffffffffffffffff16908173ffffffffffffffffffffffffffffffffffffffff16815250506a0100000000000000000000816001815181106125d9577f4e487b7100000000000000000000000000000000000000000000000000000000600052603260045260246000fd5b602002602001019073ffffffffffffffffffffffffffffffffffffffff16908173ffffffffffffffffffffffffffffffffffffffff1681525050600560009054906101000a900473ffffffffffffffffffffffffffffffffffffffff1673ffffffffffffffffffffffffffffffffffffffff16636fc4b4e58260145460016040518463ffffffff1660e01b815260040161267593929190615051565b602060405180830381600087803b15801561268f57600080fd5b505af11580156126a3573d6000803e3d6000fd5b505050506040513d601f19601f820116820180604052508101906126c79190614a38565b612706576040517f08c379a00000000000000000000000000000000000000000000000000000000081526004016126fd906151ec565b60405180910390fd5b82600a60009054906101000a900473ffffffffffffffffffffffffffffffffffffffff1673ffffffffffffffffffffffffffffffffffffffff166370a08231306040518263ffffffff1660e01b81526004016127629190614f15565b60206040518083038186803b15801561277a57600080fd5b505afa15801561278e573d6000803e3d6000fd5b505050506040513d601f19601f820116820180604052508101906127b29190614acb565b6127bc91906154ea565b601681905550505b5b82600960009054906101000a900473ffffffffffffffffffffffffffffffffffffffff1673ffffffffffffffffffffffffffffffffffffffff166370a08231306040518263ffffffff1660e01b81526004016128219190614f15565b60206040518083038186803b15801561283957600080fd5b505afa15801561284d573d6000803e3d6000fd5b505050506040513d601f19601f820116820180604052508101906128719190614acb565b61287b91906154ea565b60158190555061288f6015546016546141f2565b50505050565b61080381565b6a020000000080000000008181565b601c6020528060005260406000206000915054906101000a900460ff1681565b6060600480546128d9906155ee565b80601f0160208091040260200160405190810160405280929190818152602001828054612905906155ee565b80156129525780601f1061292757610100808354040283529160200191612952565b820191906000526020600020905b81548152906001019060200180831161293557829003601f168201915b5050505050905090565b600e5481565b80600c8190555050565b60125481565b6a010000000000000000000081565b60008061298c613d12565b9050600061299a82866137e0565b9050838110156129df576040517f08c379a00000000000000000000000000000000000000000000000000000000081526004016129d6906152cc565b60405180910390fd5b6129ec8286868403613d1a565b60019250505092915050565b6a020000000000000000000181565b602080528060005260406000206000915090505481565b600080612a29613d12565b9050612a36818585613f71565b600191505092915050565b601d602052816000526040600020602052806000526040600020600091509150505481565b61080281565b6a010000000000000000008081565b60235481565b6a020000000083000000008181565b60216020528060005260406000206000915090505481565b60185481565b6a010000000000000000008281565b60175481565b6a010000000000000000001581565b60195481565b61080781565b600f60009054906101000a900473ffffffffffffffffffffffffffffffffffffffff1673ffffffffffffffffffffffffffffffffffffffff163373ffffffffffffffffffffffffffffffffffffffff1614612b6e576040517f08c379a0000000000000000000000000000000000000000000000000000000008152600401612b65906151cc565b60405180910390fd5b6000600d60006101000a81548160ff021916908315150217905550565b60225481565b600a60009054906101000a900473ffffffffffffffffffffffffffffffffffffffff1673ffffffffffffffffffffffffffffffffffffffff166323b872dd3330846040518463ffffffff1660e01b8152600401612bf093929190614f59565b602060405180830381600087803b158015612c0a57600080fd5b505af1158015612c1e573d6000803e3d6000fd5b505050506040513d601f19601f82011682018060405250810190612c429190614a38565b5050565b6000601d60003073ffffffffffffffffffffffffffffffffffffffff1673ffffffffffffffffffffffffffffffffffffffff16815260200190815260200160002060003373ffffffffffffffffffffffffffffffffffffffff1673ffffffffffffffffffffffffffffffffffffffff16815260200190815260200160002054905060008111612d0a576040517f08c379a0000000000000000000000000000000000000000000000000000000008152600401612d019061518c565b60405180910390fd5b6000601d60003073ffffffffffffffffffffffffffffffffffffffff1673ffffffffffffffffffffffffffffffffffffffff16815260200190815260200160002060003373ffffffffffffffffffffffffffffffffffffffff1673ffffffffffffffffffffffffffffffffffffffff16815260200190815260200160002081905550612d96338261454b565b6000601d60006a010000000000000000000273ffffffffffffffffffffffffffffffffffffffff1673ffffffffffffffffffffffffffffffffffffffff16815260200190815260200160002060003373ffffffffffffffffffffffffffffffffffffffff1673ffffffffffffffffffffffffffffffffffffffff168152602001908152602001600020819055508060116000828254612e3591906154ea565b925050819055506000601d60006a010000000000000000000373ffffffffffffffffffffffffffffffffffffffff1673ffffffffffffffffffffffffffffffffffffffff16815260200190815260200160002060003373ffffffffffffffffffffffffffffffffffffffff1673ffffffffffffffffffffffffffffffffffffffff1681526020019081526020016000205490506000601d60006a010000000000000000000373ffffffffffffffffffffffffffffffffffffffff1673ffffffffffffffffffffffffffffffffffffffff16815260200190815260200160002060003373ffffffffffffffffffffffffffffffffffffffff1673ffffffffffffffffffffffffffffffffffffffff168152602001908152602001600020819055508060126000828254612f6791906154ea565b92505081905550601f60003373ffffffffffffffffffffffffffffffffffffffff1673ffffffffffffffffffffffffffffffffffffffff1681526020019081526020016000205460196000828254612fbf91906154ea565b92505081905550602060003373ffffffffffffffffffffffffffffffffffffffff1673ffffffffffffffffffffffffffffffffffffffff16815260200190815260200160002054601a600082825461301791906154ea565b925050819055506000601f60003373ffffffffffffffffffffffffffffffffffffffff1673ffffffffffffffffffffffffffffffffffffffff168152602001908152602001600020819055506000602060003373ffffffffffffffffffffffffffffffffffffffff1673ffffffffffffffffffffffffffffffffffffffff168152602001908152602001600020819055506000602160003373ffffffffffffffffffffffffffffffffffffffff1673ffffffffffffffffffffffffffffffffffffffff168152602001908152602001600020819055506000600367ffffffffffffffff811115613130577f4e487b7100000000000000000000000000000000000000000000000000000000600052604160045260246000fd5b60405190808252806020026020018201604052801561315e5781602001602082028036833780820191505090505b5090506a0100000000000000000003816000815181106131a7577f4e487b7100000000000000000000000000000000000000000000000000000000600052603260045260246000fd5b602002602001019073ffffffffffffffffffffffffffffffffffffffff16908173ffffffffffffffffffffffffffffffffffffffff16815250506a010000000000000000000181600181518110613227577f4e487b7100000000000000000000000000000000000000000000000000000000600052603260045260246000fd5b602002602001019073ffffffffffffffffffffffffffffffffffffffff16908173ffffffffffffffffffffffffffffffffffffffff16815250506a0100000000000000000002816002815181106132a7577f4e487b7100000000000000000000000000000000000000000000000000000000600052603260045260246000fd5b602002602001019073ffffffffffffffffffffffffffffffffffffffff16908173ffffffffffffffffffffffffffffffffffffffff16815250506000600560009054906101000a900473ffffffffffffffffffffffffffffffffffffffff1673ffffffffffffffffffffffffffffffffffffffff16634d60beb183856040518363ffffffff1660e01b8152600401613340929190615021565b60206040518083038186803b15801561335857600080fd5b505afa15801561336c573d6000803e3d6000fd5b505050506040513d601f19601f820116820180604052508101906133909190614acb565b9050600560009054906101000a900473ffffffffffffffffffffffffffffffffffffffff1673ffffffffffffffffffffffffffffffffffffffff16636fc4b4e5838560016040518463ffffffff1660e01b81526004016133f293929190615051565b602060405180830381600087803b15801561340c57600080fd5b505af1158015613420573d6000803e3d6000fd5b505050506040513d601f19601f820116820180604052508101906134449190614a38565b613483576040517f08c379a000000000000000000000000000000000000000000000000000000000815260040161347a9061528c565b60405180910390fd5b600860009054906101000a900473ffffffffffffffffffffffffffffffffffffffff1673ffffffffffffffffffffffffffffffffffffffff1663a9059cbb33836040518363ffffffff1660e01b81526004016134e0929190614ff8565b602060405180830381600087803b1580156134fa57600080fd5b505af115801561350e573d6000803e3d6000fd5b505050506040513d601f19601f820116820180604052508101906135329190614a38565b506000601c60003373ffffffffffffffffffffffffffffffffffffffff1673ffffffffffffffffffffffffffffffffffffffff16815260200190815260200160002060006101000a81548160ff02191690831515021790555060006001601b8054905061359f91906154ea565b905060005b8181116137b457601b81815481106135e5577f4e487b7100000000000000000000000000000000000000000000000000000000600052603260045260246000fd5b9060005260206000200160009054906101000a900473ffffffffffffffffffffffffffffffffffffffff1673ffffffffffffffffffffffffffffffffffffffff163373ffffffffffffffffffffffffffffffffffffffff1614156137a1578181101561373357601b8281548110613685577f4e487b7100000000000000000000000000000000000000000000000000000000600052603260045260246000fd5b9060005260206000200160009054906101000a900473ffffffffffffffffffffffffffffffffffffffff16601b82815481106136ea577f4e487b7100000000000000000000000000000000000000000000000000000000600052603260045260246000fd5b9060005260206000200160006101000a81548173ffffffffffffffffffffffffffffffffffffffff021916908373ffffffffffffffffffffffffffffffffffffffff1602179055505b601b80548061376b577f4e487b7100000000000000000000000000000000000000000000000000000000600052603160045260246000fd5b6001900381819060005260206000200160006101000a81549073ffffffffffffffffffffffffffffffffffffffff021916905590555b80806137ac90615651565b9150506135a4565b505050505050565b6a01000000000000000000ab81565b6a010000000000000000001481565b61080081565b6000600160008473ffffffffffffffffffffffffffffffffffffffff1673ffffffffffffffffffffffffffffffffffffffff16815260200190815260200160002060008373ffffffffffffffffffffffffffffffffffffffff1673ffffffffffffffffffffffffffffffffffffffff16815260200190815260200160002054905092915050565b6a020000000003000000000181565b600c5481565b60115481565b61080181565b6a01000000000000000000a881565b600860009054906101000a900473ffffffffffffffffffffffffffffffffffffffff1673ffffffffffffffffffffffffffffffffffffffff1663dd62ed3e33306040518363ffffffff1660e01b81526004016138f4929190614f30565b60206040518083038186803b15801561390c57600080fd5b505afa158015613920573d6000803e3d6000fd5b505050506040513d601f19601f820116820180604052508101906139449190614acb565b821115613986576040517f08c379a000000000000000000000000000000000000000000000000000000000815260040161397d906152ac565b60405180910390fd5b601c60003373ffffffffffffffffffffffffffffffffffffffff1673ffffffffffffffffffffffffffffffffffffffff16815260200190815260200160002060009054906101000a900460ff16613ad7576001601c60003373ffffffffffffffffffffffffffffffffffffffff1673ffffffffffffffffffffffffffffffffffffffff16815260200190815260200160002060006101000a81548160ff021916908315150217905550601b339080600181540180825580915050600190039060005260206000200160009091909190916101000a81548173ffffffffffffffffffffffffffffffffffffffff021916908373ffffffffffffffffffffffffffffffffffffffff16021790555080601e60003373ffffffffffffffffffffffffffffffffffffffff1673ffffffffffffffffffffffffffffffffffffffff168152602001908152602001600020819055505b600860009054906101000a900473ffffffffffffffffffffffffffffffffffffffff1673ffffffffffffffffffffffffffffffffffffffff166323b872dd3330856040518463ffffffff1660e01b8152600401613b3693929190614f59565b602060405180830381600087803b158015613b5057600080fd5b505af1158015613b64573d6000803e3d6000fd5b505050506040513d601f19601f82011682018060405250810190613b889190614a38565b5081601d60006a010000000000000000000273ffffffffffffffffffffffffffffffffffffffff1673ffffffffffffffffffffffffffffffffffffffff16815260200190815260200160002060003373ffffffffffffffffffffffffffffffffffffffff1673ffffffffffffffffffffffffffffffffffffffff1681526020019081526020016000206000828254613c209190615409565b92505081905550613c313383614722565b81601d60003073ffffffffffffffffffffffffffffffffffffffff1673ffffffffffffffffffffffffffffffffffffffff16815260200190815260200160002060003373ffffffffffffffffffffffffffffffffffffffff1673ffffffffffffffffffffffffffffffffffffffff1681526020019081526020016000206000828254613cbd9190615409565b925050819055505050565b60105481565b6a030000000000000000000181565b600f60009054906101000a900473ffffffffffffffffffffffffffffffffffffffff1681565b6a01000000000000000000a981565b600033905090565b600073ffffffffffffffffffffffffffffffffffffffff168373ffffffffffffffffffffffffffffffffffffffff161415613d8a576040517f08c379a0000000000000000000000000000000000000000000000000000000008152600401613d819061526c565b60405180910390fd5b600073ffffffffffffffffffffffffffffffffffffffff168273ffffffffffffffffffffffffffffffffffffffff161415613dfa576040517f08c379a0000000000000000000000000000000000000000000000000000000008152600401613df19061514c565b60405180910390fd5b80600160008573ffffffffffffffffffffffffffffffffffffffff1673ffffffffffffffffffffffffffffffffffffffff16815260200190815260200160002060008473ffffffffffffffffffffffffffffffffffffffff1673ffffffffffffffffffffffffffffffffffffffff168152602001908152602001600020819055508173ffffffffffffffffffffffffffffffffffffffff168373ffffffffffffffffffffffffffffffffffffffff167f8c5be1e5ebec7d5bd14f71427d1e84f3dd0314c0f7b2291e5b200ac8c7c3b92583604051613ed8919061530c565b60405180910390a3505050565b6000613ef184846137e0565b90507fffffffffffffffffffffffffffffffffffffffffffffffffffffffffffffffff8114613f6b5781811015613f5d576040517f08c379a0000000000000000000000000000000000000000000000000000000008152600401613f549061516c565b60405180910390fd5b613f6a8484848403613d1a565b5b50505050565b600073ffffffffffffffffffffffffffffffffffffffff168373ffffffffffffffffffffffffffffffffffffffff161415613fe1576040517f08c379a0000000000000000000000000000000000000000000000000000000008152600401613fd89061524c565b60405180910390fd5b600073ffffffffffffffffffffffffffffffffffffffff168273ffffffffffffffffffffffffffffffffffffffff161415614051576040517f08c379a0000000000000000000000000000000000000000000000000000000008152600401614048906150ec565b60405180910390fd5b61405c838383614882565b60008060008573ffffffffffffffffffffffffffffffffffffffff1673ffffffffffffffffffffffffffffffffffffffff168152602001908152602001600020549050818110156140e2576040517f08c379a00000000000000000000000000000000000000000000000000000000081526004016140d9906151ac565b60405180910390fd5b8181036000808673ffffffffffffffffffffffffffffffffffffffff1673ffffffffffffffffffffffffffffffffffffffff16815260200190815260200160002081905550816000808573ffffffffffffffffffffffffffffffffffffffff1673ffffffffffffffffffffffffffffffffffffffff16815260200190815260200160002060008282546141759190615409565b925050819055508273ffffffffffffffffffffffffffffffffffffffff168473ffffffffffffffffffffffffffffffffffffffff167fddf252ad1be2c89b69c2b068fc378daa952ba7f163c4a11628f55a4df523b3ef846040516141d9919061530c565b60405180910390a36141ec848484614887565b50505050565b60005b6001601b8054905061420791906154ea565b8111614546576000601b8281548110614249577f4e487b7100000000000000000000000000000000000000000000000000000000600052603260045260246000fd5b9060005260206000200160009054906101000a900473ffffffffffffffffffffffffffffffffffffffff16905060006019541180156142c757506000601f60008373ffffffffffffffffffffffffffffffffffffffff1673ffffffffffffffffffffffffffffffffffffffff16815260200190815260200160002054115b80156142d35750600084115b156143d457600084601954601f60008573ffffffffffffffffffffffffffffffffffffffff1673ffffffffffffffffffffffffffffffffffffffff16815260200190815260200160002054614328919061545f565b6143329190615490565b905080601d60006a010000000000000000000173ffffffffffffffffffffffffffffffffffffffff1673ffffffffffffffffffffffffffffffffffffffff16815260200190815260200160002060008473ffffffffffffffffffffffffffffffffffffffff1673ffffffffffffffffffffffffffffffffffffffff16815260200190815260200160002060008282546143cb9190615409565b92505081905550505b6000601a5411801561442557506000602060008373ffffffffffffffffffffffffffffffffffffffff1673ffffffffffffffffffffffffffffffffffffffff16815260200190815260200160002054115b80156144315750600083115b1561453257600083601a54602060008573ffffffffffffffffffffffffffffffffffffffff1673ffffffffffffffffffffffffffffffffffffffff16815260200190815260200160002054614486919061545f565b6144909190615490565b905080601d60006a010000000000000000000073ffffffffffffffffffffffffffffffffffffffff1673ffffffffffffffffffffffffffffffffffffffff16815260200190815260200160002060008473ffffffffffffffffffffffffffffffffffffffff1673ffffffffffffffffffffffffffffffffffffffff16815260200190815260200160002060008282546145299190615409565b92505081905550505b50808061453e90615651565b9150506141f5565b505050565b600073ffffffffffffffffffffffffffffffffffffffff168273ffffffffffffffffffffffffffffffffffffffff1614156145bb576040517f08c379a00000000000000000000000000000000000000000000000000000000081526004016145b29061522c565b60405180910390fd5b6145c782600083614882565b60008060008473ffffffffffffffffffffffffffffffffffffffff1673ffffffffffffffffffffffffffffffffffffffff1681526020019081526020016000205490508181101561464d576040517f08c379a00000000000000000000000000000000000000000000000000000000081526004016146449061510c565b60405180910390fd5b8181036000808573ffffffffffffffffffffffffffffffffffffffff1673ffffffffffffffffffffffffffffffffffffffff1681526020019081526020016000208190555081600260008282546146a491906154ea565b92505081905550600073ffffffffffffffffffffffffffffffffffffffff168373ffffffffffffffffffffffffffffffffffffffff167fddf252ad1be2c89b69c2b068fc378daa952ba7f163c4a11628f55a4df523b3ef84604051614709919061530c565b60405180910390a361471d83600084614887565b505050565b600073ffffffffffffffffffffffffffffffffffffffff168273ffffffffffffffffffffffffffffffffffffffff161415614792576040517f08c379a0000000000000000000000000000000000000000000000000000000008152600401614789906152ec565b60405180910390fd5b61479e60008383614882565b80600260008282546147b09190615409565b92505081905550806000808473ffffffffffffffffffffffffffffffffffffffff1673ffffffffffffffffffffffffffffffffffffffff16815260200190815260200160002060008282546148059190615409565b925050819055508173ffffffffffffffffffffffffffffffffffffffff16600073ffffffffffffffffffffffffffffffffffffffff167fddf252ad1be2c89b69c2b068fc378daa952ba7f163c4a11628f55a4df523b3ef8360405161486a919061530c565b60405180910390a361487e60008383614887565b5050565b505050565b505050565b600061489f61489a84615367565b615342565b9050828152602081018484840111156148b757600080fd5b6148c28482856155bb565b509392505050565b6000813590506148d981615bc5565b92915050565b6000815190506148ee81615bdc565b92915050565b600082601f83011261490557600080fd5b815161491584826020860161488c565b91505092915050565b60008135905061492d81615bf3565b92915050565b60008151905061494281615bf3565b92915050565b60006020828403121561495a57600080fd5b6000614968848285016148ca565b91505092915050565b6000806040838503121561498457600080fd5b6000614992858286016148ca565b92505060206149a3858286016148ca565b9150509250929050565b6000806000606084860312156149c257600080fd5b60006149d0868287016148ca565b93505060206149e1868287016148ca565b92505060406149f28682870161491e565b9150509250925092565b60008060408385031215614a0f57600080fd5b6000614a1d858286016148ca565b9250506020614a2e8582860161491e565b9150509250929050565b600060208284031215614a4a57600080fd5b6000614a58848285016148df565b91505092915050565b600060208284031215614a7357600080fd5b600082015167ffffffffffffffff811115614a8d57600080fd5b614a99848285016148f4565b91505092915050565b600060208284031215614ab457600080fd5b6000614ac28482850161491e565b91505092915050565b600060208284031215614add57600080fd5b6000614aeb84828501614933565b91505092915050565b60008060408385031215614b0757600080fd5b6000614b158582860161491e565b9250506020614b268582860161491e565b9150509250929050565b6000614b3c8383614b48565b60208301905092915050565b614b518161551e565b82525050565b614b608161551e565b82525050565b6000614b71826153a8565b614b7b81856153d6565b9350614b8683615398565b8060005b83811015614bb7578151614b9e8882614b30565b9750614ba9836153c9565b925050600181019050614b8a565b5085935050505092915050565b614bcd81615530565b82525050565b6000614bde826153b3565b614be881856153e7565b9350614bf88185602086016155bb565b614c0181615756565b840191505092915050565b614c1581615573565b82525050565b614c2481615585565b82525050565b614c3381615597565b82525050565b614c42816155a9565b82525050565b6000614c53826153be565b614c5d81856153f8565b9350614c6d8185602086016155bb565b614c7681615756565b840191505092915050565b6000614c8e600f836153f8565b9150614c9982615767565b602082019050919050565b6000614cb16023836153f8565b9150614cbc82615790565b604082019050919050565b6000614cd46022836153f8565b9150614cdf826157df565b604082019050919050565b6000614cf7601d836153f8565b9150614d028261582e565b602082019050919050565b6000614d1a6022836153f8565b9150614d2582615857565b604082019050919050565b6000614d3d601d836153f8565b9150614d48826158a6565b602082019050919050565b6000614d606025836153f8565b9150614d6b826158cf565b604082019050919050565b6000614d836026836153f8565b9150614d8e8261591e565b604082019050919050565b6000614da66015836153f8565b9150614db18261596d565b602082019050919050565b6000614dc9601c836153f8565b9150614dd482615996565b602082019050919050565b6000614dec6020836153f8565b9150614df7826159bf565b602082019050919050565b6000614e0f6021836153f8565b9150614e1a826159e8565b604082019050919050565b6000614e326025836153f8565b9150614e3d82615a37565b604082019050919050565b6000614e556024836153f8565b9150614e6082615a86565b604082019050919050565b6000614e78601c836153f8565b9150614e8382615ad5565b602082019050919050565b6000614e9b6022836153f8565b9150614ea682615afe565b604082019050919050565b6000614ebe6025836153f8565b9150614ec982615b4d565b604082019050919050565b6000614ee1601f836153f8565b9150614eec82615b9c565b602082019050919050565b614f008161555c565b82525050565b614f0f81615566565b82525050565b6000602082019050614f2a6000830184614b57565b92915050565b6000604082019050614f456000830185614b57565b614f526020830184614b57565b9392505050565b6000606082019050614f6e6000830186614b57565b614f7b6020830185614b57565b614f886040830184614ef7565b949350505050565b600060c082019050614fa56000830189614b57565b614fb26020830188614c0c565b614fbf6040830187614c1b565b614fcc6060830186614c39565b614fd96080830185614ef7565b81810360a0830152614feb8184614bd3565b9050979650505050505050565b600060408201905061500d6000830185614b57565b61501a6020830184614ef7565b9392505050565b6000604082019050818103600083015261503b8185614b66565b905061504a6020830184614ef7565b9392505050565b6000606082019050818103600083015261506b8186614b66565b905061507a6020830185614ef7565b6150876040830184614c2a565b949350505050565b60006020820190506150a46000830184614bc4565b92915050565b600060208201905081810360008301526150c48184614c48565b905092915050565b600060208201905081810360008301526150e581614c81565b9050919050565b6000602082019050818103600083015261510581614ca4565b9050919050565b6000602082019050818103600083015261512581614cc7565b9050919050565b6000602082019050818103600083015261514581614cea565b9050919050565b6000602082019050818103600083015261516581614d0d565b9050919050565b6000602082019050818103600083015261518581614d30565b9050919050565b600060208201905081810360008301526151a581614d53565b9050919050565b600060208201905081810360008301526151c581614d76565b9050919050565b600060208201905081810360008301526151e581614d99565b9050919050565b6000602082019050818103600083015261520581614dbc565b9050919050565b6000602082019050818103600083015261522581614ddf565b9050919050565b6000602082019050818103600083015261524581614e02565b9050919050565b6000602082019050818103600083015261526581614e25565b9050919050565b6000602082019050818103600083015261528581614e48565b9050919050565b600060208201905081810360008301526152a581614e6b565b9050919050565b600060208201905081810360008301526152c581614e8e565b9050919050565b600060208201905081810360008301526152e581614eb1565b9050919050565b6000602082019050818103600083015261530581614ed4565b9050919050565b60006020820190506153216000830184614ef7565b92915050565b600060208201905061533c6000830184614f06565b92915050565b600061534c61535d565b90506153588282615620565b919050565b6000604051905090565b600067ffffffffffffffff82111561538257615381615727565b5b61538b82615756565b9050602081019050919050565b6000819050602082019050919050565b600081519050919050565b600081519050919050565b600081519050919050565b6000602082019050919050565b600082825260208201905092915050565b600082825260208201905092915050565b600082825260208201905092915050565b60006154148261555c565b915061541f8361555c565b9250827fffffffffffffffffffffffffffffffffffffffffffffffffffffffffffffffff038211156154545761545361569a565b5b828201905092915050565b600061546a8261555c565b91506154758361555c565b925082615485576154846156c9565b5b828204905092915050565b600061549b8261555c565b91506154a68361555c565b9250817fffffffffffffffffffffffffffffffffffffffffffffffffffffffffffffffff04831182151516156154df576154de61569a565b5b828202905092915050565b60006154f58261555c565b91506155008361555c565b9250828210156155135761551261569a565b5b828203905092915050565b60006155298261553c565b9050919050565b60008115159050919050565b600073ffffffffffffffffffffffffffffffffffffffff82169050919050565b6000819050919050565b600060ff82169050919050565b600061557e8261555c565b9050919050565b60006155908261555c565b9050919050565b60006155a28261555c565b9050919050565b60006155b48261555c565b9050919050565b60005b838110156155d95780820151818401526020810190506155be565b838111156155e8576000848401525b50505050565b6000600282049050600182168061560657607f821691505b6020821081141561561a576156196156f8565b5b50919050565b61562982615756565b810181811067ffffffffffffffff8211171561564857615647615727565b5b80604052505050565b600061565c8261555c565b91507fffffffffffffffffffffffffffffffffffffffffffffffffffffffffffffffff82141561568f5761568e61569a565b5b600182019050919050565b7f4e487b7100000000000000000000000000000000000000000000000000000000600052601160045260246000fd5b7f4e487b7100000000000000000000000000000000000000000000000000000000600052601260045260246000fd5b7f4e487b7100000000000000000000000000000000000000000000000000000000600052602260045260246000fd5b7f4e487b7100000000000000000000000000000000000000000000000000000000600052604160045260246000fd5b6000601f19601f8301169050919050565b7f486f6d61204d696e74204572726f720000000000000000000000000000000000600082015250565b7f45524332303a207472616e7366657220746f20746865207a65726f206164647260008201527f6573730000000000000000000000000000000000000000000000000000000000602082015250565b7f45524332303a206275726e20616d6f756e7420657863656564732062616c616e60008201527f6365000000000000000000000000000000000000000000000000000000000000602082015250565b7f5377617070696e67204c444f5420666f722041555344206661696c6564000000600082015250565b7f45524332303a20617070726f766520746f20746865207a65726f20616464726560008201527f7373000000000000000000000000000000000000000000000000000000000000602082015250565b7f45524332303a20696e73756666696369656e7420616c6c6f77616e6365000000600082015250565b7f6e6f7420656e6f75676820737472617465677920746f6b656e7320746f20756e60008201527f7374616b65000000000000000000000000000000000000000000000000000000602082015250565b7f45524332303a207472616e7366657220616d6f756e742065786365656473206260008201527f616c616e63650000000000000000000000000000000000000000000000000000602082015250565b7f616374696f6e206f6e6c7920666f722061646d696e0000000000000000000000600082015250565b7f5377617070696e67204155534420666f7220414341206661696c656400000000600082015250565b7f616374696f6e206f6e6c7920666f722074686973207363206f722061646d696e600082015250565b7f45524332303a206275726e2066726f6d20746865207a65726f2061646472657360008201527f7300000000000000000000000000000000000000000000000000000000000000602082015250565b7f45524332303a207472616e736665722066726f6d20746865207a65726f20616460008201527f6472657373000000000000000000000000000000000000000000000000000000602082015250565b7f45524332303a20617070726f76652066726f6d20746865207a65726f2061646460008201527f7265737300000000000000000000000000000000000000000000000000000000602082015250565b7f5377617070696e67204c444f5420666f7220444f54206661696c656400000000600082015250565b7f636c69656e74206e6565647320746f20696e63726561736520616c6c6f77616e60008201527f6365000000000000000000000000000000000000000000000000000000000000602082015250565b7f45524332303a2064656372656173656420616c6c6f77616e63652062656c6f7760008201527f207a65726f000000000000000000000000000000000000000000000000000000602082015250565b7f45524332303a206d696e7420746f20746865207a65726f206164647265737300600082015250565b615bce8161551e565b8114615bd957600080fd5b50565b615be581615530565b8114615bf057600080fd5b50565b615bfc8161555c565b8114615c0757600080fd5b5056fea2646970667358221220aa227892215b52c80fb3f4ac7e166be43a5305c360b68f261e234ce837cce72964736f6c63430008040033",
  "linkReferences": {},
  "deployedLinkReferences": {}
}